{
	"contracts/Voting.sol": {
		"Voting": {
			"abi": [
				{
					"inputs": [
						{
							"internalType": "address",
							"name": "_addressContract",
							"type": "address"
						}
					],
					"stateMutability": "nonpayable",
					"type": "constructor"
				},
				{
					"inputs": [
						{
							"internalType": "address",
							"name": "owner",
							"type": "address"
						}
					],
					"name": "OwnableInvalidOwner",
					"type": "error"
				},
				{
					"inputs": [
						{
							"internalType": "address",
							"name": "account",
							"type": "address"
						}
					],
					"name": "OwnableUnauthorizedAccount",
					"type": "error"
				},
				{
					"anonymous": false,
					"inputs": [
						{
							"indexed": true,
							"internalType": "address",
							"name": "previousOwner",
							"type": "address"
						},
						{
							"indexed": true,
							"internalType": "address",
							"name": "newOwner",
							"type": "address"
						}
					],
					"name": "OwnershipTransferred",
					"type": "event"
				},
				{
					"inputs": [
						{
							"internalType": "uint256",
							"name": "",
							"type": "uint256"
						}
					],
					"name": "candidates",
					"outputs": [
						{
							"internalType": "string",
							"name": "name",
							"type": "string"
						},
						{
							"internalType": "string",
							"name": "desc",
							"type": "string"
						},
						{
							"internalType": "uint256",
							"name": "votes",
							"type": "uint256"
						}
					],
					"stateMutability": "view",
					"type": "function"
				},
				{
					"inputs": [],
					"name": "checkHasVoted",
					"outputs": [
						{
							"internalType": "bool",
							"name": "",
							"type": "bool"
						}
					],
					"stateMutability": "view",
					"type": "function"
				},
				{
					"inputs": [],
					"name": "checkIsOnwer",
					"outputs": [
						{
							"internalType": "bool",
							"name": "",
							"type": "bool"
						}
					],
					"stateMutability": "view",
					"type": "function"
				},
				{
					"inputs": [
						{
							"internalType": "string",
							"name": "_name",
							"type": "string"
						},
						{
							"internalType": "string",
							"name": "_desc",
							"type": "string"
						}
					],
					"name": "createCandidate",
					"outputs": [],
					"stateMutability": "nonpayable",
					"type": "function"
				},
				{
					"inputs": [],
					"name": "getAllCandidates",
					"outputs": [
						{
							"components": [
								{
									"internalType": "string",
									"name": "name",
									"type": "string"
								},
								{
									"internalType": "string",
									"name": "desc",
									"type": "string"
								},
								{
									"internalType": "uint256",
									"name": "votes",
									"type": "uint256"
								}
							],
							"internalType": "struct Voting.Person[]",
							"name": "",
							"type": "tuple[]"
						}
					],
					"stateMutability": "view",
					"type": "function"
				},
				{
					"inputs": [
						{
							"internalType": "uint256",
							"name": "_indexCandidate",
							"type": "uint256"
						}
					],
					"name": "getCandidateVoters",
					"outputs": [
						{
							"internalType": "address[]",
							"name": "",
							"type": "address[]"
						}
					],
					"stateMutability": "view",
					"type": "function"
				},
				{
					"inputs": [],
					"name": "getTheMostVoteCandidates",
					"outputs": [
						{
							"components": [
								{
									"internalType": "string",
									"name": "name",
									"type": "string"
								},
								{
									"internalType": "string",
									"name": "desc",
									"type": "string"
								},
								{
									"internalType": "uint256",
									"name": "votes",
									"type": "uint256"
								}
							],
							"internalType": "struct Voting.Person",
							"name": "",
							"type": "tuple"
						}
					],
					"stateMutability": "view",
					"type": "function"
				},
				{
					"inputs": [
						{
							"internalType": "address",
							"name": "",
							"type": "address"
						}
					],
					"name": "hasVoted",
					"outputs": [
						{
							"internalType": "bool",
							"name": "",
							"type": "bool"
						}
					],
					"stateMutability": "view",
					"type": "function"
				},
				{
					"inputs": [],
					"name": "owner",
					"outputs": [
						{
							"internalType": "address",
							"name": "",
							"type": "address"
						}
					],
					"stateMutability": "view",
					"type": "function"
				},
				{
					"inputs": [
						{
							"internalType": "uint256",
							"name": "_indexCandidate",
							"type": "uint256"
						}
					],
					"name": "removeCandidate",
					"outputs": [],
					"stateMutability": "nonpayable",
					"type": "function"
				},
				{
					"inputs": [
						{
							"internalType": "uint256",
							"name": "_index",
							"type": "uint256"
						}
					],
					"name": "removeUser",
					"outputs": [],
					"stateMutability": "nonpayable",
					"type": "function"
				},
				{
					"inputs": [],
					"name": "renounceOwnership",
					"outputs": [],
					"stateMutability": "nonpayable",
					"type": "function"
				},
				{
					"inputs": [
						{
							"internalType": "address",
							"name": "newOwner",
							"type": "address"
						}
					],
					"name": "transferOwnership",
					"outputs": [],
					"stateMutability": "nonpayable",
					"type": "function"
				},
				{
					"inputs": [
						{
							"internalType": "uint256",
							"name": "_indexCandidate",
							"type": "uint256"
						}
					],
					"name": "vote",
					"outputs": [],
					"stateMutability": "nonpayable",
					"type": "function"
				},
				{
					"inputs": [
						{
							"internalType": "address",
							"name": "",
							"type": "address"
						}
					],
					"name": "voterChoice",
					"outputs": [
						{
							"internalType": "uint256",
							"name": "",
							"type": "uint256"
						}
					],
					"stateMutability": "view",
					"type": "function"
				},
				{
					"inputs": [
						{
							"internalType": "uint256",
							"name": "",
							"type": "uint256"
						},
						{
							"internalType": "uint256",
							"name": "",
							"type": "uint256"
						}
					],
					"name": "voters",
					"outputs": [
						{
							"internalType": "address",
							"name": "",
							"type": "address"
						}
					],
					"stateMutability": "view",
					"type": "function"
				}
			],
			"devdoc": {
				"errors": {
					"OwnableInvalidOwner(address)": [
						{
							"details": "The owner is not a valid owner account. (eg. `address(0)`)"
						}
					],
					"OwnableUnauthorizedAccount(address)": [
						{
							"details": "The caller account is not authorized to perform an operation."
						}
					]
				},
				"kind": "dev",
				"methods": {
					"owner()": {
						"details": "Returns the address of the current owner."
					},
					"renounceOwnership()": {
						"details": "Leaves the contract without owner. It will not be possible to call `onlyOwner` functions. Can only be called by the current owner. NOTE: Renouncing ownership will leave the contract without an owner, thereby disabling any functionality that is only available to the owner."
					},
					"transferOwnership(address)": {
						"details": "Transfers ownership of the contract to a new account (`newOwner`). Can only be called by the current owner."
					}
				},
				"version": 1
			},
			"evm": {
				"assembly": "    /* \"contracts/Voting.sol\":386:2921  contract Voting is Ownable {... */\n  mstore(0x40, 0x80)\n    /* \"contracts/Voting.sol\":717:830  constructor(address _addressContract) Ownable(msg.sender) {... */\n  callvalue\n  dup1\n  iszero\n  tag_1\n  jumpi\n  revert(0x00, 0x00)\ntag_1:\n  pop\n  mload(0x40)\n  sub(codesize, bytecodeSize)\n  dup1\n  bytecodeSize\n  dup4\n  codecopy\n  dup2\n  dup2\n  add\n  0x40\n  mstore\n  dup2\n  add\n  swap1\n  tag_2\n  swap2\n  swap1\n  tag_3\n  jump\t// in\ntag_2:\n    /* \"contracts/Voting.sol\":763:773  msg.sender */\n  caller\n    /* \"@openzeppelin/contracts/access/Ownable.sol\":1297:1298  0 */\n  0x00\n    /* \"@openzeppelin/contracts/access/Ownable.sol\":1273:1299  initialOwner == address(0) */\n  0xffffffffffffffffffffffffffffffffffffffff\n  and\n    /* \"@openzeppelin/contracts/access/Ownable.sol\":1273:1285  initialOwner */\n  dup2\n    /* \"@openzeppelin/contracts/access/Ownable.sol\":1273:1299  initialOwner == address(0) */\n  0xffffffffffffffffffffffffffffffffffffffff\n  and\n  sub\n    /* \"@openzeppelin/contracts/access/Ownable.sol\":1269:1364  if (initialOwner == address(0)) {... */\n  tag_7\n  jumpi\n    /* \"@openzeppelin/contracts/access/Ownable.sol\":1350:1351  0 */\n  0x00\n    /* \"@openzeppelin/contracts/access/Ownable.sol\":1322:1353  OwnableInvalidOwner(address(0)) */\n  mload(0x40)\n  0x1e4fbdf700000000000000000000000000000000000000000000000000000000\n  dup2\n  mstore\n  0x04\n  add\n  tag_8\n  swap2\n  swap1\n  tag_9\n  jump\t// in\ntag_8:\n  mload(0x40)\n  dup1\n  swap2\n  sub\n  swap1\n  revert\n    /* \"@openzeppelin/contracts/access/Ownable.sol\":1269:1364  if (initialOwner == address(0)) {... */\ntag_7:\n    /* \"@openzeppelin/contracts/access/Ownable.sol\":1373:1405  _transferOwnership(initialOwner) */\n  tag_10\n    /* \"@openzeppelin/contracts/access/Ownable.sol\":1392:1404  initialOwner */\n  dup2\n    /* \"@openzeppelin/contracts/access/Ownable.sol\":1373:1391  _transferOwnership */\n  shl(0x20, tag_11)\n    /* \"@openzeppelin/contracts/access/Ownable.sol\":1373:1405  _transferOwnership(initialOwner) */\n  0x20\n  shr\n  jump\t// in\ntag_10:\n    /* \"@openzeppelin/contracts/access/Ownable.sol\":1225:1412  constructor(address initialOwner) {... */\n  pop\n    /* \"contracts/Voting.sol\":806:822  _addressContract */\n  dup1\n    /* \"contracts/Voting.sol\":785:797  userContract */\n  0x01\n  0x00\n    /* \"contracts/Voting.sol\":785:823  userContract = IUser(_addressContract) */\n  0x0100\n  exp\n  dup2\n  sload\n  dup2\n  0xffffffffffffffffffffffffffffffffffffffff\n  mul\n  not\n  and\n  swap1\n  dup4\n  0xffffffffffffffffffffffffffffffffffffffff\n  and\n  mul\n  or\n  swap1\n  sstore\n  pop\n    /* \"contracts/Voting.sol\":717:830  constructor(address _addressContract) Ownable(msg.sender) {... */\n  pop\n    /* \"contracts/Voting.sol\":386:2921  contract Voting is Ownable {... */\n  jump(tag_13)\n    /* \"@openzeppelin/contracts/access/Ownable.sol\":2912:3099  function _transferOwnership(address newOwner) internal virtual {... */\ntag_11:\n    /* \"@openzeppelin/contracts/access/Ownable.sol\":2985:3001  address oldOwner */\n  0x00\n    /* \"@openzeppelin/contracts/access/Ownable.sol\":3004:3010  _owner */\n  0x00\n  0x00\n  swap1\n  sload\n  swap1\n  0x0100\n  exp\n  swap1\n  div\n  0xffffffffffffffffffffffffffffffffffffffff\n  and\n    /* \"@openzeppelin/contracts/access/Ownable.sol\":2985:3010  address oldOwner = _owner */\n  swap1\n  pop\n    /* \"@openzeppelin/contracts/access/Ownable.sol\":3029:3037  newOwner */\n  dup2\n    /* \"@openzeppelin/contracts/access/Ownable.sol\":3020:3026  _owner */\n  0x00\n  0x00\n    /* \"@openzeppelin/contracts/access/Ownable.sol\":3020:3037  _owner = newOwner */\n  0x0100\n  exp\n  dup2\n  sload\n  dup2\n  0xffffffffffffffffffffffffffffffffffffffff\n  mul\n  not\n  and\n  swap1\n  dup4\n  0xffffffffffffffffffffffffffffffffffffffff\n  and\n  mul\n  or\n  swap1\n  sstore\n  pop\n    /* \"@openzeppelin/contracts/access/Ownable.sol\":3083:3091  newOwner */\n  dup2\n    /* \"@openzeppelin/contracts/access/Ownable.sol\":3052:3092  OwnershipTransferred(oldOwner, newOwner) */\n  0xffffffffffffffffffffffffffffffffffffffff\n  and\n    /* \"@openzeppelin/contracts/access/Ownable.sol\":3073:3081  oldOwner */\n  dup2\n    /* \"@openzeppelin/contracts/access/Ownable.sol\":3052:3092  OwnershipTransferred(oldOwner, newOwner) */\n  0xffffffffffffffffffffffffffffffffffffffff\n  and\n  0x8be0079c531659141344cd1fd0a4f28419497f9722a3daafe3b4186f6b6457e0\n  mload(0x40)\n  mload(0x40)\n  dup1\n  swap2\n  sub\n  swap1\n  log3\n    /* \"@openzeppelin/contracts/access/Ownable.sol\":2975:3099  {... */\n  pop\n    /* \"@openzeppelin/contracts/access/Ownable.sol\":2912:3099  function _transferOwnership(address newOwner) internal virtual {... */\n  pop\n  jump\t// out\n    /* \"#utility.yul\":88:205   */\ntag_16:\n    /* \"#utility.yul\":197:198   */\n  0x00\n    /* \"#utility.yul\":194:195   */\n  0x00\n    /* \"#utility.yul\":187:199   */\n  revert\n    /* \"#utility.yul\":334:460   */\ntag_18:\n    /* \"#utility.yul\":371:378   */\n  0x00\n    /* \"#utility.yul\":411:453   */\n  0xffffffffffffffffffffffffffffffffffffffff\n    /* \"#utility.yul\":404:409   */\n  dup3\n    /* \"#utility.yul\":400:454   */\n  and\n    /* \"#utility.yul\":389:454   */\n  swap1\n  pop\n    /* \"#utility.yul\":334:460   */\n  swap2\n  swap1\n  pop\n  jump\t// out\n    /* \"#utility.yul\":466:562   */\ntag_19:\n    /* \"#utility.yul\":503:510   */\n  0x00\n    /* \"#utility.yul\":532:556   */\n  tag_29\n    /* \"#utility.yul\":550:555   */\n  dup3\n    /* \"#utility.yul\":532:556   */\n  tag_18\n  jump\t// in\ntag_29:\n    /* \"#utility.yul\":521:556   */\n  swap1\n  pop\n    /* \"#utility.yul\":466:562   */\n  swap2\n  swap1\n  pop\n  jump\t// out\n    /* \"#utility.yul\":568:690   */\ntag_20:\n    /* \"#utility.yul\":641:665   */\n  tag_31\n    /* \"#utility.yul\":659:664   */\n  dup2\n    /* \"#utility.yul\":641:665   */\n  tag_19\n  jump\t// in\ntag_31:\n    /* \"#utility.yul\":634:639   */\n  dup2\n    /* \"#utility.yul\":631:666   */\n  eq\n    /* \"#utility.yul\":621:684   */\n  tag_32\n  jumpi\n    /* \"#utility.yul\":680:681   */\n  0x00\n    /* \"#utility.yul\":677:678   */\n  0x00\n    /* \"#utility.yul\":670:682   */\n  revert\n    /* \"#utility.yul\":621:684   */\ntag_32:\n    /* \"#utility.yul\":568:690   */\n  pop\n  jump\t// out\n    /* \"#utility.yul\":696:839   */\ntag_21:\n    /* \"#utility.yul\":753:758   */\n  0x00\n    /* \"#utility.yul\":784:790   */\n  dup2\n    /* \"#utility.yul\":778:791   */\n  mload\n    /* \"#utility.yul\":769:791   */\n  swap1\n  pop\n    /* \"#utility.yul\":800:833   */\n  tag_34\n    /* \"#utility.yul\":827:832   */\n  dup2\n    /* \"#utility.yul\":800:833   */\n  tag_20\n  jump\t// in\ntag_34:\n    /* \"#utility.yul\":696:839   */\n  swap3\n  swap2\n  pop\n  pop\n  jump\t// out\n    /* \"#utility.yul\":845:1196   */\ntag_3:\n    /* \"#utility.yul\":915:921   */\n  0x00\n    /* \"#utility.yul\":964:966   */\n  0x20\n    /* \"#utility.yul\":952:961   */\n  dup3\n    /* \"#utility.yul\":943:950   */\n  dup5\n    /* \"#utility.yul\":939:962   */\n  sub\n    /* \"#utility.yul\":935:967   */\n  slt\n    /* \"#utility.yul\":932:1051   */\n  iszero\n  tag_36\n  jumpi\n    /* \"#utility.yul\":970:1049   */\n  tag_37\n  tag_16\n  jump\t// in\ntag_37:\n    /* \"#utility.yul\":932:1051   */\ntag_36:\n    /* \"#utility.yul\":1090:1091   */\n  0x00\n    /* \"#utility.yul\":1115:1179   */\n  tag_38\n    /* \"#utility.yul\":1171:1178   */\n  dup5\n    /* \"#utility.yul\":1162:1168   */\n  dup3\n    /* \"#utility.yul\":1151:1160   */\n  dup6\n    /* \"#utility.yul\":1147:1169   */\n  add\n    /* \"#utility.yul\":1115:1179   */\n  tag_21\n  jump\t// in\ntag_38:\n    /* \"#utility.yul\":1105:1179   */\n  swap2\n  pop\n    /* \"#utility.yul\":1061:1189   */\n  pop\n    /* \"#utility.yul\":845:1196   */\n  swap3\n  swap2\n  pop\n  pop\n  jump\t// out\n    /* \"#utility.yul\":1202:1320   */\ntag_22:\n    /* \"#utility.yul\":1289:1313   */\n  tag_40\n    /* \"#utility.yul\":1307:1312   */\n  dup2\n    /* \"#utility.yul\":1289:1313   */\n  tag_19\n  jump\t// in\ntag_40:\n    /* \"#utility.yul\":1284:1287   */\n  dup3\n    /* \"#utility.yul\":1277:1314   */\n  mstore\n    /* \"#utility.yul\":1202:1320   */\n  pop\n  pop\n  jump\t// out\n    /* \"#utility.yul\":1326:1548   */\ntag_9:\n    /* \"#utility.yul\":1419:1423   */\n  0x00\n    /* \"#utility.yul\":1457:1459   */\n  0x20\n    /* \"#utility.yul\":1446:1455   */\n  dup3\n    /* \"#utility.yul\":1442:1460   */\n  add\n    /* \"#utility.yul\":1434:1460   */\n  swap1\n  pop\n    /* \"#utility.yul\":1470:1541   */\n  tag_42\n    /* \"#utility.yul\":1538:1539   */\n  0x00\n    /* \"#utility.yul\":1527:1536   */\n  dup4\n    /* \"#utility.yul\":1523:1540   */\n  add\n    /* \"#utility.yul\":1514:1520   */\n  dup5\n    /* \"#utility.yul\":1470:1541   */\n  tag_22\n  jump\t// in\ntag_42:\n    /* \"#utility.yul\":1326:1548   */\n  swap3\n  swap2\n  pop\n  pop\n  jump\t// out\n    /* \"contracts/Voting.sol\":386:2921  contract Voting is Ownable {... */\ntag_13:\n  dataSize(sub_0)\n  dup1\n  dataOffset(sub_0)\n  0x00\n  codecopy\n  0x00\n  return\nstop\n\nsub_0: assembly {\n        /* \"contracts/Voting.sol\":386:2921  contract Voting is Ownable {... */\n      mstore(0x40, 0x80)\n      callvalue\n      dup1\n      iszero\n      tag_1\n      jumpi\n      revert(0x00, 0x00)\n    tag_1:\n      pop\n      jumpi(tag_2, lt(calldatasize, 0x04))\n      shr(0xe0, calldataload(0x00))\n      dup1\n      0x715018a6\n      gt\n      tag_19\n      jumpi\n      dup1\n      0x9ab1c0ed\n      gt\n      tag_20\n      jumpi\n      dup1\n      0x9ab1c0ed\n      eq\n      tag_15\n      jumpi\n      dup1\n      0xad84c2da\n      eq\n      tag_16\n      jumpi\n      dup1\n      0xf2fde38b\n      eq\n      tag_17\n      jumpi\n      dup1\n      0xfba00cbd\n      eq\n      tag_18\n      jumpi\n      jump(tag_2)\n    tag_20:\n      dup1\n      0x715018a6\n      eq\n      tag_11\n      jumpi\n      dup1\n      0x8312feb3\n      eq\n      tag_12\n      jumpi\n      dup1\n      0x8da5cb5b\n      eq\n      tag_13\n      jumpi\n      dup1\n      0x8fd26f89\n      eq\n      tag_14\n      jumpi\n      jump(tag_2)\n    tag_19:\n      dup1\n      0x1234ce9d\n      gt\n      tag_21\n      jumpi\n      dup1\n      0x1234ce9d\n      eq\n      tag_7\n      jumpi\n      dup1\n      0x2e6997fe\n      eq\n      tag_8\n      jumpi\n      dup1\n      0x3477ee2e\n      eq\n      tag_9\n      jumpi\n      dup1\n      0x4521083f\n      eq\n      tag_10\n      jumpi\n      jump(tag_2)\n    tag_21:\n      dup1\n      0x0121b93f\n      eq\n      tag_3\n      jumpi\n      dup1\n      0x09e9d7e2\n      eq\n      tag_4\n      jumpi\n      dup1\n      0x09eef43e\n      eq\n      tag_5\n      jumpi\n      dup1\n      0x11dc4703\n      eq\n      tag_6\n      jumpi\n    tag_2:\n      revert(0x00, 0x00)\n        /* \"contracts/Voting.sol\":1746:2278  function vote(uint256 _indexCandidate) public {... */\n    tag_3:\n      tag_22\n      0x04\n      dup1\n      calldatasize\n      sub\n      dup2\n      add\n      swap1\n      tag_23\n      swap2\n      swap1\n      tag_24\n      jump\t// in\n    tag_23:\n      tag_25\n      jump\t// in\n    tag_22:\n      stop\n        /* \"contracts/Voting.sol\":1305:1740  function removeCandidate(uint256 _indexCandidate) external onlyOwner {... */\n    tag_4:\n      tag_26\n      0x04\n      dup1\n      calldatasize\n      sub\n      dup2\n      add\n      swap1\n      tag_27\n      swap2\n      swap1\n      tag_24\n      jump\t// in\n    tag_27:\n      tag_28\n      jump\t// in\n    tag_26:\n      stop\n        /* \"contracts/Voting.sol\":569:609  mapping(address => bool) public hasVoted */\n    tag_5:\n      tag_29\n      0x04\n      dup1\n      calldatasize\n      sub\n      dup2\n      add\n      swap1\n      tag_30\n      swap2\n      swap1\n      tag_31\n      jump\t// in\n    tag_30:\n      tag_32\n      jump\t// in\n    tag_29:\n      mload(0x40)\n      tag_33\n      swap2\n      swap1\n      tag_34\n      jump\t// in\n    tag_33:\n      mload(0x40)\n      dup1\n      swap2\n      sub\n      swap1\n      return\n        /* \"contracts/Voting.sol\":836:933  function removeUser(uint256 _index) public onlyOwner {... */\n    tag_6:\n      tag_35\n      0x04\n      dup1\n      calldatasize\n      sub\n      dup2\n      add\n      swap1\n      tag_36\n      swap2\n      swap1\n      tag_24\n      jump\t// in\n    tag_36:\n      tag_37\n      jump\t// in\n    tag_35:\n      stop\n        /* \"contracts/Voting.sol\":2390:2486  function checkHasVoted() public view returns (bool) {... */\n    tag_7:\n      tag_38\n      tag_39\n      jump\t// in\n    tag_38:\n      mload(0x40)\n      tag_40\n      swap2\n      swap1\n      tag_34\n      jump\t// in\n    tag_40:\n      mload(0x40)\n      dup1\n      swap2\n      sub\n      swap1\n      return\n        /* \"contracts/Voting.sol\":2284:2384  function getAllCandidates() public view returns (Person[] memory) {... */\n    tag_8:\n      tag_41\n      tag_42\n      jump\t// in\n    tag_41:\n      mload(0x40)\n      tag_43\n      swap2\n      swap1\n      tag_44\n      jump\t// in\n    tag_43:\n      mload(0x40)\n      dup1\n      swap2\n      sub\n      swap1\n      return\n        /* \"contracts/Voting.sol\":536:562  Person[] public candidates */\n    tag_9:\n      tag_45\n      0x04\n      dup1\n      calldatasize\n      sub\n      dup2\n      add\n      swap1\n      tag_46\n      swap2\n      swap1\n      tag_24\n      jump\t// in\n    tag_46:\n      tag_47\n      jump\t// in\n    tag_45:\n      mload(0x40)\n      tag_48\n      swap4\n      swap3\n      swap2\n      swap1\n      tag_49\n      jump\t// in\n    tag_48:\n      mload(0x40)\n      dup1\n      swap2\n      sub\n      swap1\n      return\n        /* \"contracts/Voting.sol\":939:1079  function getCandidateVoters(uint256 _indexCandidate) public view returns ( address[] memory) {... */\n    tag_10:\n      tag_50\n      0x04\n      dup1\n      calldatasize\n      sub\n      dup2\n      add\n      swap1\n      tag_51\n      swap2\n      swap1\n      tag_24\n      jump\t// in\n    tag_51:\n      tag_52\n      jump\t// in\n    tag_50:\n      mload(0x40)\n      tag_53\n      swap2\n      swap1\n      tag_54\n      jump\t// in\n    tag_53:\n      mload(0x40)\n      dup1\n      swap2\n      sub\n      swap1\n      return\n        /* \"@openzeppelin/contracts/access/Ownable.sol\":2293:2394  function renounceOwnership() public virtual onlyOwner {... */\n    tag_11:\n      tag_55\n      tag_56\n      jump\t// in\n    tag_55:\n      stop\n        /* \"contracts/Voting.sol\":2595:2919  function getTheMostVoteCandidates() public view returns (Person memory) {... */\n    tag_12:\n      tag_57\n      tag_58\n      jump\t// in\n    tag_57:\n      mload(0x40)\n      tag_59\n      swap2\n      swap1\n      tag_60\n      jump\t// in\n    tag_59:\n      mload(0x40)\n      dup1\n      swap2\n      sub\n      swap1\n      return\n        /* \"@openzeppelin/contracts/access/Ownable.sol\":1638:1723  function owner() public view virtual returns (address) {... */\n    tag_13:\n      tag_61\n      tag_62\n      jump\t// in\n    tag_61:\n      mload(0x40)\n      tag_63\n      swap2\n      swap1\n      tag_64\n      jump\t// in\n    tag_63:\n      mload(0x40)\n      dup1\n      swap2\n      sub\n      swap1\n      return\n        /* \"contracts/Voting.sol\":2492:2588  function checkIsOnwer() public view returns (bool) {... */\n    tag_14:\n      tag_65\n      tag_66\n      jump\t// in\n    tag_65:\n      mload(0x40)\n      tag_67\n      swap2\n      swap1\n      tag_34\n      jump\t// in\n    tag_67:\n      mload(0x40)\n      dup1\n      swap2\n      sub\n      swap1\n      return\n        /* \"contracts/Voting.sol\":1085:1299  function createCandidate(... */\n    tag_15:\n      tag_68\n      0x04\n      dup1\n      calldatasize\n      sub\n      dup2\n      add\n      swap1\n      tag_69\n      swap2\n      swap1\n      tag_70\n      jump\t// in\n    tag_69:\n      tag_71\n      jump\t// in\n    tag_68:\n      stop\n        /* \"contracts/Voting.sol\":615:661  mapping(address => uint256) public voterChoice */\n    tag_16:\n      tag_72\n      0x04\n      dup1\n      calldatasize\n      sub\n      dup2\n      add\n      swap1\n      tag_73\n      swap2\n      swap1\n      tag_31\n      jump\t// in\n    tag_73:\n      tag_74\n      jump\t// in\n    tag_72:\n      mload(0x40)\n      tag_75\n      swap2\n      swap1\n      tag_76\n      jump\t// in\n    tag_75:\n      mload(0x40)\n      dup1\n      swap2\n      sub\n      swap1\n      return\n        /* \"@openzeppelin/contracts/access/Ownable.sol\":2543:2758  function transferOwnership(address newOwner) public virtual onlyOwner {... */\n    tag_17:\n      tag_77\n      0x04\n      dup1\n      calldatasize\n      sub\n      dup2\n      add\n      swap1\n      tag_78\n      swap2\n      swap1\n      tag_31\n      jump\t// in\n    tag_78:\n      tag_79\n      jump\t// in\n    tag_77:\n      stop\n        /* \"contracts/Voting.sol\":667:710  mapping(uint256 => address[]) public voters */\n    tag_18:\n      tag_80\n      0x04\n      dup1\n      calldatasize\n      sub\n      dup2\n      add\n      swap1\n      tag_81\n      swap2\n      swap1\n      tag_82\n      jump\t// in\n    tag_81:\n      tag_83\n      jump\t// in\n    tag_80:\n      mload(0x40)\n      tag_84\n      swap2\n      swap1\n      tag_64\n      jump\t// in\n    tag_84:\n      mload(0x40)\n      dup1\n      swap2\n      sub\n      swap1\n      return\n        /* \"contracts/Voting.sol\":1746:2278  function vote(uint256 _indexCandidate) public {... */\n    tag_25:\n        /* \"contracts/Voting.sol\":1802:1835  IUser.UserInformation memory user */\n      0x00\n        /* \"contracts/Voting.sol\":1838:1850  userContract */\n      0x01\n      0x00\n      swap1\n      sload\n      swap1\n      0x0100\n      exp\n      swap1\n      div\n      0xffffffffffffffffffffffffffffffffffffffff\n      and\n        /* \"contracts/Voting.sol\":1838:1858  userContract.getUser */\n      0xffffffffffffffffffffffffffffffffffffffff\n      and\n      0x6f77926b\n        /* \"contracts/Voting.sol\":1859:1869  msg.sender */\n      caller\n        /* \"contracts/Voting.sol\":1838:1870  userContract.getUser(msg.sender) */\n      mload(0x40)\n      dup3\n      0xffffffff\n      and\n      0xe0\n      shl\n      dup2\n      mstore\n      0x04\n      add\n      tag_86\n      swap2\n      swap1\n      tag_64\n      jump\t// in\n    tag_86:\n      0x00\n      mload(0x40)\n      dup1\n      dup4\n      sub\n      dup2\n      dup7\n      gas\n      staticcall\n      iszero\n      dup1\n      iszero\n      tag_88\n      jumpi\n      returndatacopy(0x00, 0x00, returndatasize)\n      revert(0x00, returndatasize)\n    tag_88:\n      pop\n      pop\n      pop\n      pop\n      mload(0x40)\n      returndatasize\n      0x00\n      dup3\n      returndatacopy\n      returndatasize\n      not(0x1f)\n      0x1f\n      dup3\n      add\n      and\n      dup3\n      add\n      dup1\n      0x40\n      mstore\n      pop\n      dup2\n      add\n      swap1\n      tag_89\n      swap2\n      swap1\n      tag_90\n      jump\t// in\n    tag_89:\n        /* \"contracts/Voting.sol\":1802:1870  IUser.UserInformation memory user = userContract.getUser(msg.sender) */\n      swap1\n      pop\n        /* \"contracts/Voting.sol\":1915:1916  0 */\n      0x00\n        /* \"contracts/Voting.sol\":1895:1899  user */\n      dup2\n        /* \"contracts/Voting.sol\":1895:1904  user.name */\n      0x00\n      add\n      mload\n        /* \"contracts/Voting.sol\":1889:1912  bytes(user.name).length */\n      mload\n        /* \"contracts/Voting.sol\":1889:1916  bytes(user.name).length > 0 */\n      gt\n        /* \"contracts/Voting.sol\":1881:1943  require(bytes(user.name).length > 0, \"This user is not exist\") */\n      tag_91\n      jumpi\n      mload(0x40)\n      0x08c379a000000000000000000000000000000000000000000000000000000000\n      dup2\n      mstore\n      0x04\n      add\n      tag_92\n      swap1\n      tag_93\n      jump\t// in\n    tag_92:\n      mload(0x40)\n      dup1\n      swap2\n      sub\n      swap1\n      revert\n    tag_91:\n        /* \"contracts/Voting.sol\":1962:1970  hasVoted */\n      0x03\n        /* \"contracts/Voting.sol\":1962:1982  hasVoted[msg.sender] */\n      0x00\n        /* \"contracts/Voting.sol\":1971:1981  msg.sender */\n      caller\n        /* \"contracts/Voting.sol\":1962:1982  hasVoted[msg.sender] */\n      0xffffffffffffffffffffffffffffffffffffffff\n      and\n      0xffffffffffffffffffffffffffffffffffffffff\n      and\n      dup2\n      mstore\n      0x20\n      add\n      swap1\n      dup2\n      mstore\n      0x20\n      add\n      0x00\n      keccak256\n      0x00\n      swap1\n      sload\n      swap1\n      0x0100\n      exp\n      swap1\n      div\n      0xff\n      and\n        /* \"contracts/Voting.sol\":1961:1982  !hasVoted[msg.sender] */\n      iszero\n        /* \"contracts/Voting.sol\":1953:2012  require(!hasVoted[msg.sender], \"This person already voted\") */\n      tag_94\n      jumpi\n      mload(0x40)\n      0x08c379a000000000000000000000000000000000000000000000000000000000\n      dup2\n      mstore\n      0x04\n      add\n      tag_95\n      swap1\n      tag_96\n      jump\t// in\n    tag_95:\n      mload(0x40)\n      dup1\n      swap2\n      sub\n      swap1\n      revert\n    tag_94:\n        /* \"contracts/Voting.sol\":2048:2058  candidates */\n      0x02\n        /* \"contracts/Voting.sol\":2048:2065  candidates.length */\n      dup1\n      sload\n      swap1\n      pop\n        /* \"contracts/Voting.sol\":2030:2045  _indexCandidate */\n      dup3\n        /* \"contracts/Voting.sol\":2030:2065  _indexCandidate < candidates.length */\n      lt\n        /* \"contracts/Voting.sol\":2022:2087  require(_indexCandidate < candidates.length, \"Invalid candidate\") */\n      tag_97\n      jumpi\n      mload(0x40)\n      0x08c379a000000000000000000000000000000000000000000000000000000000\n      dup2\n      mstore\n      0x04\n      add\n      tag_98\n      swap1\n      tag_99\n      jump\t// in\n    tag_98:\n      mload(0x40)\n      dup1\n      swap2\n      sub\n      swap1\n      revert\n    tag_97:\n        /* \"contracts/Voting.sol\":2098:2104  voters */\n      0x05\n        /* \"contracts/Voting.sol\":2098:2121  voters[_indexCandidate] */\n      0x00\n        /* \"contracts/Voting.sol\":2105:2120  _indexCandidate */\n      dup4\n        /* \"contracts/Voting.sol\":2098:2121  voters[_indexCandidate] */\n      dup2\n      mstore\n      0x20\n      add\n      swap1\n      dup2\n      mstore\n      0x20\n      add\n      0x00\n      keccak256\n        /* \"contracts/Voting.sol\":2127:2137  msg.sender */\n      caller\n        /* \"contracts/Voting.sol\":2098:2138  voters[_indexCandidate].push(msg.sender) */\n      swap1\n      dup1\n      0x01\n      dup2\n      sload\n      add\n      dup1\n      dup3\n      sstore\n      dup1\n      swap2\n      pop\n      pop\n      0x01\n      swap1\n      sub\n      swap1\n      0x00\n      mstore\n      keccak256(0x00, 0x20)\n      add\n      0x00\n      swap1\n      swap2\n      swap1\n      swap2\n      swap1\n      swap2\n      0x0100\n      exp\n      dup2\n      sload\n      dup2\n      0xffffffffffffffffffffffffffffffffffffffff\n      mul\n      not\n      and\n      swap1\n      dup4\n      0xffffffffffffffffffffffffffffffffffffffff\n      and\n      mul\n      or\n      swap1\n      sstore\n      pop\n        /* \"contracts/Voting.sol\":2148:2158  candidates */\n      0x02\n        /* \"contracts/Voting.sol\":2159:2174  _indexCandidate */\n      dup3\n        /* \"contracts/Voting.sol\":2148:2175  candidates[_indexCandidate] */\n      dup2\n      sload\n      dup2\n      lt\n      tag_101\n      jumpi\n      tag_102\n      tag_103\n      jump\t// in\n    tag_102:\n    tag_101:\n      swap1\n      0x00\n      mstore\n      keccak256(0x00, 0x20)\n      swap1\n      0x03\n      mul\n      add\n        /* \"contracts/Voting.sol\":2148:2181  candidates[_indexCandidate].votes */\n      0x02\n      add\n      0x00\n        /* \"contracts/Voting.sol\":2148:2183  candidates[_indexCandidate].votes++ */\n      dup2\n      sload\n      dup1\n      swap3\n      swap2\n      swap1\n      tag_105\n      swap1\n      tag_106\n      jump\t// in\n    tag_105:\n      swap2\n      swap1\n      pop\n      sstore\n      pop\n        /* \"contracts/Voting.sol\":2216:2220  true */\n      0x01\n        /* \"contracts/Voting.sol\":2193:2201  hasVoted */\n      0x03\n        /* \"contracts/Voting.sol\":2193:2213  hasVoted[msg.sender] */\n      0x00\n        /* \"contracts/Voting.sol\":2202:2212  msg.sender */\n      caller\n        /* \"contracts/Voting.sol\":2193:2213  hasVoted[msg.sender] */\n      0xffffffffffffffffffffffffffffffffffffffff\n      and\n      0xffffffffffffffffffffffffffffffffffffffff\n      and\n      dup2\n      mstore\n      0x20\n      add\n      swap1\n      dup2\n      mstore\n      0x20\n      add\n      0x00\n      keccak256\n      0x00\n        /* \"contracts/Voting.sol\":2193:2220  hasVoted[msg.sender] = true */\n      0x0100\n      exp\n      dup2\n      sload\n      dup2\n      0xff\n      mul\n      not\n      and\n      swap1\n      dup4\n      iszero\n      iszero\n      mul\n      or\n      swap1\n      sstore\n      pop\n        /* \"contracts/Voting.sol\":2256:2271  _indexCandidate */\n      dup2\n        /* \"contracts/Voting.sol\":2230:2241  voterChoice */\n      0x04\n        /* \"contracts/Voting.sol\":2230:2253  voterChoice[msg.sender] */\n      0x00\n        /* \"contracts/Voting.sol\":2242:2252  msg.sender */\n      caller\n        /* \"contracts/Voting.sol\":2230:2253  voterChoice[msg.sender] */\n      0xffffffffffffffffffffffffffffffffffffffff\n      and\n      0xffffffffffffffffffffffffffffffffffffffff\n      and\n      dup2\n      mstore\n      0x20\n      add\n      swap1\n      dup2\n      mstore\n      0x20\n      add\n      0x00\n      keccak256\n        /* \"contracts/Voting.sol\":2230:2271  voterChoice[msg.sender] = _indexCandidate */\n      dup2\n      swap1\n      sstore\n      pop\n        /* \"contracts/Voting.sol\":1792:2278  {... */\n      pop\n        /* \"contracts/Voting.sol\":1746:2278  function vote(uint256 _indexCandidate) public {... */\n      pop\n      jump\t// out\n        /* \"contracts/Voting.sol\":1305:1740  function removeCandidate(uint256 _indexCandidate) external onlyOwner {... */\n    tag_28:\n        /* \"@openzeppelin/contracts/access/Ownable.sol\":1531:1544  _checkOwner() */\n      tag_108\n        /* \"@openzeppelin/contracts/access/Ownable.sol\":1531:1542  _checkOwner */\n      tag_109\n        /* \"@openzeppelin/contracts/access/Ownable.sol\":1531:1544  _checkOwner() */\n      jump\t// in\n    tag_108:\n        /* \"contracts/Voting.sol\":1414:1424  candidates */\n      0x02\n        /* \"contracts/Voting.sol\":1445:1446  1 */\n      0x01\n        /* \"contracts/Voting.sol\":1425:1435  candidates */\n      0x02\n        /* \"contracts/Voting.sol\":1425:1442  candidates.length */\n      dup1\n      sload\n      swap1\n      pop\n        /* \"contracts/Voting.sol\":1425:1446  candidates.length - 1 */\n      tag_111\n      swap2\n      swap1\n      tag_112\n      jump\t// in\n    tag_111:\n        /* \"contracts/Voting.sol\":1414:1447  candidates[candidates.length - 1] */\n      dup2\n      sload\n      dup2\n      lt\n      tag_113\n      jumpi\n      tag_114\n      tag_103\n      jump\t// in\n    tag_114:\n    tag_113:\n      swap1\n      0x00\n      mstore\n      keccak256(0x00, 0x20)\n      swap1\n      0x03\n      mul\n      add\n        /* \"contracts/Voting.sol\":1384:1394  candidates */\n      0x02\n        /* \"contracts/Voting.sol\":1395:1410  _indexCandidate */\n      dup3\n        /* \"contracts/Voting.sol\":1384:1411  candidates[_indexCandidate] */\n      dup2\n      sload\n      dup2\n      lt\n      tag_116\n      jumpi\n      tag_117\n      tag_103\n      jump\t// in\n    tag_117:\n    tag_116:\n      swap1\n      0x00\n      mstore\n      keccak256(0x00, 0x20)\n      swap1\n      0x03\n      mul\n      add\n        /* \"contracts/Voting.sol\":1384:1447  candidates[_indexCandidate] = candidates[candidates.length - 1] */\n      0x00\n      dup3\n      add\n      dup2\n      0x00\n      add\n      swap1\n      dup2\n      tag_119\n      swap2\n      swap1\n      tag_120\n      jump\t// in\n    tag_119:\n      pop\n      0x01\n      dup3\n      add\n      dup2\n      0x01\n      add\n      swap1\n      dup2\n      tag_121\n      swap2\n      swap1\n      tag_120\n      jump\t// in\n    tag_121:\n      pop\n      0x02\n      dup3\n      add\n      sload\n      dup2\n      0x02\n      add\n      sstore\n      swap1\n      pop\n      pop\n        /* \"contracts/Voting.sol\":1457:1467  candidates */\n      0x02\n        /* \"contracts/Voting.sol\":1457:1473  candidates.pop() */\n      dup1\n      sload\n      dup1\n      tag_122\n      jumpi\n      tag_123\n      tag_124\n      jump\t// in\n    tag_123:\n    tag_122:\n      0x01\n      swap1\n      sub\n      dup2\n      dup2\n      swap1\n      0x00\n      mstore\n      keccak256(0x00, 0x20)\n      swap1\n      0x03\n      mul\n      add\n      0x00\n      0x00\n      dup3\n      add\n      0x00\n      tag_126\n      swap2\n      swap1\n      tag_127\n      jump\t// in\n    tag_126:\n      0x01\n      dup3\n      add\n      0x00\n      tag_128\n      swap2\n      swap1\n      tag_127\n      jump\t// in\n    tag_128:\n      0x02\n      dup3\n      add\n      0x00\n      swap1\n      sstore\n      pop\n      pop\n      swap1\n      sstore\n        /* \"contracts/Voting.sol\":1483:1507  address[] memory _voters */\n      0x00\n        /* \"contracts/Voting.sol\":1510:1545  getCandidateVoters(_indexCandidate) */\n      tag_129\n        /* \"contracts/Voting.sol\":1529:1544  _indexCandidate */\n      dup3\n        /* \"contracts/Voting.sol\":1510:1528  getCandidateVoters */\n      tag_52\n        /* \"contracts/Voting.sol\":1510:1545  getCandidateVoters(_indexCandidate) */\n      jump\t// in\n    tag_129:\n        /* \"contracts/Voting.sol\":1483:1545  address[] memory _voters = getCandidateVoters(_indexCandidate) */\n      swap1\n      pop\n        /* \"contracts/Voting.sol\":1560:1569  uint256 i */\n      0x00\n        /* \"contracts/Voting.sol\":1572:1573  0 */\n      0x00\n        /* \"contracts/Voting.sol\":1560:1573  uint256 i = 0 */\n      swap1\n      pop\n        /* \"contracts/Voting.sol\":1555:1694  for (uint256 i = 0; i < _voters.length; i++) {... */\n    tag_130:\n        /* \"contracts/Voting.sol\":1579:1586  _voters */\n      dup2\n        /* \"contracts/Voting.sol\":1579:1593  _voters.length */\n      mload\n        /* \"contracts/Voting.sol\":1575:1576  i */\n      dup2\n        /* \"contracts/Voting.sol\":1575:1593  i < _voters.length */\n      lt\n        /* \"contracts/Voting.sol\":1555:1694  for (uint256 i = 0; i < _voters.length; i++) {... */\n      iszero\n      tag_131\n      jumpi\n        /* \"contracts/Voting.sol\":1637:1642  false */\n      0x00\n        /* \"contracts/Voting.sol\":1614:1622  hasVoted */\n      0x03\n        /* \"contracts/Voting.sol\":1614:1634  hasVoted[_voters[i]] */\n      0x00\n        /* \"contracts/Voting.sol\":1623:1630  _voters */\n      dup5\n        /* \"contracts/Voting.sol\":1631:1632  i */\n      dup5\n        /* \"contracts/Voting.sol\":1623:1633  _voters[i] */\n      dup2\n      mload\n      dup2\n      lt\n      tag_133\n      jumpi\n      tag_134\n      tag_103\n      jump\t// in\n    tag_134:\n    tag_133:\n      0x20\n      mul\n      0x20\n      add\n      add\n      mload\n        /* \"contracts/Voting.sol\":1614:1634  hasVoted[_voters[i]] */\n      0xffffffffffffffffffffffffffffffffffffffff\n      and\n      0xffffffffffffffffffffffffffffffffffffffff\n      and\n      dup2\n      mstore\n      0x20\n      add\n      swap1\n      dup2\n      mstore\n      0x20\n      add\n      0x00\n      keccak256\n      0x00\n        /* \"contracts/Voting.sol\":1614:1642  hasVoted[_voters[i]] = false */\n      0x0100\n      exp\n      dup2\n      sload\n      dup2\n      0xff\n      mul\n      not\n      and\n      swap1\n      dup4\n      iszero\n      iszero\n      mul\n      or\n      swap1\n      sstore\n      pop\n        /* \"contracts/Voting.sol\":1682:1683  0 */\n      0x00\n        /* \"contracts/Voting.sol\":1656:1667  voterChoice */\n      0x04\n        /* \"contracts/Voting.sol\":1656:1679  voterChoice[_voters[i]] */\n      0x00\n        /* \"contracts/Voting.sol\":1668:1675  _voters */\n      dup5\n        /* \"contracts/Voting.sol\":1676:1677  i */\n      dup5\n        /* \"contracts/Voting.sol\":1668:1678  _voters[i] */\n      dup2\n      mload\n      dup2\n      lt\n      tag_135\n      jumpi\n      tag_136\n      tag_103\n      jump\t// in\n    tag_136:\n    tag_135:\n      0x20\n      mul\n      0x20\n      add\n      add\n      mload\n        /* \"contracts/Voting.sol\":1656:1679  voterChoice[_voters[i]] */\n      0xffffffffffffffffffffffffffffffffffffffff\n      and\n      0xffffffffffffffffffffffffffffffffffffffff\n      and\n      dup2\n      mstore\n      0x20\n      add\n      swap1\n      dup2\n      mstore\n      0x20\n      add\n      0x00\n      keccak256\n        /* \"contracts/Voting.sol\":1656:1683  voterChoice[_voters[i]] = 0 */\n      dup2\n      swap1\n      sstore\n      pop\n        /* \"contracts/Voting.sol\":1595:1598  i++ */\n      dup1\n      dup1\n      0x01\n      add\n      swap2\n      pop\n      pop\n        /* \"contracts/Voting.sol\":1555:1694  for (uint256 i = 0; i < _voters.length; i++) {... */\n      jump(tag_130)\n    tag_131:\n      pop\n        /* \"contracts/Voting.sol\":1710:1716  voters */\n      0x05\n        /* \"contracts/Voting.sol\":1710:1733  voters[_indexCandidate] */\n      0x00\n        /* \"contracts/Voting.sol\":1717:1732  _indexCandidate */\n      dup4\n        /* \"contracts/Voting.sol\":1710:1733  voters[_indexCandidate] */\n      dup2\n      mstore\n      0x20\n      add\n      swap1\n      dup2\n      mstore\n      0x20\n      add\n      0x00\n      keccak256\n      0x00\n        /* \"contracts/Voting.sol\":1703:1733  delete voters[_indexCandidate] */\n      tag_137\n      swap2\n      swap1\n      tag_138\n      jump\t// in\n    tag_137:\n        /* \"contracts/Voting.sol\":1374:1740  {... */\n      pop\n        /* \"contracts/Voting.sol\":1305:1740  function removeCandidate(uint256 _indexCandidate) external onlyOwner {... */\n      pop\n      jump\t// out\n        /* \"contracts/Voting.sol\":569:609  mapping(address => bool) public hasVoted */\n    tag_32:\n      mstore(0x20, 0x03)\n      dup1\n      0x00\n      mstore\n      keccak256(0x00, 0x40)\n      0x00\n      swap2\n      pop\n      sload\n      swap1\n      0x0100\n      exp\n      swap1\n      div\n      0xff\n      and\n      dup2\n      jump\t// out\n        /* \"contracts/Voting.sol\":836:933  function removeUser(uint256 _index) public onlyOwner {... */\n    tag_37:\n        /* \"@openzeppelin/contracts/access/Ownable.sol\":1531:1544  _checkOwner() */\n      tag_140\n        /* \"@openzeppelin/contracts/access/Ownable.sol\":1531:1542  _checkOwner */\n      tag_109\n        /* \"@openzeppelin/contracts/access/Ownable.sol\":1531:1544  _checkOwner() */\n      jump\t// in\n    tag_140:\n        /* \"contracts/Voting.sol\":899:911  userContract */\n      0x01\n      0x00\n      swap1\n      sload\n      swap1\n      0x0100\n      exp\n      swap1\n      div\n      0xffffffffffffffffffffffffffffffffffffffff\n      and\n        /* \"contracts/Voting.sol\":899:918  userContract.remove */\n      0xffffffffffffffffffffffffffffffffffffffff\n      and\n      0x4cc82215\n        /* \"contracts/Voting.sol\":919:925  _index */\n      dup3\n        /* \"contracts/Voting.sol\":899:926  userContract.remove(_index) */\n      mload(0x40)\n      dup3\n      0xffffffff\n      and\n      0xe0\n      shl\n      dup2\n      mstore\n      0x04\n      add\n      tag_142\n      swap2\n      swap1\n      tag_76\n      jump\t// in\n    tag_142:\n      0x00\n      mload(0x40)\n      dup1\n      dup4\n      sub\n      dup2\n      0x00\n      dup8\n      dup1\n      extcodesize\n      iszero\n      dup1\n      iszero\n      tag_143\n      jumpi\n      revert(0x00, 0x00)\n    tag_143:\n      pop\n      gas\n      call\n      iszero\n      dup1\n      iszero\n      tag_145\n      jumpi\n      returndatacopy(0x00, 0x00, returndatasize)\n      revert(0x00, returndatasize)\n    tag_145:\n      pop\n      pop\n      pop\n      pop\n        /* \"contracts/Voting.sol\":836:933  function removeUser(uint256 _index) public onlyOwner {... */\n      pop\n      jump\t// out\n        /* \"contracts/Voting.sol\":2390:2486  function checkHasVoted() public view returns (bool) {... */\n    tag_39:\n        /* \"contracts/Voting.sol\":2436:2440  bool */\n      0x00\n        /* \"contracts/Voting.sol\":2459:2467  hasVoted */\n      0x03\n        /* \"contracts/Voting.sol\":2459:2479  hasVoted[msg.sender] */\n      0x00\n        /* \"contracts/Voting.sol\":2468:2478  msg.sender */\n      caller\n        /* \"contracts/Voting.sol\":2459:2479  hasVoted[msg.sender] */\n      0xffffffffffffffffffffffffffffffffffffffff\n      and\n      0xffffffffffffffffffffffffffffffffffffffff\n      and\n      dup2\n      mstore\n      0x20\n      add\n      swap1\n      dup2\n      mstore\n      0x20\n      add\n      0x00\n      keccak256\n      0x00\n      swap1\n      sload\n      swap1\n      0x0100\n      exp\n      swap1\n      div\n      0xff\n      and\n        /* \"contracts/Voting.sol\":2452:2479  return hasVoted[msg.sender] */\n      swap1\n      pop\n        /* \"contracts/Voting.sol\":2390:2486  function checkHasVoted() public view returns (bool) {... */\n      swap1\n      jump\t// out\n        /* \"contracts/Voting.sol\":2284:2384  function getAllCandidates() public view returns (Person[] memory) {... */\n    tag_42:\n        /* \"contracts/Voting.sol\":2333:2348  Person[] memory */\n      0x60\n        /* \"contracts/Voting.sol\":2367:2377  candidates */\n      0x02\n        /* \"contracts/Voting.sol\":2360:2377  return candidates */\n      dup1\n      sload\n      dup1\n      0x20\n      mul\n      0x20\n      add\n      mload(0x40)\n      swap1\n      dup2\n      add\n      0x40\n      mstore\n      dup1\n      swap3\n      swap2\n      swap1\n      dup2\n      dup2\n      mstore\n      0x20\n      add\n      0x00\n      swap1\n    tag_148:\n      dup3\n      dup3\n      lt\n      iszero\n      tag_149\n      jumpi\n      dup4\n      dup3\n      swap1\n      0x00\n      mstore\n      keccak256(0x00, 0x20)\n      swap1\n      0x03\n      mul\n      add\n      mload(0x40)\n      dup1\n      0x60\n      add\n      0x40\n      mstore\n      swap1\n      dup2\n      0x00\n      dup3\n      add\n      dup1\n      sload\n      tag_151\n      swap1\n      tag_152\n      jump\t// in\n    tag_151:\n      dup1\n      0x1f\n      add\n      0x20\n      dup1\n      swap2\n      div\n      mul\n      0x20\n      add\n      mload(0x40)\n      swap1\n      dup2\n      add\n      0x40\n      mstore\n      dup1\n      swap3\n      swap2\n      swap1\n      dup2\n      dup2\n      mstore\n      0x20\n      add\n      dup3\n      dup1\n      sload\n      tag_153\n      swap1\n      tag_152\n      jump\t// in\n    tag_153:\n      dup1\n      iszero\n      tag_154\n      jumpi\n      dup1\n      0x1f\n      lt\n      tag_155\n      jumpi\n      0x0100\n      dup1\n      dup4\n      sload\n      div\n      mul\n      dup4\n      mstore\n      swap2\n      0x20\n      add\n      swap2\n      jump(tag_154)\n    tag_155:\n      dup3\n      add\n      swap2\n      swap1\n      0x00\n      mstore\n      keccak256(0x00, 0x20)\n      swap1\n    tag_156:\n      dup2\n      sload\n      dup2\n      mstore\n      swap1\n      0x01\n      add\n      swap1\n      0x20\n      add\n      dup1\n      dup4\n      gt\n      tag_156\n      jumpi\n      dup3\n      swap1\n      sub\n      0x1f\n      and\n      dup3\n      add\n      swap2\n    tag_154:\n      pop\n      pop\n      pop\n      pop\n      pop\n      dup2\n      mstore\n      0x20\n      add\n      0x01\n      dup3\n      add\n      dup1\n      sload\n      tag_157\n      swap1\n      tag_152\n      jump\t// in\n    tag_157:\n      dup1\n      0x1f\n      add\n      0x20\n      dup1\n      swap2\n      div\n      mul\n      0x20\n      add\n      mload(0x40)\n      swap1\n      dup2\n      add\n      0x40\n      mstore\n      dup1\n      swap3\n      swap2\n      swap1\n      dup2\n      dup2\n      mstore\n      0x20\n      add\n      dup3\n      dup1\n      sload\n      tag_158\n      swap1\n      tag_152\n      jump\t// in\n    tag_158:\n      dup1\n      iszero\n      tag_159\n      jumpi\n      dup1\n      0x1f\n      lt\n      tag_160\n      jumpi\n      0x0100\n      dup1\n      dup4\n      sload\n      div\n      mul\n      dup4\n      mstore\n      swap2\n      0x20\n      add\n      swap2\n      jump(tag_159)\n    tag_160:\n      dup3\n      add\n      swap2\n      swap1\n      0x00\n      mstore\n      keccak256(0x00, 0x20)\n      swap1\n    tag_161:\n      dup2\n      sload\n      dup2\n      mstore\n      swap1\n      0x01\n      add\n      swap1\n      0x20\n      add\n      dup1\n      dup4\n      gt\n      tag_161\n      jumpi\n      dup3\n      swap1\n      sub\n      0x1f\n      and\n      dup3\n      add\n      swap2\n    tag_159:\n      pop\n      pop\n      pop\n      pop\n      pop\n      dup2\n      mstore\n      0x20\n      add\n      0x02\n      dup3\n      add\n      sload\n      dup2\n      mstore\n      pop\n      pop\n      dup2\n      mstore\n      0x20\n      add\n      swap1\n      0x01\n      add\n      swap1\n      jump(tag_148)\n    tag_149:\n      pop\n      pop\n      pop\n      pop\n      swap1\n      pop\n        /* \"contracts/Voting.sol\":2284:2384  function getAllCandidates() public view returns (Person[] memory) {... */\n      swap1\n      jump\t// out\n        /* \"contracts/Voting.sol\":536:562  Person[] public candidates */\n    tag_47:\n      0x02\n      dup2\n      dup2\n      sload\n      dup2\n      lt\n      tag_162\n      jumpi\n      0x00\n      dup1\n      revert\n    tag_162:\n      swap1\n      0x00\n      mstore\n      keccak256(0x00, 0x20)\n      swap1\n      0x03\n      mul\n      add\n      0x00\n      swap2\n      pop\n      swap1\n      pop\n      dup1\n      0x00\n      add\n      dup1\n      sload\n      tag_164\n      swap1\n      tag_152\n      jump\t// in\n    tag_164:\n      dup1\n      0x1f\n      add\n      0x20\n      dup1\n      swap2\n      div\n      mul\n      0x20\n      add\n      mload(0x40)\n      swap1\n      dup2\n      add\n      0x40\n      mstore\n      dup1\n      swap3\n      swap2\n      swap1\n      dup2\n      dup2\n      mstore\n      0x20\n      add\n      dup3\n      dup1\n      sload\n      tag_165\n      swap1\n      tag_152\n      jump\t// in\n    tag_165:\n      dup1\n      iszero\n      tag_166\n      jumpi\n      dup1\n      0x1f\n      lt\n      tag_167\n      jumpi\n      0x0100\n      dup1\n      dup4\n      sload\n      div\n      mul\n      dup4\n      mstore\n      swap2\n      0x20\n      add\n      swap2\n      jump(tag_166)\n    tag_167:\n      dup3\n      add\n      swap2\n      swap1\n      0x00\n      mstore\n      keccak256(0x00, 0x20)\n      swap1\n    tag_168:\n      dup2\n      sload\n      dup2\n      mstore\n      swap1\n      0x01\n      add\n      swap1\n      0x20\n      add\n      dup1\n      dup4\n      gt\n      tag_168\n      jumpi\n      dup3\n      swap1\n      sub\n      0x1f\n      and\n      dup3\n      add\n      swap2\n    tag_166:\n      pop\n      pop\n      pop\n      pop\n      pop\n      swap1\n      dup1\n      0x01\n      add\n      dup1\n      sload\n      tag_169\n      swap1\n      tag_152\n      jump\t// in\n    tag_169:\n      dup1\n      0x1f\n      add\n      0x20\n      dup1\n      swap2\n      div\n      mul\n      0x20\n      add\n      mload(0x40)\n      swap1\n      dup2\n      add\n      0x40\n      mstore\n      dup1\n      swap3\n      swap2\n      swap1\n      dup2\n      dup2\n      mstore\n      0x20\n      add\n      dup3\n      dup1\n      sload\n      tag_170\n      swap1\n      tag_152\n      jump\t// in\n    tag_170:\n      dup1\n      iszero\n      tag_171\n      jumpi\n      dup1\n      0x1f\n      lt\n      tag_172\n      jumpi\n      0x0100\n      dup1\n      dup4\n      sload\n      div\n      mul\n      dup4\n      mstore\n      swap2\n      0x20\n      add\n      swap2\n      jump(tag_171)\n    tag_172:\n      dup3\n      add\n      swap2\n      swap1\n      0x00\n      mstore\n      keccak256(0x00, 0x20)\n      swap1\n    tag_173:\n      dup2\n      sload\n      dup2\n      mstore\n      swap1\n      0x01\n      add\n      swap1\n      0x20\n      add\n      dup1\n      dup4\n      gt\n      tag_173\n      jumpi\n      dup3\n      swap1\n      sub\n      0x1f\n      and\n      dup3\n      add\n      swap2\n    tag_171:\n      pop\n      pop\n      pop\n      pop\n      pop\n      swap1\n      dup1\n      0x02\n      add\n      sload\n      swap1\n      pop\n      dup4\n      jump\t// out\n        /* \"contracts/Voting.sol\":939:1079  function getCandidateVoters(uint256 _indexCandidate) public view returns ( address[] memory) {... */\n    tag_52:\n        /* \"contracts/Voting.sol\":1014:1030  address[] memory */\n      0x60\n        /* \"contracts/Voting.sol\":1049:1055  voters */\n      0x05\n        /* \"contracts/Voting.sol\":1049:1072  voters[_indexCandidate] */\n      0x00\n        /* \"contracts/Voting.sol\":1056:1071  _indexCandidate */\n      dup4\n        /* \"contracts/Voting.sol\":1049:1072  voters[_indexCandidate] */\n      dup2\n      mstore\n      0x20\n      add\n      swap1\n      dup2\n      mstore\n      0x20\n      add\n      0x00\n      keccak256\n        /* \"contracts/Voting.sol\":1042:1072  return voters[_indexCandidate] */\n      dup1\n      sload\n      dup1\n      0x20\n      mul\n      0x20\n      add\n      mload(0x40)\n      swap1\n      dup2\n      add\n      0x40\n      mstore\n      dup1\n      swap3\n      swap2\n      swap1\n      dup2\n      dup2\n      mstore\n      0x20\n      add\n      dup3\n      dup1\n      sload\n      dup1\n      iszero\n      tag_175\n      jumpi\n      0x20\n      mul\n      dup3\n      add\n      swap2\n      swap1\n      0x00\n      mstore\n      keccak256(0x00, 0x20)\n      swap1\n    tag_176:\n      dup2\n      0x00\n      swap1\n      sload\n      swap1\n      0x0100\n      exp\n      swap1\n      div\n      0xffffffffffffffffffffffffffffffffffffffff\n      and\n      0xffffffffffffffffffffffffffffffffffffffff\n      and\n      dup2\n      mstore\n      0x20\n      add\n      swap1\n      0x01\n      add\n      swap1\n      dup1\n      dup4\n      gt\n      tag_176\n      jumpi\n    tag_175:\n      pop\n      pop\n      pop\n      pop\n      pop\n      swap1\n      pop\n        /* \"contracts/Voting.sol\":939:1079  function getCandidateVoters(uint256 _indexCandidate) public view returns ( address[] memory) {... */\n      swap2\n      swap1\n      pop\n      jump\t// out\n        /* \"@openzeppelin/contracts/access/Ownable.sol\":2293:2394  function renounceOwnership() public virtual onlyOwner {... */\n    tag_56:\n        /* \"@openzeppelin/contracts/access/Ownable.sol\":1531:1544  _checkOwner() */\n      tag_178\n        /* \"@openzeppelin/contracts/access/Ownable.sol\":1531:1542  _checkOwner */\n      tag_109\n        /* \"@openzeppelin/contracts/access/Ownable.sol\":1531:1544  _checkOwner() */\n      jump\t// in\n    tag_178:\n        /* \"@openzeppelin/contracts/access/Ownable.sol\":2357:2387  _transferOwnership(address(0)) */\n      tag_180\n        /* \"@openzeppelin/contracts/access/Ownable.sol\":2384:2385  0 */\n      0x00\n        /* \"@openzeppelin/contracts/access/Ownable.sol\":2357:2375  _transferOwnership */\n      tag_181\n        /* \"@openzeppelin/contracts/access/Ownable.sol\":2357:2387  _transferOwnership(address(0)) */\n      jump\t// in\n    tag_180:\n        /* \"@openzeppelin/contracts/access/Ownable.sol\":2293:2394  function renounceOwnership() public virtual onlyOwner {... */\n      jump\t// out\n        /* \"contracts/Voting.sol\":2595:2919  function getTheMostVoteCandidates() public view returns (Person memory) {... */\n    tag_58:\n        /* \"contracts/Voting.sol\":2652:2665  Person memory */\n      tag_182\n      tag_183\n      jump\t// in\n    tag_182:\n        /* \"contracts/Voting.sol\":2677:2697  Person memory person */\n      0x00\n        /* \"contracts/Voting.sol\":2700:2710  candidates */\n      0x02\n        /* \"contracts/Voting.sol\":2711:2712  0 */\n      0x00\n        /* \"contracts/Voting.sol\":2700:2713  candidates[0] */\n      dup2\n      sload\n      dup2\n      lt\n      tag_185\n      jumpi\n      tag_186\n      tag_103\n      jump\t// in\n    tag_186:\n    tag_185:\n      swap1\n      0x00\n      mstore\n      keccak256(0x00, 0x20)\n      swap1\n      0x03\n      mul\n      add\n        /* \"contracts/Voting.sol\":2677:2713  Person memory person = candidates[0] */\n      mload(0x40)\n      dup1\n      0x60\n      add\n      0x40\n      mstore\n      swap1\n      dup2\n      0x00\n      dup3\n      add\n      dup1\n      sload\n      tag_188\n      swap1\n      tag_152\n      jump\t// in\n    tag_188:\n      dup1\n      0x1f\n      add\n      0x20\n      dup1\n      swap2\n      div\n      mul\n      0x20\n      add\n      mload(0x40)\n      swap1\n      dup2\n      add\n      0x40\n      mstore\n      dup1\n      swap3\n      swap2\n      swap1\n      dup2\n      dup2\n      mstore\n      0x20\n      add\n      dup3\n      dup1\n      sload\n      tag_189\n      swap1\n      tag_152\n      jump\t// in\n    tag_189:\n      dup1\n      iszero\n      tag_190\n      jumpi\n      dup1\n      0x1f\n      lt\n      tag_191\n      jumpi\n      0x0100\n      dup1\n      dup4\n      sload\n      div\n      mul\n      dup4\n      mstore\n      swap2\n      0x20\n      add\n      swap2\n      jump(tag_190)\n    tag_191:\n      dup3\n      add\n      swap2\n      swap1\n      0x00\n      mstore\n      keccak256(0x00, 0x20)\n      swap1\n    tag_192:\n      dup2\n      sload\n      dup2\n      mstore\n      swap1\n      0x01\n      add\n      swap1\n      0x20\n      add\n      dup1\n      dup4\n      gt\n      tag_192\n      jumpi\n      dup3\n      swap1\n      sub\n      0x1f\n      and\n      dup3\n      add\n      swap2\n    tag_190:\n      pop\n      pop\n      pop\n      pop\n      pop\n      dup2\n      mstore\n      0x20\n      add\n      0x01\n      dup3\n      add\n      dup1\n      sload\n      tag_193\n      swap1\n      tag_152\n      jump\t// in\n    tag_193:\n      dup1\n      0x1f\n      add\n      0x20\n      dup1\n      swap2\n      div\n      mul\n      0x20\n      add\n      mload(0x40)\n      swap1\n      dup2\n      add\n      0x40\n      mstore\n      dup1\n      swap3\n      swap2\n      swap1\n      dup2\n      dup2\n      mstore\n      0x20\n      add\n      dup3\n      dup1\n      sload\n      tag_194\n      swap1\n      tag_152\n      jump\t// in\n    tag_194:\n      dup1\n      iszero\n      tag_195\n      jumpi\n      dup1\n      0x1f\n      lt\n      tag_196\n      jumpi\n      0x0100\n      dup1\n      dup4\n      sload\n      div\n      mul\n      dup4\n      mstore\n      swap2\n      0x20\n      add\n      swap2\n      jump(tag_195)\n    tag_196:\n      dup3\n      add\n      swap2\n      swap1\n      0x00\n      mstore\n      keccak256(0x00, 0x20)\n      swap1\n    tag_197:\n      dup2\n      sload\n      dup2\n      mstore\n      swap1\n      0x01\n      add\n      swap1\n      0x20\n      add\n      dup1\n      dup4\n      gt\n      tag_197\n      jumpi\n      dup3\n      swap1\n      sub\n      0x1f\n      and\n      dup3\n      add\n      swap2\n    tag_195:\n      pop\n      pop\n      pop\n      pop\n      pop\n      dup2\n      mstore\n      0x20\n      add\n      0x02\n      dup3\n      add\n      sload\n      dup2\n      mstore\n      pop\n      pop\n      swap1\n      pop\n        /* \"contracts/Voting.sol\":2728:2737  uint256 i */\n      0x00\n        /* \"contracts/Voting.sol\":2740:2741  1 */\n      0x01\n        /* \"contracts/Voting.sol\":2728:2741  uint256 i = 1 */\n      swap1\n      pop\n        /* \"contracts/Voting.sol\":2723:2890  for (uint256 i = 1; i < candidates.length; i++) {... */\n    tag_198:\n        /* \"contracts/Voting.sol\":2747:2757  candidates */\n      0x02\n        /* \"contracts/Voting.sol\":2747:2764  candidates.length */\n      dup1\n      sload\n      swap1\n      pop\n        /* \"contracts/Voting.sol\":2743:2744  i */\n      dup2\n        /* \"contracts/Voting.sol\":2743:2764  i < candidates.length */\n      lt\n        /* \"contracts/Voting.sol\":2723:2890  for (uint256 i = 1; i < candidates.length; i++) {... */\n      iszero\n      tag_199\n      jumpi\n        /* \"contracts/Voting.sol\":2804:2814  candidates */\n      0x02\n        /* \"contracts/Voting.sol\":2815:2816  i */\n      dup2\n        /* \"contracts/Voting.sol\":2804:2817  candidates[i] */\n      dup2\n      sload\n      dup2\n      lt\n      tag_201\n      jumpi\n      tag_202\n      tag_103\n      jump\t// in\n    tag_202:\n    tag_201:\n      swap1\n      0x00\n      mstore\n      keccak256(0x00, 0x20)\n      swap1\n      0x03\n      mul\n      add\n        /* \"contracts/Voting.sol\":2804:2823  candidates[i].votes */\n      0x02\n      add\n      sload\n        /* \"contracts/Voting.sol\":2789:2795  person */\n      dup3\n        /* \"contracts/Voting.sol\":2789:2801  person.votes */\n      0x40\n      add\n      mload\n        /* \"contracts/Voting.sol\":2789:2823  person.votes < candidates[i].votes */\n      lt\n        /* \"contracts/Voting.sol\":2785:2880  if (person.votes < candidates[i].votes) {... */\n      iszero\n      tag_204\n      jumpi\n        /* \"contracts/Voting.sol\":2852:2862  candidates */\n      0x02\n        /* \"contracts/Voting.sol\":2863:2864  i */\n      dup2\n        /* \"contracts/Voting.sol\":2852:2865  candidates[i] */\n      dup2\n      sload\n      dup2\n      lt\n      tag_205\n      jumpi\n      tag_206\n      tag_103\n      jump\t// in\n    tag_206:\n    tag_205:\n      swap1\n      0x00\n      mstore\n      keccak256(0x00, 0x20)\n      swap1\n      0x03\n      mul\n      add\n        /* \"contracts/Voting.sol\":2843:2865  person = candidates[i] */\n      mload(0x40)\n      dup1\n      0x60\n      add\n      0x40\n      mstore\n      swap1\n      dup2\n      0x00\n      dup3\n      add\n      dup1\n      sload\n      tag_208\n      swap1\n      tag_152\n      jump\t// in\n    tag_208:\n      dup1\n      0x1f\n      add\n      0x20\n      dup1\n      swap2\n      div\n      mul\n      0x20\n      add\n      mload(0x40)\n      swap1\n      dup2\n      add\n      0x40\n      mstore\n      dup1\n      swap3\n      swap2\n      swap1\n      dup2\n      dup2\n      mstore\n      0x20\n      add\n      dup3\n      dup1\n      sload\n      tag_209\n      swap1\n      tag_152\n      jump\t// in\n    tag_209:\n      dup1\n      iszero\n      tag_210\n      jumpi\n      dup1\n      0x1f\n      lt\n      tag_211\n      jumpi\n      0x0100\n      dup1\n      dup4\n      sload\n      div\n      mul\n      dup4\n      mstore\n      swap2\n      0x20\n      add\n      swap2\n      jump(tag_210)\n    tag_211:\n      dup3\n      add\n      swap2\n      swap1\n      0x00\n      mstore\n      keccak256(0x00, 0x20)\n      swap1\n    tag_212:\n      dup2\n      sload\n      dup2\n      mstore\n      swap1\n      0x01\n      add\n      swap1\n      0x20\n      add\n      dup1\n      dup4\n      gt\n      tag_212\n      jumpi\n      dup3\n      swap1\n      sub\n      0x1f\n      and\n      dup3\n      add\n      swap2\n    tag_210:\n      pop\n      pop\n      pop\n      pop\n      pop\n      dup2\n      mstore\n      0x20\n      add\n      0x01\n      dup3\n      add\n      dup1\n      sload\n      tag_213\n      swap1\n      tag_152\n      jump\t// in\n    tag_213:\n      dup1\n      0x1f\n      add\n      0x20\n      dup1\n      swap2\n      div\n      mul\n      0x20\n      add\n      mload(0x40)\n      swap1\n      dup2\n      add\n      0x40\n      mstore\n      dup1\n      swap3\n      swap2\n      swap1\n      dup2\n      dup2\n      mstore\n      0x20\n      add\n      dup3\n      dup1\n      sload\n      tag_214\n      swap1\n      tag_152\n      jump\t// in\n    tag_214:\n      dup1\n      iszero\n      tag_215\n      jumpi\n      dup1\n      0x1f\n      lt\n      tag_216\n      jumpi\n      0x0100\n      dup1\n      dup4\n      sload\n      div\n      mul\n      dup4\n      mstore\n      swap2\n      0x20\n      add\n      swap2\n      jump(tag_215)\n    tag_216:\n      dup3\n      add\n      swap2\n      swap1\n      0x00\n      mstore\n      keccak256(0x00, 0x20)\n      swap1\n    tag_217:\n      dup2\n      sload\n      dup2\n      mstore\n      swap1\n      0x01\n      add\n      swap1\n      0x20\n      add\n      dup1\n      dup4\n      gt\n      tag_217\n      jumpi\n      dup3\n      swap1\n      sub\n      0x1f\n      and\n      dup3\n      add\n      swap2\n    tag_215:\n      pop\n      pop\n      pop\n      pop\n      pop\n      dup2\n      mstore\n      0x20\n      add\n      0x02\n      dup3\n      add\n      sload\n      dup2\n      mstore\n      pop\n      pop\n      swap2\n      pop\n        /* \"contracts/Voting.sol\":2785:2880  if (person.votes < candidates[i].votes) {... */\n    tag_204:\n        /* \"contracts/Voting.sol\":2766:2769  i++ */\n      dup1\n      dup1\n      0x01\n      add\n      swap2\n      pop\n      pop\n        /* \"contracts/Voting.sol\":2723:2890  for (uint256 i = 1; i < candidates.length; i++) {... */\n      jump(tag_198)\n    tag_199:\n      pop\n        /* \"contracts/Voting.sol\":2906:2912  person */\n      dup1\n        /* \"contracts/Voting.sol\":2899:2912  return person */\n      swap2\n      pop\n      pop\n        /* \"contracts/Voting.sol\":2595:2919  function getTheMostVoteCandidates() public view returns (Person memory) {... */\n      swap1\n      jump\t// out\n        /* \"@openzeppelin/contracts/access/Ownable.sol\":1638:1723  function owner() public view virtual returns (address) {... */\n    tag_62:\n        /* \"@openzeppelin/contracts/access/Ownable.sol\":1684:1691  address */\n      0x00\n        /* \"@openzeppelin/contracts/access/Ownable.sol\":1710:1716  _owner */\n      0x00\n      0x00\n      swap1\n      sload\n      swap1\n      0x0100\n      exp\n      swap1\n      div\n      0xffffffffffffffffffffffffffffffffffffffff\n      and\n        /* \"@openzeppelin/contracts/access/Ownable.sol\":1703:1716  return _owner */\n      swap1\n      pop\n        /* \"@openzeppelin/contracts/access/Ownable.sol\":1638:1723  function owner() public view virtual returns (address) {... */\n      swap1\n      jump\t// out\n        /* \"contracts/Voting.sol\":2492:2588  function checkIsOnwer() public view returns (bool) {... */\n    tag_66:\n        /* \"contracts/Voting.sol\":2537:2541  bool */\n      0x00\n        /* \"contracts/Voting.sol\":2574:2581  owner() */\n      tag_220\n        /* \"contracts/Voting.sol\":2574:2579  owner */\n      tag_62\n        /* \"contracts/Voting.sol\":2574:2581  owner() */\n      jump\t// in\n    tag_220:\n        /* \"contracts/Voting.sol\":2560:2581  msg.sender == owner() */\n      0xffffffffffffffffffffffffffffffffffffffff\n      and\n        /* \"contracts/Voting.sol\":2560:2570  msg.sender */\n      caller\n        /* \"contracts/Voting.sol\":2560:2581  msg.sender == owner() */\n      0xffffffffffffffffffffffffffffffffffffffff\n      and\n      eq\n        /* \"contracts/Voting.sol\":2553:2581  return msg.sender == owner() */\n      swap1\n      pop\n        /* \"contracts/Voting.sol\":2492:2588  function checkIsOnwer() public view returns (bool) {... */\n      swap1\n      jump\t// out\n        /* \"contracts/Voting.sol\":1085:1299  function createCandidate(... */\n    tag_71:\n        /* \"@openzeppelin/contracts/access/Ownable.sol\":1531:1544  _checkOwner() */\n      tag_222\n        /* \"@openzeppelin/contracts/access/Ownable.sol\":1531:1542  _checkOwner */\n      tag_109\n        /* \"@openzeppelin/contracts/access/Ownable.sol\":1531:1544  _checkOwner() */\n      jump\t// in\n    tag_222:\n        /* \"contracts/Voting.sol\":1201:1227  Person memory newCandidate */\n      0x00\n        /* \"contracts/Voting.sol\":1230:1253  Person(_name, _desc, 0) */\n      mload(0x40)\n      dup1\n      0x60\n      add\n      0x40\n      mstore\n      dup1\n        /* \"contracts/Voting.sol\":1237:1242  _name */\n      dup5\n        /* \"contracts/Voting.sol\":1230:1253  Person(_name, _desc, 0) */\n      dup2\n      mstore\n      0x20\n      add\n        /* \"contracts/Voting.sol\":1244:1249  _desc */\n      dup4\n        /* \"contracts/Voting.sol\":1230:1253  Person(_name, _desc, 0) */\n      dup2\n      mstore\n      0x20\n      add\n        /* \"contracts/Voting.sol\":1251:1252  0 */\n      0x00\n        /* \"contracts/Voting.sol\":1230:1253  Person(_name, _desc, 0) */\n      dup2\n      mstore\n      pop\n        /* \"contracts/Voting.sol\":1201:1253  Person memory newCandidate = Person(_name, _desc, 0) */\n      swap1\n      pop\n        /* \"contracts/Voting.sol\":1263:1273  candidates */\n      0x02\n        /* \"contracts/Voting.sol\":1279:1291  newCandidate */\n      dup2\n        /* \"contracts/Voting.sol\":1263:1292  candidates.push(newCandidate) */\n      swap1\n      dup1\n      0x01\n      dup2\n      sload\n      add\n      dup1\n      dup3\n      sstore\n      dup1\n      swap2\n      pop\n      pop\n      0x01\n      swap1\n      sub\n      swap1\n      0x00\n      mstore\n      keccak256(0x00, 0x20)\n      swap1\n      0x03\n      mul\n      add\n      0x00\n      swap1\n      swap2\n      swap1\n      swap2\n      swap1\n      swap2\n      pop\n      0x00\n      dup3\n      add\n      mload\n      dup2\n      0x00\n      add\n      swap1\n      dup2\n      tag_225\n      swap2\n      swap1\n      tag_226\n      jump\t// in\n    tag_225:\n      pop\n      0x20\n      dup3\n      add\n      mload\n      dup2\n      0x01\n      add\n      swap1\n      dup2\n      tag_227\n      swap2\n      swap1\n      tag_226\n      jump\t// in\n    tag_227:\n      pop\n      0x40\n      dup3\n      add\n      mload\n      dup2\n      0x02\n      add\n      sstore\n      pop\n      pop\n        /* \"contracts/Voting.sol\":1191:1299  {... */\n      pop\n        /* \"contracts/Voting.sol\":1085:1299  function createCandidate(... */\n      pop\n      pop\n      jump\t// out\n        /* \"contracts/Voting.sol\":615:661  mapping(address => uint256) public voterChoice */\n    tag_74:\n      mstore(0x20, 0x04)\n      dup1\n      0x00\n      mstore\n      keccak256(0x00, 0x40)\n      0x00\n      swap2\n      pop\n      swap1\n      pop\n      sload\n      dup2\n      jump\t// out\n        /* \"@openzeppelin/contracts/access/Ownable.sol\":2543:2758  function transferOwnership(address newOwner) public virtual onlyOwner {... */\n    tag_79:\n        /* \"@openzeppelin/contracts/access/Ownable.sol\":1531:1544  _checkOwner() */\n      tag_229\n        /* \"@openzeppelin/contracts/access/Ownable.sol\":1531:1542  _checkOwner */\n      tag_109\n        /* \"@openzeppelin/contracts/access/Ownable.sol\":1531:1544  _checkOwner() */\n      jump\t// in\n    tag_229:\n        /* \"@openzeppelin/contracts/access/Ownable.sol\":2647:2648  0 */\n      0x00\n        /* \"@openzeppelin/contracts/access/Ownable.sol\":2627:2649  newOwner == address(0) */\n      0xffffffffffffffffffffffffffffffffffffffff\n      and\n        /* \"@openzeppelin/contracts/access/Ownable.sol\":2627:2635  newOwner */\n      dup2\n        /* \"@openzeppelin/contracts/access/Ownable.sol\":2627:2649  newOwner == address(0) */\n      0xffffffffffffffffffffffffffffffffffffffff\n      and\n      sub\n        /* \"@openzeppelin/contracts/access/Ownable.sol\":2623:2714  if (newOwner == address(0)) {... */\n      tag_231\n      jumpi\n        /* \"@openzeppelin/contracts/access/Ownable.sol\":2700:2701  0 */\n      0x00\n        /* \"@openzeppelin/contracts/access/Ownable.sol\":2672:2703  OwnableInvalidOwner(address(0)) */\n      mload(0x40)\n      0x1e4fbdf700000000000000000000000000000000000000000000000000000000\n      dup2\n      mstore\n      0x04\n      add\n      tag_232\n      swap2\n      swap1\n      tag_64\n      jump\t// in\n    tag_232:\n      mload(0x40)\n      dup1\n      swap2\n      sub\n      swap1\n      revert\n        /* \"@openzeppelin/contracts/access/Ownable.sol\":2623:2714  if (newOwner == address(0)) {... */\n    tag_231:\n        /* \"@openzeppelin/contracts/access/Ownable.sol\":2723:2751  _transferOwnership(newOwner) */\n      tag_233\n        /* \"@openzeppelin/contracts/access/Ownable.sol\":2742:2750  newOwner */\n      dup2\n        /* \"@openzeppelin/contracts/access/Ownable.sol\":2723:2741  _transferOwnership */\n      tag_181\n        /* \"@openzeppelin/contracts/access/Ownable.sol\":2723:2751  _transferOwnership(newOwner) */\n      jump\t// in\n    tag_233:\n        /* \"@openzeppelin/contracts/access/Ownable.sol\":2543:2758  function transferOwnership(address newOwner) public virtual onlyOwner {... */\n      pop\n      jump\t// out\n        /* \"contracts/Voting.sol\":667:710  mapping(uint256 => address[]) public voters */\n    tag_83:\n      mstore(0x20, 0x05)\n      dup2\n      0x00\n      mstore\n      keccak256(0x00, 0x40)\n      dup2\n      dup2\n      sload\n      dup2\n      lt\n      tag_234\n      jumpi\n      0x00\n      dup1\n      revert\n    tag_234:\n      swap1\n      0x00\n      mstore\n      keccak256(0x00, 0x20)\n      add\n      0x00\n      swap2\n      pop\n      swap2\n      pop\n      swap1\n      sload\n      swap1\n      0x0100\n      exp\n      swap1\n      div\n      0xffffffffffffffffffffffffffffffffffffffff\n      and\n      dup2\n      jump\t// out\n        /* \"@openzeppelin/contracts/access/Ownable.sol\":1796:1958  function _checkOwner() internal view virtual {... */\n    tag_109:\n        /* \"@openzeppelin/contracts/access/Ownable.sol\":1866:1878  _msgSender() */\n      tag_237\n        /* \"@openzeppelin/contracts/access/Ownable.sol\":1866:1876  _msgSender */\n      tag_238\n        /* \"@openzeppelin/contracts/access/Ownable.sol\":1866:1878  _msgSender() */\n      jump\t// in\n    tag_237:\n        /* \"@openzeppelin/contracts/access/Ownable.sol\":1855:1878  owner() != _msgSender() */\n      0xffffffffffffffffffffffffffffffffffffffff\n      and\n        /* \"@openzeppelin/contracts/access/Ownable.sol\":1855:1862  owner() */\n      tag_239\n        /* \"@openzeppelin/contracts/access/Ownable.sol\":1855:1860  owner */\n      tag_62\n        /* \"@openzeppelin/contracts/access/Ownable.sol\":1855:1862  owner() */\n      jump\t// in\n    tag_239:\n        /* \"@openzeppelin/contracts/access/Ownable.sol\":1855:1878  owner() != _msgSender() */\n      0xffffffffffffffffffffffffffffffffffffffff\n      and\n      eq\n        /* \"@openzeppelin/contracts/access/Ownable.sol\":1851:1952  if (owner() != _msgSender()) {... */\n      tag_240\n      jumpi\n        /* \"@openzeppelin/contracts/access/Ownable.sol\":1928:1940  _msgSender() */\n      tag_241\n        /* \"@openzeppelin/contracts/access/Ownable.sol\":1928:1938  _msgSender */\n      tag_238\n        /* \"@openzeppelin/contracts/access/Ownable.sol\":1928:1940  _msgSender() */\n      jump\t// in\n    tag_241:\n        /* \"@openzeppelin/contracts/access/Ownable.sol\":1901:1941  OwnableUnauthorizedAccount(_msgSender()) */\n      mload(0x40)\n      0x118cdaa700000000000000000000000000000000000000000000000000000000\n      dup2\n      mstore\n      0x04\n      add\n      tag_242\n      swap2\n      swap1\n      tag_64\n      jump\t// in\n    tag_242:\n      mload(0x40)\n      dup1\n      swap2\n      sub\n      swap1\n      revert\n        /* \"@openzeppelin/contracts/access/Ownable.sol\":1851:1952  if (owner() != _msgSender()) {... */\n    tag_240:\n        /* \"@openzeppelin/contracts/access/Ownable.sol\":1796:1958  function _checkOwner() internal view virtual {... */\n      jump\t// out\n        /* \"@openzeppelin/contracts/access/Ownable.sol\":2912:3099  function _transferOwnership(address newOwner) internal virtual {... */\n    tag_181:\n        /* \"@openzeppelin/contracts/access/Ownable.sol\":2985:3001  address oldOwner */\n      0x00\n        /* \"@openzeppelin/contracts/access/Ownable.sol\":3004:3010  _owner */\n      0x00\n      0x00\n      swap1\n      sload\n      swap1\n      0x0100\n      exp\n      swap1\n      div\n      0xffffffffffffffffffffffffffffffffffffffff\n      and\n        /* \"@openzeppelin/contracts/access/Ownable.sol\":2985:3010  address oldOwner = _owner */\n      swap1\n      pop\n        /* \"@openzeppelin/contracts/access/Ownable.sol\":3029:3037  newOwner */\n      dup2\n        /* \"@openzeppelin/contracts/access/Ownable.sol\":3020:3026  _owner */\n      0x00\n      0x00\n        /* \"@openzeppelin/contracts/access/Ownable.sol\":3020:3037  _owner = newOwner */\n      0x0100\n      exp\n      dup2\n      sload\n      dup2\n      0xffffffffffffffffffffffffffffffffffffffff\n      mul\n      not\n      and\n      swap1\n      dup4\n      0xffffffffffffffffffffffffffffffffffffffff\n      and\n      mul\n      or\n      swap1\n      sstore\n      pop\n        /* \"@openzeppelin/contracts/access/Ownable.sol\":3083:3091  newOwner */\n      dup2\n        /* \"@openzeppelin/contracts/access/Ownable.sol\":3052:3092  OwnershipTransferred(oldOwner, newOwner) */\n      0xffffffffffffffffffffffffffffffffffffffff\n      and\n        /* \"@openzeppelin/contracts/access/Ownable.sol\":3073:3081  oldOwner */\n      dup2\n        /* \"@openzeppelin/contracts/access/Ownable.sol\":3052:3092  OwnershipTransferred(oldOwner, newOwner) */\n      0xffffffffffffffffffffffffffffffffffffffff\n      and\n      0x8be0079c531659141344cd1fd0a4f28419497f9722a3daafe3b4186f6b6457e0\n      mload(0x40)\n      mload(0x40)\n      dup1\n      swap2\n      sub\n      swap1\n      log3\n        /* \"@openzeppelin/contracts/access/Ownable.sol\":2975:3099  {... */\n      pop\n        /* \"@openzeppelin/contracts/access/Ownable.sol\":2912:3099  function _transferOwnership(address newOwner) internal virtual {... */\n      pop\n      jump\t// out\n        /* \"@openzeppelin/contracts/utils/Context.sol\":656:752  function _msgSender() internal view virtual returns (address) {... */\n    tag_238:\n        /* \"@openzeppelin/contracts/utils/Context.sol\":709:716  address */\n      0x00\n        /* \"@openzeppelin/contracts/utils/Context.sol\":735:745  msg.sender */\n      caller\n        /* \"@openzeppelin/contracts/utils/Context.sol\":728:745  return msg.sender */\n      swap1\n      pop\n        /* \"@openzeppelin/contracts/utils/Context.sol\":656:752  function _msgSender() internal view virtual returns (address) {... */\n      swap1\n      jump\t// out\n    tag_127:\n      pop\n      dup1\n      sload\n      tag_245\n      swap1\n      tag_152\n      jump\t// in\n    tag_245:\n      0x00\n      dup3\n      sstore\n      dup1\n      0x1f\n      lt\n      tag_247\n      jumpi\n      pop\n      jump(tag_246)\n    tag_247:\n      0x1f\n      add\n      0x20\n      swap1\n      div\n      swap1\n      0x00\n      mstore\n      keccak256(0x00, 0x20)\n      swap1\n      dup2\n      add\n      swap1\n      tag_248\n      swap2\n      swap1\n      tag_249\n      jump\t// in\n    tag_248:\n    tag_246:\n      pop\n      jump\t// out\n    tag_138:\n      pop\n      dup1\n      sload\n      0x00\n      dup3\n      sstore\n      swap1\n      0x00\n      mstore\n      keccak256(0x00, 0x20)\n      swap1\n      dup2\n      add\n      swap1\n      tag_251\n      swap2\n      swap1\n      tag_249\n      jump\t// in\n    tag_251:\n      pop\n      jump\t// out\n    tag_183:\n      mload(0x40)\n      dup1\n      0x60\n      add\n      0x40\n      mstore\n      dup1\n      0x60\n      dup2\n      mstore\n      0x20\n      add\n      0x60\n      dup2\n      mstore\n      0x20\n      add\n      0x00\n      dup2\n      mstore\n      pop\n      swap1\n      jump\t// out\n    tag_249:\n    tag_252:\n      dup1\n      dup3\n      gt\n      iszero\n      tag_253\n      jumpi\n      0x00\n      dup2\n      0x00\n      swap1\n      sstore\n      pop\n      0x01\n      add\n      jump(tag_252)\n    tag_253:\n      pop\n      swap1\n      jump\t// out\n        /* \"#utility.yul\":7:82   */\n    tag_254:\n        /* \"#utility.yul\":40:46   */\n      0x00\n        /* \"#utility.yul\":73:75   */\n      0x40\n        /* \"#utility.yul\":67:76   */\n      mload\n        /* \"#utility.yul\":57:76   */\n      swap1\n      pop\n        /* \"#utility.yul\":7:82   */\n      swap1\n      jump\t// out\n        /* \"#utility.yul\":88:205   */\n    tag_255:\n        /* \"#utility.yul\":197:198   */\n      0x00\n        /* \"#utility.yul\":194:195   */\n      0x00\n        /* \"#utility.yul\":187:199   */\n      revert\n        /* \"#utility.yul\":211:328   */\n    tag_256:\n        /* \"#utility.yul\":320:321   */\n      0x00\n        /* \"#utility.yul\":317:318   */\n      0x00\n        /* \"#utility.yul\":310:322   */\n      revert\n        /* \"#utility.yul\":334:411   */\n    tag_257:\n        /* \"#utility.yul\":371:378   */\n      0x00\n        /* \"#utility.yul\":400:405   */\n      dup2\n        /* \"#utility.yul\":389:405   */\n      swap1\n      pop\n        /* \"#utility.yul\":334:411   */\n      swap2\n      swap1\n      pop\n      jump\t// out\n        /* \"#utility.yul\":417:539   */\n    tag_258:\n        /* \"#utility.yul\":490:514   */\n      tag_337\n        /* \"#utility.yul\":508:513   */\n      dup2\n        /* \"#utility.yul\":490:514   */\n      tag_257\n      jump\t// in\n    tag_337:\n        /* \"#utility.yul\":483:488   */\n      dup2\n        /* \"#utility.yul\":480:515   */\n      eq\n        /* \"#utility.yul\":470:533   */\n      tag_338\n      jumpi\n        /* \"#utility.yul\":529:530   */\n      0x00\n        /* \"#utility.yul\":526:527   */\n      0x00\n        /* \"#utility.yul\":519:531   */\n      revert\n        /* \"#utility.yul\":470:533   */\n    tag_338:\n        /* \"#utility.yul\":417:539   */\n      pop\n      jump\t// out\n        /* \"#utility.yul\":545:684   */\n    tag_259:\n        /* \"#utility.yul\":591:596   */\n      0x00\n        /* \"#utility.yul\":629:635   */\n      dup2\n        /* \"#utility.yul\":616:636   */\n      calldataload\n        /* \"#utility.yul\":607:636   */\n      swap1\n      pop\n        /* \"#utility.yul\":645:678   */\n      tag_340\n        /* \"#utility.yul\":672:677   */\n      dup2\n        /* \"#utility.yul\":645:678   */\n      tag_258\n      jump\t// in\n    tag_340:\n        /* \"#utility.yul\":545:684   */\n      swap3\n      swap2\n      pop\n      pop\n      jump\t// out\n        /* \"#utility.yul\":690:1019   */\n    tag_24:\n        /* \"#utility.yul\":749:755   */\n      0x00\n        /* \"#utility.yul\":798:800   */\n      0x20\n        /* \"#utility.yul\":786:795   */\n      dup3\n        /* \"#utility.yul\":777:784   */\n      dup5\n        /* \"#utility.yul\":773:796   */\n      sub\n        /* \"#utility.yul\":769:801   */\n      slt\n        /* \"#utility.yul\":766:885   */\n      iszero\n      tag_342\n      jumpi\n        /* \"#utility.yul\":804:883   */\n      tag_343\n      tag_255\n      jump\t// in\n    tag_343:\n        /* \"#utility.yul\":766:885   */\n    tag_342:\n        /* \"#utility.yul\":924:925   */\n      0x00\n        /* \"#utility.yul\":949:1002   */\n      tag_344\n        /* \"#utility.yul\":994:1001   */\n      dup5\n        /* \"#utility.yul\":985:991   */\n      dup3\n        /* \"#utility.yul\":974:983   */\n      dup6\n        /* \"#utility.yul\":970:992   */\n      add\n        /* \"#utility.yul\":949:1002   */\n      tag_259\n      jump\t// in\n    tag_344:\n        /* \"#utility.yul\":939:1002   */\n      swap2\n      pop\n        /* \"#utility.yul\":895:1012   */\n      pop\n        /* \"#utility.yul\":690:1019   */\n      swap3\n      swap2\n      pop\n      pop\n      jump\t// out\n        /* \"#utility.yul\":1025:1151   */\n    tag_260:\n        /* \"#utility.yul\":1062:1069   */\n      0x00\n        /* \"#utility.yul\":1102:1144   */\n      0xffffffffffffffffffffffffffffffffffffffff\n        /* \"#utility.yul\":1095:1100   */\n      dup3\n        /* \"#utility.yul\":1091:1145   */\n      and\n        /* \"#utility.yul\":1080:1145   */\n      swap1\n      pop\n        /* \"#utility.yul\":1025:1151   */\n      swap2\n      swap1\n      pop\n      jump\t// out\n        /* \"#utility.yul\":1157:1253   */\n    tag_261:\n        /* \"#utility.yul\":1194:1201   */\n      0x00\n        /* \"#utility.yul\":1223:1247   */\n      tag_347\n        /* \"#utility.yul\":1241:1246   */\n      dup3\n        /* \"#utility.yul\":1223:1247   */\n      tag_260\n      jump\t// in\n    tag_347:\n        /* \"#utility.yul\":1212:1247   */\n      swap1\n      pop\n        /* \"#utility.yul\":1157:1253   */\n      swap2\n      swap1\n      pop\n      jump\t// out\n        /* \"#utility.yul\":1259:1381   */\n    tag_262:\n        /* \"#utility.yul\":1332:1356   */\n      tag_349\n        /* \"#utility.yul\":1350:1355   */\n      dup2\n        /* \"#utility.yul\":1332:1356   */\n      tag_261\n      jump\t// in\n    tag_349:\n        /* \"#utility.yul\":1325:1330   */\n      dup2\n        /* \"#utility.yul\":1322:1357   */\n      eq\n        /* \"#utility.yul\":1312:1375   */\n      tag_350\n      jumpi\n        /* \"#utility.yul\":1371:1372   */\n      0x00\n        /* \"#utility.yul\":1368:1369   */\n      0x00\n        /* \"#utility.yul\":1361:1373   */\n      revert\n        /* \"#utility.yul\":1312:1375   */\n    tag_350:\n        /* \"#utility.yul\":1259:1381   */\n      pop\n      jump\t// out\n        /* \"#utility.yul\":1387:1526   */\n    tag_263:\n        /* \"#utility.yul\":1433:1438   */\n      0x00\n        /* \"#utility.yul\":1471:1477   */\n      dup2\n        /* \"#utility.yul\":1458:1478   */\n      calldataload\n        /* \"#utility.yul\":1449:1478   */\n      swap1\n      pop\n        /* \"#utility.yul\":1487:1520   */\n      tag_352\n        /* \"#utility.yul\":1514:1519   */\n      dup2\n        /* \"#utility.yul\":1487:1520   */\n      tag_262\n      jump\t// in\n    tag_352:\n        /* \"#utility.yul\":1387:1526   */\n      swap3\n      swap2\n      pop\n      pop\n      jump\t// out\n        /* \"#utility.yul\":1532:1861   */\n    tag_31:\n        /* \"#utility.yul\":1591:1597   */\n      0x00\n        /* \"#utility.yul\":1640:1642   */\n      0x20\n        /* \"#utility.yul\":1628:1637   */\n      dup3\n        /* \"#utility.yul\":1619:1626   */\n      dup5\n        /* \"#utility.yul\":1615:1638   */\n      sub\n        /* \"#utility.yul\":1611:1643   */\n      slt\n        /* \"#utility.yul\":1608:1727   */\n      iszero\n      tag_354\n      jumpi\n        /* \"#utility.yul\":1646:1725   */\n      tag_355\n      tag_255\n      jump\t// in\n    tag_355:\n        /* \"#utility.yul\":1608:1727   */\n    tag_354:\n        /* \"#utility.yul\":1766:1767   */\n      0x00\n        /* \"#utility.yul\":1791:1844   */\n      tag_356\n        /* \"#utility.yul\":1836:1843   */\n      dup5\n        /* \"#utility.yul\":1827:1833   */\n      dup3\n        /* \"#utility.yul\":1816:1825   */\n      dup6\n        /* \"#utility.yul\":1812:1834   */\n      add\n        /* \"#utility.yul\":1791:1844   */\n      tag_263\n      jump\t// in\n    tag_356:\n        /* \"#utility.yul\":1781:1844   */\n      swap2\n      pop\n        /* \"#utility.yul\":1737:1854   */\n      pop\n        /* \"#utility.yul\":1532:1861   */\n      swap3\n      swap2\n      pop\n      pop\n      jump\t// out\n        /* \"#utility.yul\":1867:1957   */\n    tag_264:\n        /* \"#utility.yul\":1901:1908   */\n      0x00\n        /* \"#utility.yul\":1944:1949   */\n      dup2\n        /* \"#utility.yul\":1937:1950   */\n      iszero\n        /* \"#utility.yul\":1930:1951   */\n      iszero\n        /* \"#utility.yul\":1919:1951   */\n      swap1\n      pop\n        /* \"#utility.yul\":1867:1957   */\n      swap2\n      swap1\n      pop\n      jump\t// out\n        /* \"#utility.yul\":1963:2072   */\n    tag_265:\n        /* \"#utility.yul\":2044:2065   */\n      tag_359\n        /* \"#utility.yul\":2059:2064   */\n      dup2\n        /* \"#utility.yul\":2044:2065   */\n      tag_264\n      jump\t// in\n    tag_359:\n        /* \"#utility.yul\":2039:2042   */\n      dup3\n        /* \"#utility.yul\":2032:2066   */\n      mstore\n        /* \"#utility.yul\":1963:2072   */\n      pop\n      pop\n      jump\t// out\n        /* \"#utility.yul\":2078:2288   */\n    tag_34:\n        /* \"#utility.yul\":2165:2169   */\n      0x00\n        /* \"#utility.yul\":2203:2205   */\n      0x20\n        /* \"#utility.yul\":2192:2201   */\n      dup3\n        /* \"#utility.yul\":2188:2206   */\n      add\n        /* \"#utility.yul\":2180:2206   */\n      swap1\n      pop\n        /* \"#utility.yul\":2216:2281   */\n      tag_361\n        /* \"#utility.yul\":2278:2279   */\n      0x00\n        /* \"#utility.yul\":2267:2276   */\n      dup4\n        /* \"#utility.yul\":2263:2280   */\n      add\n        /* \"#utility.yul\":2254:2260   */\n      dup5\n        /* \"#utility.yul\":2216:2281   */\n      tag_265\n      jump\t// in\n    tag_361:\n        /* \"#utility.yul\":2078:2288   */\n      swap3\n      swap2\n      pop\n      pop\n      jump\t// out\n        /* \"#utility.yul\":2294:2431   */\n    tag_266:\n        /* \"#utility.yul\":2384:2390   */\n      0x00\n        /* \"#utility.yul\":2418:2423   */\n      dup2\n        /* \"#utility.yul\":2412:2424   */\n      mload\n        /* \"#utility.yul\":2402:2424   */\n      swap1\n      pop\n        /* \"#utility.yul\":2294:2431   */\n      swap2\n      swap1\n      pop\n      jump\t// out\n        /* \"#utility.yul\":2437:2644   */\n    tag_267:\n        /* \"#utility.yul\":2559:2570   */\n      0x00\n        /* \"#utility.yul\":2593:2599   */\n      dup3\n        /* \"#utility.yul\":2588:2591   */\n      dup3\n        /* \"#utility.yul\":2581:2600   */\n      mstore\n        /* \"#utility.yul\":2633:2637   */\n      0x20\n        /* \"#utility.yul\":2628:2631   */\n      dup3\n        /* \"#utility.yul\":2624:2638   */\n      add\n        /* \"#utility.yul\":2609:2638   */\n      swap1\n      pop\n        /* \"#utility.yul\":2437:2644   */\n      swap3\n      swap2\n      pop\n      pop\n      jump\t// out\n        /* \"#utility.yul\":2650:2805   */\n    tag_268:\n        /* \"#utility.yul\":2740:2744   */\n      0x00\n        /* \"#utility.yul\":2763:2766   */\n      dup2\n        /* \"#utility.yul\":2755:2766   */\n      swap1\n      pop\n        /* \"#utility.yul\":2793:2797   */\n      0x20\n        /* \"#utility.yul\":2788:2791   */\n      dup3\n        /* \"#utility.yul\":2784:2798   */\n      add\n        /* \"#utility.yul\":2776:2798   */\n      swap1\n      pop\n        /* \"#utility.yul\":2650:2805   */\n      swap2\n      swap1\n      pop\n      jump\t// out\n        /* \"#utility.yul\":2811:2910   */\n    tag_269:\n        /* \"#utility.yul\":2863:2869   */\n      0x00\n        /* \"#utility.yul\":2897:2902   */\n      dup2\n        /* \"#utility.yul\":2891:2903   */\n      mload\n        /* \"#utility.yul\":2881:2903   */\n      swap1\n      pop\n        /* \"#utility.yul\":2811:2910   */\n      swap2\n      swap1\n      pop\n      jump\t// out\n        /* \"#utility.yul\":2916:3075   */\n    tag_270:\n        /* \"#utility.yul\":2990:3001   */\n      0x00\n        /* \"#utility.yul\":3024:3030   */\n      dup3\n        /* \"#utility.yul\":3019:3022   */\n      dup3\n        /* \"#utility.yul\":3012:3031   */\n      mstore\n        /* \"#utility.yul\":3064:3068   */\n      0x20\n        /* \"#utility.yul\":3059:3062   */\n      dup3\n        /* \"#utility.yul\":3055:3069   */\n      add\n        /* \"#utility.yul\":3040:3069   */\n      swap1\n      pop\n        /* \"#utility.yul\":2916:3075   */\n      swap3\n      swap2\n      pop\n      pop\n      jump\t// out\n        /* \"#utility.yul\":3081:3220   */\n    tag_271:\n        /* \"#utility.yul\":3170:3176   */\n      dup3\n        /* \"#utility.yul\":3165:3168   */\n      dup2\n        /* \"#utility.yul\":3160:3163   */\n      dup4\n        /* \"#utility.yul\":3154:3177   */\n      mcopy\n        /* \"#utility.yul\":3211:3212   */\n      0x00\n        /* \"#utility.yul\":3202:3208   */\n      dup4\n        /* \"#utility.yul\":3197:3200   */\n      dup4\n        /* \"#utility.yul\":3193:3209   */\n      add\n        /* \"#utility.yul\":3186:3213   */\n      mstore\n        /* \"#utility.yul\":3081:3220   */\n      pop\n      pop\n      pop\n      jump\t// out\n        /* \"#utility.yul\":3226:3328   */\n    tag_272:\n        /* \"#utility.yul\":3267:3273   */\n      0x00\n        /* \"#utility.yul\":3318:3320   */\n      0x1f\n        /* \"#utility.yul\":3314:3321   */\n      not\n        /* \"#utility.yul\":3309:3311   */\n      0x1f\n        /* \"#utility.yul\":3302:3307   */\n      dup4\n        /* \"#utility.yul\":3298:3312   */\n      add\n        /* \"#utility.yul\":3294:3322   */\n      and\n        /* \"#utility.yul\":3284:3322   */\n      swap1\n      pop\n        /* \"#utility.yul\":3226:3328   */\n      swap2\n      swap1\n      pop\n      jump\t// out\n        /* \"#utility.yul\":3334:3691   */\n    tag_273:\n        /* \"#utility.yul\":3412:3415   */\n      0x00\n        /* \"#utility.yul\":3440:3479   */\n      tag_370\n        /* \"#utility.yul\":3473:3478   */\n      dup3\n        /* \"#utility.yul\":3440:3479   */\n      tag_269\n      jump\t// in\n    tag_370:\n        /* \"#utility.yul\":3495:3556   */\n      tag_371\n        /* \"#utility.yul\":3549:3555   */\n      dup2\n        /* \"#utility.yul\":3544:3547   */\n      dup6\n        /* \"#utility.yul\":3495:3556   */\n      tag_270\n      jump\t// in\n    tag_371:\n        /* \"#utility.yul\":3488:3556   */\n      swap4\n      pop\n        /* \"#utility.yul\":3565:3630   */\n      tag_372\n        /* \"#utility.yul\":3623:3629   */\n      dup2\n        /* \"#utility.yul\":3618:3621   */\n      dup6\n        /* \"#utility.yul\":3611:3615   */\n      0x20\n        /* \"#utility.yul\":3604:3609   */\n      dup7\n        /* \"#utility.yul\":3600:3616   */\n      add\n        /* \"#utility.yul\":3565:3630   */\n      tag_271\n      jump\t// in\n    tag_372:\n        /* \"#utility.yul\":3655:3684   */\n      tag_373\n        /* \"#utility.yul\":3677:3683   */\n      dup2\n        /* \"#utility.yul\":3655:3684   */\n      tag_272\n      jump\t// in\n    tag_373:\n        /* \"#utility.yul\":3650:3653   */\n      dup5\n        /* \"#utility.yul\":3646:3685   */\n      add\n        /* \"#utility.yul\":3639:3685   */\n      swap2\n      pop\n        /* \"#utility.yul\":3416:3691   */\n      pop\n        /* \"#utility.yul\":3334:3691   */\n      swap3\n      swap2\n      pop\n      pop\n      jump\t// out\n        /* \"#utility.yul\":3697:3805   */\n    tag_274:\n        /* \"#utility.yul\":3774:3798   */\n      tag_375\n        /* \"#utility.yul\":3792:3797   */\n      dup2\n        /* \"#utility.yul\":3774:3798   */\n      tag_257\n      jump\t// in\n    tag_375:\n        /* \"#utility.yul\":3769:3772   */\n      dup3\n        /* \"#utility.yul\":3762:3799   */\n      mstore\n        /* \"#utility.yul\":3697:3805   */\n      pop\n      pop\n      jump\t// out\n        /* \"#utility.yul\":3863:4701   */\n    tag_275:\n        /* \"#utility.yul\":3968:3971   */\n      0x00\n        /* \"#utility.yul\":4004:4008   */\n      0x60\n        /* \"#utility.yul\":3999:4002   */\n      dup4\n        /* \"#utility.yul\":3995:4009   */\n      add\n        /* \"#utility.yul\":4091:4095   */\n      0x00\n        /* \"#utility.yul\":4084:4089   */\n      dup4\n        /* \"#utility.yul\":4080:4096   */\n      add\n        /* \"#utility.yul\":4074:4097   */\n      mload\n        /* \"#utility.yul\":4144:4147   */\n      dup5\n        /* \"#utility.yul\":4138:4142   */\n      dup3\n        /* \"#utility.yul\":4134:4148   */\n      sub\n        /* \"#utility.yul\":4127:4131   */\n      0x00\n        /* \"#utility.yul\":4122:4125   */\n      dup7\n        /* \"#utility.yul\":4118:4132   */\n      add\n        /* \"#utility.yul\":4111:4149   */\n      mstore\n        /* \"#utility.yul\":4170:4243   */\n      tag_377\n        /* \"#utility.yul\":4238:4242   */\n      dup3\n        /* \"#utility.yul\":4224:4236   */\n      dup3\n        /* \"#utility.yul\":4170:4243   */\n      tag_273\n      jump\t// in\n    tag_377:\n        /* \"#utility.yul\":4162:4243   */\n      swap2\n      pop\n        /* \"#utility.yul\":4019:4254   */\n      pop\n        /* \"#utility.yul\":4336:4340   */\n      0x20\n        /* \"#utility.yul\":4329:4334   */\n      dup4\n        /* \"#utility.yul\":4325:4341   */\n      add\n        /* \"#utility.yul\":4319:4342   */\n      mload\n        /* \"#utility.yul\":4389:4392   */\n      dup5\n        /* \"#utility.yul\":4383:4387   */\n      dup3\n        /* \"#utility.yul\":4379:4393   */\n      sub\n        /* \"#utility.yul\":4372:4376   */\n      0x20\n        /* \"#utility.yul\":4367:4370   */\n      dup7\n        /* \"#utility.yul\":4363:4377   */\n      add\n        /* \"#utility.yul\":4356:4394   */\n      mstore\n        /* \"#utility.yul\":4415:4488   */\n      tag_378\n        /* \"#utility.yul\":4483:4487   */\n      dup3\n        /* \"#utility.yul\":4469:4481   */\n      dup3\n        /* \"#utility.yul\":4415:4488   */\n      tag_273\n      jump\t// in\n    tag_378:\n        /* \"#utility.yul\":4407:4488   */\n      swap2\n      pop\n        /* \"#utility.yul\":4264:4499   */\n      pop\n        /* \"#utility.yul\":4582:4586   */\n      0x40\n        /* \"#utility.yul\":4575:4580   */\n      dup4\n        /* \"#utility.yul\":4571:4587   */\n      add\n        /* \"#utility.yul\":4565:4588   */\n      mload\n        /* \"#utility.yul\":4601:4664   */\n      tag_379\n        /* \"#utility.yul\":4658:4662   */\n      0x40\n        /* \"#utility.yul\":4653:4656   */\n      dup7\n        /* \"#utility.yul\":4649:4663   */\n      add\n        /* \"#utility.yul\":4635:4647   */\n      dup3\n        /* \"#utility.yul\":4601:4664   */\n      tag_274\n      jump\t// in\n    tag_379:\n        /* \"#utility.yul\":4509:4674   */\n      pop\n        /* \"#utility.yul\":4691:4695   */\n      dup1\n        /* \"#utility.yul\":4684:4695   */\n      swap2\n      pop\n        /* \"#utility.yul\":3973:4701   */\n      pop\n        /* \"#utility.yul\":3863:4701   */\n      swap3\n      swap2\n      pop\n      pop\n      jump\t// out\n        /* \"#utility.yul\":4707:4955   */\n    tag_276:\n        /* \"#utility.yul\":4822:4832   */\n      0x00\n        /* \"#utility.yul\":4857:4949   */\n      tag_381\n        /* \"#utility.yul\":4945:4948   */\n      dup4\n        /* \"#utility.yul\":4937:4943   */\n      dup4\n        /* \"#utility.yul\":4857:4949   */\n      tag_275\n      jump\t// in\n    tag_381:\n        /* \"#utility.yul\":4843:4949   */\n      swap1\n      pop\n        /* \"#utility.yul\":4707:4955   */\n      swap3\n      swap2\n      pop\n      pop\n      jump\t// out\n        /* \"#utility.yul\":4961:5097   */\n    tag_277:\n        /* \"#utility.yul\":5054:5058   */\n      0x00\n        /* \"#utility.yul\":5086:5090   */\n      0x20\n        /* \"#utility.yul\":5081:5084   */\n      dup3\n        /* \"#utility.yul\":5077:5091   */\n      add\n        /* \"#utility.yul\":5069:5091   */\n      swap1\n      pop\n        /* \"#utility.yul\":4961:5097   */\n      swap2\n      swap1\n      pop\n      jump\t// out\n        /* \"#utility.yul\":5159:6254   */\n    tag_278:\n        /* \"#utility.yul\":5324:5327   */\n      0x00\n        /* \"#utility.yul\":5353:5430   */\n      tag_384\n        /* \"#utility.yul\":5424:5429   */\n      dup3\n        /* \"#utility.yul\":5353:5430   */\n      tag_266\n      jump\t// in\n    tag_384:\n        /* \"#utility.yul\":5446:5555   */\n      tag_385\n        /* \"#utility.yul\":5548:5554   */\n      dup2\n        /* \"#utility.yul\":5543:5546   */\n      dup6\n        /* \"#utility.yul\":5446:5555   */\n      tag_267\n      jump\t// in\n    tag_385:\n        /* \"#utility.yul\":5439:5555   */\n      swap4\n      pop\n        /* \"#utility.yul\":5581:5584   */\n      dup4\n        /* \"#utility.yul\":5626:5630   */\n      0x20\n        /* \"#utility.yul\":5618:5624   */\n      dup3\n        /* \"#utility.yul\":5614:5631   */\n      mul\n        /* \"#utility.yul\":5609:5612   */\n      dup6\n        /* \"#utility.yul\":5605:5632   */\n      add\n        /* \"#utility.yul\":5656:5735   */\n      tag_386\n        /* \"#utility.yul\":5729:5734   */\n      dup6\n        /* \"#utility.yul\":5656:5735   */\n      tag_268\n      jump\t// in\n    tag_386:\n        /* \"#utility.yul\":5758:5765   */\n      dup1\n        /* \"#utility.yul\":5789:5790   */\n      0x00\n        /* \"#utility.yul\":5774:6209   */\n    tag_387:\n        /* \"#utility.yul\":5799:5805   */\n      dup6\n        /* \"#utility.yul\":5796:5797   */\n      dup2\n        /* \"#utility.yul\":5793:5806   */\n      lt\n        /* \"#utility.yul\":5774:6209   */\n      iszero\n      tag_389\n      jumpi\n        /* \"#utility.yul\":5870:5879   */\n      dup5\n        /* \"#utility.yul\":5864:5868   */\n      dup5\n        /* \"#utility.yul\":5860:5880   */\n      sub\n        /* \"#utility.yul\":5855:5858   */\n      dup10\n        /* \"#utility.yul\":5848:5881   */\n      mstore\n        /* \"#utility.yul\":5921:5927   */\n      dup2\n        /* \"#utility.yul\":5915:5928   */\n      mload\n        /* \"#utility.yul\":5949:6059   */\n      tag_390\n        /* \"#utility.yul\":6054:6058   */\n      dup6\n        /* \"#utility.yul\":6039:6052   */\n      dup3\n        /* \"#utility.yul\":5949:6059   */\n      tag_276\n      jump\t// in\n    tag_390:\n        /* \"#utility.yul\":5941:6059   */\n      swap5\n      pop\n        /* \"#utility.yul\":6082:6165   */\n      tag_391\n        /* \"#utility.yul\":6158:6164   */\n      dup4\n        /* \"#utility.yul\":6082:6165   */\n      tag_277\n      jump\t// in\n    tag_391:\n        /* \"#utility.yul\":6072:6165   */\n      swap3\n      pop\n        /* \"#utility.yul\":6194:6198   */\n      0x20\n        /* \"#utility.yul\":6189:6192   */\n      dup11\n        /* \"#utility.yul\":6185:6199   */\n      add\n        /* \"#utility.yul\":6178:6199   */\n      swap10\n      pop\n        /* \"#utility.yul\":5834:6209   */\n      pop\n        /* \"#utility.yul\":5821:5822   */\n      0x01\n        /* \"#utility.yul\":5818:5819   */\n      dup2\n        /* \"#utility.yul\":5814:5823   */\n      add\n        /* \"#utility.yul\":5809:5823   */\n      swap1\n      pop\n        /* \"#utility.yul\":5774:6209   */\n      jump(tag_387)\n    tag_389:\n        /* \"#utility.yul\":5778:5792   */\n      pop\n        /* \"#utility.yul\":6225:6229   */\n      dup3\n        /* \"#utility.yul\":6218:6229   */\n      swap8\n      pop\n        /* \"#utility.yul\":6245:6248   */\n      dup8\n        /* \"#utility.yul\":6238:6248   */\n      swap6\n      pop\n        /* \"#utility.yul\":5329:6254   */\n      pop\n      pop\n      pop\n      pop\n      pop\n        /* \"#utility.yul\":5159:6254   */\n      swap3\n      swap2\n      pop\n      pop\n      jump\t// out\n        /* \"#utility.yul\":6260:6725   */\n    tag_44:\n        /* \"#utility.yul\":6449:6453   */\n      0x00\n        /* \"#utility.yul\":6487:6489   */\n      0x20\n        /* \"#utility.yul\":6476:6485   */\n      dup3\n        /* \"#utility.yul\":6472:6490   */\n      add\n        /* \"#utility.yul\":6464:6490   */\n      swap1\n      pop\n        /* \"#utility.yul\":6536:6545   */\n      dup2\n        /* \"#utility.yul\":6530:6534   */\n      dup2\n        /* \"#utility.yul\":6526:6546   */\n      sub\n        /* \"#utility.yul\":6522:6523   */\n      0x00\n        /* \"#utility.yul\":6511:6520   */\n      dup4\n        /* \"#utility.yul\":6507:6524   */\n      add\n        /* \"#utility.yul\":6500:6547   */\n      mstore\n        /* \"#utility.yul\":6564:6718   */\n      tag_393\n        /* \"#utility.yul\":6713:6717   */\n      dup2\n        /* \"#utility.yul\":6704:6710   */\n      dup5\n        /* \"#utility.yul\":6564:6718   */\n      tag_278\n      jump\t// in\n    tag_393:\n        /* \"#utility.yul\":6556:6718   */\n      swap1\n      pop\n        /* \"#utility.yul\":6260:6725   */\n      swap3\n      swap2\n      pop\n      pop\n      jump\t// out\n        /* \"#utility.yul\":6731:6900   */\n    tag_279:\n        /* \"#utility.yul\":6815:6826   */\n      0x00\n        /* \"#utility.yul\":6849:6855   */\n      dup3\n        /* \"#utility.yul\":6844:6847   */\n      dup3\n        /* \"#utility.yul\":6837:6856   */\n      mstore\n        /* \"#utility.yul\":6889:6893   */\n      0x20\n        /* \"#utility.yul\":6884:6887   */\n      dup3\n        /* \"#utility.yul\":6880:6894   */\n      add\n        /* \"#utility.yul\":6865:6894   */\n      swap1\n      pop\n        /* \"#utility.yul\":6731:6900   */\n      swap3\n      swap2\n      pop\n      pop\n      jump\t// out\n        /* \"#utility.yul\":6906:7283   */\n    tag_280:\n        /* \"#utility.yul\":6994:6997   */\n      0x00\n        /* \"#utility.yul\":7022:7061   */\n      tag_396\n        /* \"#utility.yul\":7055:7060   */\n      dup3\n        /* \"#utility.yul\":7022:7061   */\n      tag_269\n      jump\t// in\n    tag_396:\n        /* \"#utility.yul\":7077:7148   */\n      tag_397\n        /* \"#utility.yul\":7141:7147   */\n      dup2\n        /* \"#utility.yul\":7136:7139   */\n      dup6\n        /* \"#utility.yul\":7077:7148   */\n      tag_279\n      jump\t// in\n    tag_397:\n        /* \"#utility.yul\":7070:7148   */\n      swap4\n      pop\n        /* \"#utility.yul\":7157:7222   */\n      tag_398\n        /* \"#utility.yul\":7215:7221   */\n      dup2\n        /* \"#utility.yul\":7210:7213   */\n      dup6\n        /* \"#utility.yul\":7203:7207   */\n      0x20\n        /* \"#utility.yul\":7196:7201   */\n      dup7\n        /* \"#utility.yul\":7192:7208   */\n      add\n        /* \"#utility.yul\":7157:7222   */\n      tag_271\n      jump\t// in\n    tag_398:\n        /* \"#utility.yul\":7247:7276   */\n      tag_399\n        /* \"#utility.yul\":7269:7275   */\n      dup2\n        /* \"#utility.yul\":7247:7276   */\n      tag_272\n      jump\t// in\n    tag_399:\n        /* \"#utility.yul\":7242:7245   */\n      dup5\n        /* \"#utility.yul\":7238:7277   */\n      add\n        /* \"#utility.yul\":7231:7277   */\n      swap2\n      pop\n        /* \"#utility.yul\":6998:7283   */\n      pop\n        /* \"#utility.yul\":6906:7283   */\n      swap3\n      swap2\n      pop\n      pop\n      jump\t// out\n        /* \"#utility.yul\":7289:7407   */\n    tag_281:\n        /* \"#utility.yul\":7376:7400   */\n      tag_401\n        /* \"#utility.yul\":7394:7399   */\n      dup2\n        /* \"#utility.yul\":7376:7400   */\n      tag_257\n      jump\t// in\n    tag_401:\n        /* \"#utility.yul\":7371:7374   */\n      dup3\n        /* \"#utility.yul\":7364:7401   */\n      mstore\n        /* \"#utility.yul\":7289:7407   */\n      pop\n      pop\n      jump\t// out\n        /* \"#utility.yul\":7413:8037   */\n    tag_49:\n        /* \"#utility.yul\":7602:7606   */\n      0x00\n        /* \"#utility.yul\":7640:7642   */\n      0x60\n        /* \"#utility.yul\":7629:7638   */\n      dup3\n        /* \"#utility.yul\":7625:7643   */\n      add\n        /* \"#utility.yul\":7617:7643   */\n      swap1\n      pop\n        /* \"#utility.yul\":7689:7698   */\n      dup2\n        /* \"#utility.yul\":7683:7687   */\n      dup2\n        /* \"#utility.yul\":7679:7699   */\n      sub\n        /* \"#utility.yul\":7675:7676   */\n      0x00\n        /* \"#utility.yul\":7664:7673   */\n      dup4\n        /* \"#utility.yul\":7660:7677   */\n      add\n        /* \"#utility.yul\":7653:7700   */\n      mstore\n        /* \"#utility.yul\":7717:7795   */\n      tag_403\n        /* \"#utility.yul\":7790:7794   */\n      dup2\n        /* \"#utility.yul\":7781:7787   */\n      dup7\n        /* \"#utility.yul\":7717:7795   */\n      tag_280\n      jump\t// in\n    tag_403:\n        /* \"#utility.yul\":7709:7795   */\n      swap1\n      pop\n        /* \"#utility.yul\":7842:7851   */\n      dup2\n        /* \"#utility.yul\":7836:7840   */\n      dup2\n        /* \"#utility.yul\":7832:7852   */\n      sub\n        /* \"#utility.yul\":7827:7829   */\n      0x20\n        /* \"#utility.yul\":7816:7825   */\n      dup4\n        /* \"#utility.yul\":7812:7830   */\n      add\n        /* \"#utility.yul\":7805:7853   */\n      mstore\n        /* \"#utility.yul\":7870:7948   */\n      tag_404\n        /* \"#utility.yul\":7943:7947   */\n      dup2\n        /* \"#utility.yul\":7934:7940   */\n      dup6\n        /* \"#utility.yul\":7870:7948   */\n      tag_280\n      jump\t// in\n    tag_404:\n        /* \"#utility.yul\":7862:7948   */\n      swap1\n      pop\n        /* \"#utility.yul\":7958:8030   */\n      tag_405\n        /* \"#utility.yul\":8026:8028   */\n      0x40\n        /* \"#utility.yul\":8015:8024   */\n      dup4\n        /* \"#utility.yul\":8011:8029   */\n      add\n        /* \"#utility.yul\":8002:8008   */\n      dup5\n        /* \"#utility.yul\":7958:8030   */\n      tag_281\n      jump\t// in\n    tag_405:\n        /* \"#utility.yul\":7413:8037   */\n      swap5\n      swap4\n      pop\n      pop\n      pop\n      pop\n      jump\t// out\n        /* \"#utility.yul\":8043:8157   */\n    tag_282:\n        /* \"#utility.yul\":8110:8116   */\n      0x00\n        /* \"#utility.yul\":8144:8149   */\n      dup2\n        /* \"#utility.yul\":8138:8150   */\n      mload\n        /* \"#utility.yul\":8128:8150   */\n      swap1\n      pop\n        /* \"#utility.yul\":8043:8157   */\n      swap2\n      swap1\n      pop\n      jump\t// out\n        /* \"#utility.yul\":8163:8347   */\n    tag_283:\n        /* \"#utility.yul\":8262:8273   */\n      0x00\n        /* \"#utility.yul\":8296:8302   */\n      dup3\n        /* \"#utility.yul\":8291:8294   */\n      dup3\n        /* \"#utility.yul\":8284:8303   */\n      mstore\n        /* \"#utility.yul\":8336:8340   */\n      0x20\n        /* \"#utility.yul\":8331:8334   */\n      dup3\n        /* \"#utility.yul\":8327:8341   */\n      add\n        /* \"#utility.yul\":8312:8341   */\n      swap1\n      pop\n        /* \"#utility.yul\":8163:8347   */\n      swap3\n      swap2\n      pop\n      pop\n      jump\t// out\n        /* \"#utility.yul\":8353:8485   */\n    tag_284:\n        /* \"#utility.yul\":8420:8424   */\n      0x00\n        /* \"#utility.yul\":8443:8446   */\n      dup2\n        /* \"#utility.yul\":8435:8446   */\n      swap1\n      pop\n        /* \"#utility.yul\":8473:8477   */\n      0x20\n        /* \"#utility.yul\":8468:8471   */\n      dup3\n        /* \"#utility.yul\":8464:8478   */\n      add\n        /* \"#utility.yul\":8456:8478   */\n      swap1\n      pop\n        /* \"#utility.yul\":8353:8485   */\n      swap2\n      swap1\n      pop\n      jump\t// out\n        /* \"#utility.yul\":8491:8599   */\n    tag_285:\n        /* \"#utility.yul\":8568:8592   */\n      tag_410\n        /* \"#utility.yul\":8586:8591   */\n      dup2\n        /* \"#utility.yul\":8568:8592   */\n      tag_261\n      jump\t// in\n    tag_410:\n        /* \"#utility.yul\":8563:8566   */\n      dup3\n        /* \"#utility.yul\":8556:8593   */\n      mstore\n        /* \"#utility.yul\":8491:8599   */\n      pop\n      pop\n      jump\t// out\n        /* \"#utility.yul\":8605:8784   */\n    tag_286:\n        /* \"#utility.yul\":8674:8684   */\n      0x00\n        /* \"#utility.yul\":8695:8741   */\n      tag_412\n        /* \"#utility.yul\":8737:8740   */\n      dup4\n        /* \"#utility.yul\":8729:8735   */\n      dup4\n        /* \"#utility.yul\":8695:8741   */\n      tag_285\n      jump\t// in\n    tag_412:\n        /* \"#utility.yul\":8773:8777   */\n      0x20\n        /* \"#utility.yul\":8768:8771   */\n      dup4\n        /* \"#utility.yul\":8764:8778   */\n      add\n        /* \"#utility.yul\":8750:8778   */\n      swap1\n      pop\n        /* \"#utility.yul\":8605:8784   */\n      swap3\n      swap2\n      pop\n      pop\n      jump\t// out\n        /* \"#utility.yul\":8790:8903   */\n    tag_287:\n        /* \"#utility.yul\":8860:8864   */\n      0x00\n        /* \"#utility.yul\":8892:8896   */\n      0x20\n        /* \"#utility.yul\":8887:8890   */\n      dup3\n        /* \"#utility.yul\":8883:8897   */\n      add\n        /* \"#utility.yul\":8875:8897   */\n      swap1\n      pop\n        /* \"#utility.yul\":8790:8903   */\n      swap2\n      swap1\n      pop\n      jump\t// out\n        /* \"#utility.yul\":8939:9671   */\n    tag_288:\n        /* \"#utility.yul\":9058:9061   */\n      0x00\n        /* \"#utility.yul\":9087:9141   */\n      tag_415\n        /* \"#utility.yul\":9135:9140   */\n      dup3\n        /* \"#utility.yul\":9087:9141   */\n      tag_282\n      jump\t// in\n    tag_415:\n        /* \"#utility.yul\":9157:9243   */\n      tag_416\n        /* \"#utility.yul\":9236:9242   */\n      dup2\n        /* \"#utility.yul\":9231:9234   */\n      dup6\n        /* \"#utility.yul\":9157:9243   */\n      tag_283\n      jump\t// in\n    tag_416:\n        /* \"#utility.yul\":9150:9243   */\n      swap4\n      pop\n        /* \"#utility.yul\":9267:9323   */\n      tag_417\n        /* \"#utility.yul\":9317:9322   */\n      dup4\n        /* \"#utility.yul\":9267:9323   */\n      tag_284\n      jump\t// in\n    tag_417:\n        /* \"#utility.yul\":9346:9353   */\n      dup1\n        /* \"#utility.yul\":9377:9378   */\n      0x00\n        /* \"#utility.yul\":9362:9646   */\n    tag_418:\n        /* \"#utility.yul\":9387:9393   */\n      dup4\n        /* \"#utility.yul\":9384:9385   */\n      dup2\n        /* \"#utility.yul\":9381:9394   */\n      lt\n        /* \"#utility.yul\":9362:9646   */\n      iszero\n      tag_420\n      jumpi\n        /* \"#utility.yul\":9463:9469   */\n      dup2\n        /* \"#utility.yul\":9457:9470   */\n      mload\n        /* \"#utility.yul\":9490:9553   */\n      tag_421\n        /* \"#utility.yul\":9549:9552   */\n      dup9\n        /* \"#utility.yul\":9534:9547   */\n      dup3\n        /* \"#utility.yul\":9490:9553   */\n      tag_286\n      jump\t// in\n    tag_421:\n        /* \"#utility.yul\":9483:9553   */\n      swap8\n      pop\n        /* \"#utility.yul\":9576:9636   */\n      tag_422\n        /* \"#utility.yul\":9629:9635   */\n      dup4\n        /* \"#utility.yul\":9576:9636   */\n      tag_287\n      jump\t// in\n    tag_422:\n        /* \"#utility.yul\":9566:9636   */\n      swap3\n      pop\n        /* \"#utility.yul\":9422:9646   */\n      pop\n        /* \"#utility.yul\":9409:9410   */\n      0x01\n        /* \"#utility.yul\":9406:9407   */\n      dup2\n        /* \"#utility.yul\":9402:9411   */\n      add\n        /* \"#utility.yul\":9397:9411   */\n      swap1\n      pop\n        /* \"#utility.yul\":9362:9646   */\n      jump(tag_418)\n    tag_420:\n        /* \"#utility.yul\":9366:9380   */\n      pop\n        /* \"#utility.yul\":9662:9665   */\n      dup6\n        /* \"#utility.yul\":9655:9665   */\n      swap4\n      pop\n        /* \"#utility.yul\":9063:9671   */\n      pop\n      pop\n      pop\n        /* \"#utility.yul\":8939:9671   */\n      swap3\n      swap2\n      pop\n      pop\n      jump\t// out\n        /* \"#utility.yul\":9677:10050   */\n    tag_54:\n        /* \"#utility.yul\":9820:9824   */\n      0x00\n        /* \"#utility.yul\":9858:9860   */\n      0x20\n        /* \"#utility.yul\":9847:9856   */\n      dup3\n        /* \"#utility.yul\":9843:9861   */\n      add\n        /* \"#utility.yul\":9835:9861   */\n      swap1\n      pop\n        /* \"#utility.yul\":9907:9916   */\n      dup2\n        /* \"#utility.yul\":9901:9905   */\n      dup2\n        /* \"#utility.yul\":9897:9917   */\n      sub\n        /* \"#utility.yul\":9893:9894   */\n      0x00\n        /* \"#utility.yul\":9882:9891   */\n      dup4\n        /* \"#utility.yul\":9878:9895   */\n      add\n        /* \"#utility.yul\":9871:9918   */\n      mstore\n        /* \"#utility.yul\":9935:10043   */\n      tag_424\n        /* \"#utility.yul\":10038:10042   */\n      dup2\n        /* \"#utility.yul\":10029:10035   */\n      dup5\n        /* \"#utility.yul\":9935:10043   */\n      tag_288\n      jump\t// in\n    tag_424:\n        /* \"#utility.yul\":9927:10043   */\n      swap1\n      pop\n        /* \"#utility.yul\":9677:10050   */\n      swap3\n      swap2\n      pop\n      pop\n      jump\t// out\n        /* \"#utility.yul\":10108:10956   */\n    tag_289:\n        /* \"#utility.yul\":10223:10226   */\n      0x00\n        /* \"#utility.yul\":10259:10263   */\n      0x60\n        /* \"#utility.yul\":10254:10257   */\n      dup4\n        /* \"#utility.yul\":10250:10264   */\n      add\n        /* \"#utility.yul\":10346:10350   */\n      0x00\n        /* \"#utility.yul\":10339:10344   */\n      dup4\n        /* \"#utility.yul\":10335:10351   */\n      add\n        /* \"#utility.yul\":10329:10352   */\n      mload\n        /* \"#utility.yul\":10399:10402   */\n      dup5\n        /* \"#utility.yul\":10393:10397   */\n      dup3\n        /* \"#utility.yul\":10389:10403   */\n      sub\n        /* \"#utility.yul\":10382:10386   */\n      0x00\n        /* \"#utility.yul\":10377:10380   */\n      dup7\n        /* \"#utility.yul\":10373:10387   */\n      add\n        /* \"#utility.yul\":10366:10404   */\n      mstore\n        /* \"#utility.yul\":10425:10498   */\n      tag_426\n        /* \"#utility.yul\":10493:10497   */\n      dup3\n        /* \"#utility.yul\":10479:10491   */\n      dup3\n        /* \"#utility.yul\":10425:10498   */\n      tag_273\n      jump\t// in\n    tag_426:\n        /* \"#utility.yul\":10417:10498   */\n      swap2\n      pop\n        /* \"#utility.yul\":10274:10509   */\n      pop\n        /* \"#utility.yul\":10591:10595   */\n      0x20\n        /* \"#utility.yul\":10584:10589   */\n      dup4\n        /* \"#utility.yul\":10580:10596   */\n      add\n        /* \"#utility.yul\":10574:10597   */\n      mload\n        /* \"#utility.yul\":10644:10647   */\n      dup5\n        /* \"#utility.yul\":10638:10642   */\n      dup3\n        /* \"#utility.yul\":10634:10648   */\n      sub\n        /* \"#utility.yul\":10627:10631   */\n      0x20\n        /* \"#utility.yul\":10622:10625   */\n      dup7\n        /* \"#utility.yul\":10618:10632   */\n      add\n        /* \"#utility.yul\":10611:10649   */\n      mstore\n        /* \"#utility.yul\":10670:10743   */\n      tag_427\n        /* \"#utility.yul\":10738:10742   */\n      dup3\n        /* \"#utility.yul\":10724:10736   */\n      dup3\n        /* \"#utility.yul\":10670:10743   */\n      tag_273\n      jump\t// in\n    tag_427:\n        /* \"#utility.yul\":10662:10743   */\n      swap2\n      pop\n        /* \"#utility.yul\":10519:10754   */\n      pop\n        /* \"#utility.yul\":10837:10841   */\n      0x40\n        /* \"#utility.yul\":10830:10835   */\n      dup4\n        /* \"#utility.yul\":10826:10842   */\n      add\n        /* \"#utility.yul\":10820:10843   */\n      mload\n        /* \"#utility.yul\":10856:10919   */\n      tag_428\n        /* \"#utility.yul\":10913:10917   */\n      0x40\n        /* \"#utility.yul\":10908:10911   */\n      dup7\n        /* \"#utility.yul\":10904:10918   */\n      add\n        /* \"#utility.yul\":10890:10902   */\n      dup3\n        /* \"#utility.yul\":10856:10919   */\n      tag_274\n      jump\t// in\n    tag_428:\n        /* \"#utility.yul\":10764:10929   */\n      pop\n        /* \"#utility.yul\":10946:10950   */\n      dup1\n        /* \"#utility.yul\":10939:10950   */\n      swap2\n      pop\n        /* \"#utility.yul\":10228:10956   */\n      pop\n        /* \"#utility.yul\":10108:10956   */\n      swap3\n      swap2\n      pop\n      pop\n      jump\t// out\n        /* \"#utility.yul\":10962:11327   */\n    tag_60:\n        /* \"#utility.yul\":11101:11105   */\n      0x00\n        /* \"#utility.yul\":11139:11141   */\n      0x20\n        /* \"#utility.yul\":11128:11137   */\n      dup3\n        /* \"#utility.yul\":11124:11142   */\n      add\n        /* \"#utility.yul\":11116:11142   */\n      swap1\n      pop\n        /* \"#utility.yul\":11188:11197   */\n      dup2\n        /* \"#utility.yul\":11182:11186   */\n      dup2\n        /* \"#utility.yul\":11178:11198   */\n      sub\n        /* \"#utility.yul\":11174:11175   */\n      0x00\n        /* \"#utility.yul\":11163:11172   */\n      dup4\n        /* \"#utility.yul\":11159:11176   */\n      add\n        /* \"#utility.yul\":11152:11199   */\n      mstore\n        /* \"#utility.yul\":11216:11320   */\n      tag_430\n        /* \"#utility.yul\":11315:11319   */\n      dup2\n        /* \"#utility.yul\":11306:11312   */\n      dup5\n        /* \"#utility.yul\":11216:11320   */\n      tag_289\n      jump\t// in\n    tag_430:\n        /* \"#utility.yul\":11208:11320   */\n      swap1\n      pop\n        /* \"#utility.yul\":10962:11327   */\n      swap3\n      swap2\n      pop\n      pop\n      jump\t// out\n        /* \"#utility.yul\":11333:11451   */\n    tag_290:\n        /* \"#utility.yul\":11420:11444   */\n      tag_432\n        /* \"#utility.yul\":11438:11443   */\n      dup2\n        /* \"#utility.yul\":11420:11444   */\n      tag_261\n      jump\t// in\n    tag_432:\n        /* \"#utility.yul\":11415:11418   */\n      dup3\n        /* \"#utility.yul\":11408:11445   */\n      mstore\n        /* \"#utility.yul\":11333:11451   */\n      pop\n      pop\n      jump\t// out\n        /* \"#utility.yul\":11457:11679   */\n    tag_64:\n        /* \"#utility.yul\":11550:11554   */\n      0x00\n        /* \"#utility.yul\":11588:11590   */\n      0x20\n        /* \"#utility.yul\":11577:11586   */\n      dup3\n        /* \"#utility.yul\":11573:11591   */\n      add\n        /* \"#utility.yul\":11565:11591   */\n      swap1\n      pop\n        /* \"#utility.yul\":11601:11672   */\n      tag_434\n        /* \"#utility.yul\":11669:11670   */\n      0x00\n        /* \"#utility.yul\":11658:11667   */\n      dup4\n        /* \"#utility.yul\":11654:11671   */\n      add\n        /* \"#utility.yul\":11645:11651   */\n      dup5\n        /* \"#utility.yul\":11601:11672   */\n      tag_290\n      jump\t// in\n    tag_434:\n        /* \"#utility.yul\":11457:11679   */\n      swap3\n      swap2\n      pop\n      pop\n      jump\t// out\n        /* \"#utility.yul\":11685:11802   */\n    tag_291:\n        /* \"#utility.yul\":11794:11795   */\n      0x00\n        /* \"#utility.yul\":11791:11792   */\n      0x00\n        /* \"#utility.yul\":11784:11796   */\n      revert\n        /* \"#utility.yul\":11808:11925   */\n    tag_292:\n        /* \"#utility.yul\":11917:11918   */\n      0x00\n        /* \"#utility.yul\":11914:11915   */\n      0x00\n        /* \"#utility.yul\":11907:11919   */\n      revert\n        /* \"#utility.yul\":11931:12111   */\n    tag_293:\n        /* \"#utility.yul\":11979:12056   */\n      0x4e487b7100000000000000000000000000000000000000000000000000000000\n        /* \"#utility.yul\":11976:11977   */\n      0x00\n        /* \"#utility.yul\":11969:12057   */\n      mstore\n        /* \"#utility.yul\":12076:12080   */\n      0x41\n        /* \"#utility.yul\":12073:12074   */\n      0x04\n        /* \"#utility.yul\":12066:12081   */\n      mstore\n        /* \"#utility.yul\":12100:12104   */\n      0x24\n        /* \"#utility.yul\":12097:12098   */\n      0x00\n        /* \"#utility.yul\":12090:12105   */\n      revert\n        /* \"#utility.yul\":12117:12398   */\n    tag_294:\n        /* \"#utility.yul\":12200:12227   */\n      tag_439\n        /* \"#utility.yul\":12222:12226   */\n      dup3\n        /* \"#utility.yul\":12200:12227   */\n      tag_272\n      jump\t// in\n    tag_439:\n        /* \"#utility.yul\":12192:12198   */\n      dup2\n        /* \"#utility.yul\":12188:12228   */\n      add\n        /* \"#utility.yul\":12330:12336   */\n      dup2\n        /* \"#utility.yul\":12318:12328   */\n      dup2\n        /* \"#utility.yul\":12315:12337   */\n      lt\n        /* \"#utility.yul\":12294:12312   */\n      0xffffffffffffffff\n        /* \"#utility.yul\":12282:12292   */\n      dup3\n        /* \"#utility.yul\":12279:12313   */\n      gt\n        /* \"#utility.yul\":12276:12338   */\n      or\n        /* \"#utility.yul\":12273:12361   */\n      iszero\n      tag_440\n      jumpi\n        /* \"#utility.yul\":12341:12359   */\n      tag_441\n      tag_293\n      jump\t// in\n    tag_441:\n        /* \"#utility.yul\":12273:12361   */\n    tag_440:\n        /* \"#utility.yul\":12381:12391   */\n      dup1\n        /* \"#utility.yul\":12377:12379   */\n      0x40\n        /* \"#utility.yul\":12370:12392   */\n      mstore\n        /* \"#utility.yul\":12160:12398   */\n      pop\n        /* \"#utility.yul\":12117:12398   */\n      pop\n      pop\n      jump\t// out\n        /* \"#utility.yul\":12404:12533   */\n    tag_295:\n        /* \"#utility.yul\":12438:12444   */\n      0x00\n        /* \"#utility.yul\":12465:12485   */\n      tag_443\n      tag_254\n      jump\t// in\n    tag_443:\n        /* \"#utility.yul\":12455:12485   */\n      swap1\n      pop\n        /* \"#utility.yul\":12494:12527   */\n      tag_444\n        /* \"#utility.yul\":12522:12526   */\n      dup3\n        /* \"#utility.yul\":12514:12520   */\n      dup3\n        /* \"#utility.yul\":12494:12527   */\n      tag_294\n      jump\t// in\n    tag_444:\n        /* \"#utility.yul\":12404:12533   */\n      swap2\n      swap1\n      pop\n      jump\t// out\n        /* \"#utility.yul\":12539:12847   */\n    tag_296:\n        /* \"#utility.yul\":12601:12605   */\n      0x00\n        /* \"#utility.yul\":12691:12709   */\n      0xffffffffffffffff\n        /* \"#utility.yul\":12683:12689   */\n      dup3\n        /* \"#utility.yul\":12680:12710   */\n      gt\n        /* \"#utility.yul\":12677:12733   */\n      iszero\n      tag_446\n      jumpi\n        /* \"#utility.yul\":12713:12731   */\n      tag_447\n      tag_293\n      jump\t// in\n    tag_447:\n        /* \"#utility.yul\":12677:12733   */\n    tag_446:\n        /* \"#utility.yul\":12751:12780   */\n      tag_448\n        /* \"#utility.yul\":12773:12779   */\n      dup3\n        /* \"#utility.yul\":12751:12780   */\n      tag_272\n      jump\t// in\n    tag_448:\n        /* \"#utility.yul\":12743:12780   */\n      swap1\n      pop\n        /* \"#utility.yul\":12835:12839   */\n      0x20\n        /* \"#utility.yul\":12829:12833   */\n      dup2\n        /* \"#utility.yul\":12825:12840   */\n      add\n        /* \"#utility.yul\":12817:12840   */\n      swap1\n      pop\n        /* \"#utility.yul\":12539:12847   */\n      swap2\n      swap1\n      pop\n      jump\t// out\n        /* \"#utility.yul\":12853:13001   */\n    tag_297:\n        /* \"#utility.yul\":12951:12957   */\n      dup3\n        /* \"#utility.yul\":12946:12949   */\n      dup2\n        /* \"#utility.yul\":12941:12944   */\n      dup4\n        /* \"#utility.yul\":12928:12958   */\n      calldatacopy\n        /* \"#utility.yul\":12992:12993   */\n      0x00\n        /* \"#utility.yul\":12983:12989   */\n      dup4\n        /* \"#utility.yul\":12978:12981   */\n      dup4\n        /* \"#utility.yul\":12974:12990   */\n      add\n        /* \"#utility.yul\":12967:12994   */\n      mstore\n        /* \"#utility.yul\":12853:13001   */\n      pop\n      pop\n      pop\n      jump\t// out\n        /* \"#utility.yul\":13007:13432   */\n    tag_298:\n        /* \"#utility.yul\":13085:13090   */\n      0x00\n        /* \"#utility.yul\":13110:13176   */\n      tag_451\n        /* \"#utility.yul\":13126:13175   */\n      tag_452\n        /* \"#utility.yul\":13168:13174   */\n      dup5\n        /* \"#utility.yul\":13126:13175   */\n      tag_296\n      jump\t// in\n    tag_452:\n        /* \"#utility.yul\":13110:13176   */\n      tag_295\n      jump\t// in\n    tag_451:\n        /* \"#utility.yul\":13101:13176   */\n      swap1\n      pop\n        /* \"#utility.yul\":13199:13205   */\n      dup3\n        /* \"#utility.yul\":13192:13197   */\n      dup2\n        /* \"#utility.yul\":13185:13206   */\n      mstore\n        /* \"#utility.yul\":13237:13241   */\n      0x20\n        /* \"#utility.yul\":13230:13235   */\n      dup2\n        /* \"#utility.yul\":13226:13242   */\n      add\n        /* \"#utility.yul\":13275:13278   */\n      dup5\n        /* \"#utility.yul\":13266:13272   */\n      dup5\n        /* \"#utility.yul\":13261:13264   */\n      dup5\n        /* \"#utility.yul\":13257:13273   */\n      add\n        /* \"#utility.yul\":13254:13279   */\n      gt\n        /* \"#utility.yul\":13251:13363   */\n      iszero\n      tag_453\n      jumpi\n        /* \"#utility.yul\":13282:13361   */\n      tag_454\n      tag_292\n      jump\t// in\n    tag_454:\n        /* \"#utility.yul\":13251:13363   */\n    tag_453:\n        /* \"#utility.yul\":13372:13426   */\n      tag_455\n        /* \"#utility.yul\":13419:13425   */\n      dup5\n        /* \"#utility.yul\":13414:13417   */\n      dup3\n        /* \"#utility.yul\":13409:13412   */\n      dup6\n        /* \"#utility.yul\":13372:13426   */\n      tag_297\n      jump\t// in\n    tag_455:\n        /* \"#utility.yul\":13091:13432   */\n      pop\n        /* \"#utility.yul\":13007:13432   */\n      swap4\n      swap3\n      pop\n      pop\n      pop\n      jump\t// out\n        /* \"#utility.yul\":13452:13792   */\n    tag_299:\n        /* \"#utility.yul\":13508:13513   */\n      0x00\n        /* \"#utility.yul\":13557:13560   */\n      dup3\n        /* \"#utility.yul\":13550:13554   */\n      0x1f\n        /* \"#utility.yul\":13542:13548   */\n      dup4\n        /* \"#utility.yul\":13538:13555   */\n      add\n        /* \"#utility.yul\":13534:13561   */\n      slt\n        /* \"#utility.yul\":13524:13646   */\n      tag_457\n      jumpi\n        /* \"#utility.yul\":13565:13644   */\n      tag_458\n      tag_291\n      jump\t// in\n    tag_458:\n        /* \"#utility.yul\":13524:13646   */\n    tag_457:\n        /* \"#utility.yul\":13682:13688   */\n      dup2\n        /* \"#utility.yul\":13669:13689   */\n      calldataload\n        /* \"#utility.yul\":13707:13786   */\n      tag_459\n        /* \"#utility.yul\":13782:13785   */\n      dup5\n        /* \"#utility.yul\":13774:13780   */\n      dup3\n        /* \"#utility.yul\":13767:13771   */\n      0x20\n        /* \"#utility.yul\":13759:13765   */\n      dup7\n        /* \"#utility.yul\":13755:13772   */\n      add\n        /* \"#utility.yul\":13707:13786   */\n      tag_298\n      jump\t// in\n    tag_459:\n        /* \"#utility.yul\":13698:13786   */\n      swap2\n      pop\n        /* \"#utility.yul\":13514:13792   */\n      pop\n        /* \"#utility.yul\":13452:13792   */\n      swap3\n      swap2\n      pop\n      pop\n      jump\t// out\n        /* \"#utility.yul\":13798:14632   */\n    tag_70:\n        /* \"#utility.yul\":13886:13892   */\n      0x00\n        /* \"#utility.yul\":13894:13900   */\n      0x00\n        /* \"#utility.yul\":13943:13945   */\n      0x40\n        /* \"#utility.yul\":13931:13940   */\n      dup4\n        /* \"#utility.yul\":13922:13929   */\n      dup6\n        /* \"#utility.yul\":13918:13941   */\n      sub\n        /* \"#utility.yul\":13914:13946   */\n      slt\n        /* \"#utility.yul\":13911:14030   */\n      iszero\n      tag_461\n      jumpi\n        /* \"#utility.yul\":13949:14028   */\n      tag_462\n      tag_255\n      jump\t// in\n    tag_462:\n        /* \"#utility.yul\":13911:14030   */\n    tag_461:\n        /* \"#utility.yul\":14097:14098   */\n      0x00\n        /* \"#utility.yul\":14086:14095   */\n      dup4\n        /* \"#utility.yul\":14082:14099   */\n      add\n        /* \"#utility.yul\":14069:14100   */\n      calldataload\n        /* \"#utility.yul\":14127:14145   */\n      0xffffffffffffffff\n        /* \"#utility.yul\":14119:14125   */\n      dup2\n        /* \"#utility.yul\":14116:14146   */\n      gt\n        /* \"#utility.yul\":14113:14230   */\n      iszero\n      tag_463\n      jumpi\n        /* \"#utility.yul\":14149:14228   */\n      tag_464\n      tag_256\n      jump\t// in\n    tag_464:\n        /* \"#utility.yul\":14113:14230   */\n    tag_463:\n        /* \"#utility.yul\":14254:14317   */\n      tag_465\n        /* \"#utility.yul\":14309:14316   */\n      dup6\n        /* \"#utility.yul\":14300:14306   */\n      dup3\n        /* \"#utility.yul\":14289:14298   */\n      dup7\n        /* \"#utility.yul\":14285:14307   */\n      add\n        /* \"#utility.yul\":14254:14317   */\n      tag_299\n      jump\t// in\n    tag_465:\n        /* \"#utility.yul\":14244:14317   */\n      swap3\n      pop\n        /* \"#utility.yul\":14040:14327   */\n      pop\n        /* \"#utility.yul\":14394:14396   */\n      0x20\n        /* \"#utility.yul\":14383:14392   */\n      dup4\n        /* \"#utility.yul\":14379:14397   */\n      add\n        /* \"#utility.yul\":14366:14398   */\n      calldataload\n        /* \"#utility.yul\":14425:14443   */\n      0xffffffffffffffff\n        /* \"#utility.yul\":14417:14423   */\n      dup2\n        /* \"#utility.yul\":14414:14444   */\n      gt\n        /* \"#utility.yul\":14411:14528   */\n      iszero\n      tag_466\n      jumpi\n        /* \"#utility.yul\":14447:14526   */\n      tag_467\n      tag_256\n      jump\t// in\n    tag_467:\n        /* \"#utility.yul\":14411:14528   */\n    tag_466:\n        /* \"#utility.yul\":14552:14615   */\n      tag_468\n        /* \"#utility.yul\":14607:14614   */\n      dup6\n        /* \"#utility.yul\":14598:14604   */\n      dup3\n        /* \"#utility.yul\":14587:14596   */\n      dup7\n        /* \"#utility.yul\":14583:14605   */\n      add\n        /* \"#utility.yul\":14552:14615   */\n      tag_299\n      jump\t// in\n    tag_468:\n        /* \"#utility.yul\":14542:14615   */\n      swap2\n      pop\n        /* \"#utility.yul\":14337:14625   */\n      pop\n        /* \"#utility.yul\":13798:14632   */\n      swap3\n      pop\n      swap3\n      swap1\n      pop\n      jump\t// out\n        /* \"#utility.yul\":14638:14860   */\n    tag_76:\n        /* \"#utility.yul\":14731:14735   */\n      0x00\n        /* \"#utility.yul\":14769:14771   */\n      0x20\n        /* \"#utility.yul\":14758:14767   */\n      dup3\n        /* \"#utility.yul\":14754:14772   */\n      add\n        /* \"#utility.yul\":14746:14772   */\n      swap1\n      pop\n        /* \"#utility.yul\":14782:14853   */\n      tag_470\n        /* \"#utility.yul\":14850:14851   */\n      0x00\n        /* \"#utility.yul\":14839:14848   */\n      dup4\n        /* \"#utility.yul\":14835:14852   */\n      add\n        /* \"#utility.yul\":14826:14832   */\n      dup5\n        /* \"#utility.yul\":14782:14853   */\n      tag_281\n      jump\t// in\n    tag_470:\n        /* \"#utility.yul\":14638:14860   */\n      swap3\n      swap2\n      pop\n      pop\n      jump\t// out\n        /* \"#utility.yul\":14866:15340   */\n    tag_82:\n        /* \"#utility.yul\":14934:14940   */\n      0x00\n        /* \"#utility.yul\":14942:14948   */\n      0x00\n        /* \"#utility.yul\":14991:14993   */\n      0x40\n        /* \"#utility.yul\":14979:14988   */\n      dup4\n        /* \"#utility.yul\":14970:14977   */\n      dup6\n        /* \"#utility.yul\":14966:14989   */\n      sub\n        /* \"#utility.yul\":14962:14994   */\n      slt\n        /* \"#utility.yul\":14959:15078   */\n      iszero\n      tag_472\n      jumpi\n        /* \"#utility.yul\":14997:15076   */\n      tag_473\n      tag_255\n      jump\t// in\n    tag_473:\n        /* \"#utility.yul\":14959:15078   */\n    tag_472:\n        /* \"#utility.yul\":15117:15118   */\n      0x00\n        /* \"#utility.yul\":15142:15195   */\n      tag_474\n        /* \"#utility.yul\":15187:15194   */\n      dup6\n        /* \"#utility.yul\":15178:15184   */\n      dup3\n        /* \"#utility.yul\":15167:15176   */\n      dup7\n        /* \"#utility.yul\":15163:15185   */\n      add\n        /* \"#utility.yul\":15142:15195   */\n      tag_259\n      jump\t// in\n    tag_474:\n        /* \"#utility.yul\":15132:15195   */\n      swap3\n      pop\n        /* \"#utility.yul\":15088:15205   */\n      pop\n        /* \"#utility.yul\":15244:15246   */\n      0x20\n        /* \"#utility.yul\":15270:15323   */\n      tag_475\n        /* \"#utility.yul\":15315:15322   */\n      dup6\n        /* \"#utility.yul\":15306:15312   */\n      dup3\n        /* \"#utility.yul\":15295:15304   */\n      dup7\n        /* \"#utility.yul\":15291:15313   */\n      add\n        /* \"#utility.yul\":15270:15323   */\n      tag_259\n      jump\t// in\n    tag_475:\n        /* \"#utility.yul\":15260:15323   */\n      swap2\n      pop\n        /* \"#utility.yul\":15215:15333   */\n      pop\n        /* \"#utility.yul\":14866:15340   */\n      swap3\n      pop\n      swap3\n      swap1\n      pop\n      jump\t// out\n        /* \"#utility.yul\":15346:15463   */\n    tag_300:\n        /* \"#utility.yul\":15455:15456   */\n      0x00\n        /* \"#utility.yul\":15452:15453   */\n      0x00\n        /* \"#utility.yul\":15445:15457   */\n      revert\n        /* \"#utility.yul\":15469:15586   */\n    tag_301:\n        /* \"#utility.yul\":15578:15579   */\n      0x00\n        /* \"#utility.yul\":15575:15576   */\n      0x00\n        /* \"#utility.yul\":15568:15580   */\n      revert\n        /* \"#utility.yul\":15592:16026   */\n    tag_302:\n        /* \"#utility.yul\":15681:15686   */\n      0x00\n        /* \"#utility.yul\":15706:15772   */\n      tag_479\n        /* \"#utility.yul\":15722:15771   */\n      tag_480\n        /* \"#utility.yul\":15764:15770   */\n      dup5\n        /* \"#utility.yul\":15722:15771   */\n      tag_296\n      jump\t// in\n    tag_480:\n        /* \"#utility.yul\":15706:15772   */\n      tag_295\n      jump\t// in\n    tag_479:\n        /* \"#utility.yul\":15697:15772   */\n      swap1\n      pop\n        /* \"#utility.yul\":15795:15801   */\n      dup3\n        /* \"#utility.yul\":15788:15793   */\n      dup2\n        /* \"#utility.yul\":15781:15802   */\n      mstore\n        /* \"#utility.yul\":15833:15837   */\n      0x20\n        /* \"#utility.yul\":15826:15831   */\n      dup2\n        /* \"#utility.yul\":15822:15838   */\n      add\n        /* \"#utility.yul\":15871:15874   */\n      dup5\n        /* \"#utility.yul\":15862:15868   */\n      dup5\n        /* \"#utility.yul\":15857:15860   */\n      dup5\n        /* \"#utility.yul\":15853:15869   */\n      add\n        /* \"#utility.yul\":15850:15875   */\n      gt\n        /* \"#utility.yul\":15847:15959   */\n      iszero\n      tag_481\n      jumpi\n        /* \"#utility.yul\":15878:15957   */\n      tag_482\n      tag_292\n      jump\t// in\n    tag_482:\n        /* \"#utility.yul\":15847:15959   */\n    tag_481:\n        /* \"#utility.yul\":15968:16020   */\n      tag_483\n        /* \"#utility.yul\":16013:16019   */\n      dup5\n        /* \"#utility.yul\":16008:16011   */\n      dup3\n        /* \"#utility.yul\":16003:16006   */\n      dup6\n        /* \"#utility.yul\":15968:16020   */\n      tag_271\n      jump\t// in\n    tag_483:\n        /* \"#utility.yul\":15687:16026   */\n      pop\n        /* \"#utility.yul\":15592:16026   */\n      swap4\n      swap3\n      pop\n      pop\n      pop\n      jump\t// out\n        /* \"#utility.yul\":16046:16401   */\n    tag_303:\n        /* \"#utility.yul\":16113:16118   */\n      0x00\n        /* \"#utility.yul\":16162:16165   */\n      dup3\n        /* \"#utility.yul\":16155:16159   */\n      0x1f\n        /* \"#utility.yul\":16147:16153   */\n      dup4\n        /* \"#utility.yul\":16143:16160   */\n      add\n        /* \"#utility.yul\":16139:16166   */\n      slt\n        /* \"#utility.yul\":16129:16251   */\n      tag_485\n      jumpi\n        /* \"#utility.yul\":16170:16249   */\n      tag_486\n      tag_291\n      jump\t// in\n    tag_486:\n        /* \"#utility.yul\":16129:16251   */\n    tag_485:\n        /* \"#utility.yul\":16280:16286   */\n      dup2\n        /* \"#utility.yul\":16274:16287   */\n      mload\n        /* \"#utility.yul\":16305:16395   */\n      tag_487\n        /* \"#utility.yul\":16391:16394   */\n      dup5\n        /* \"#utility.yul\":16383:16389   */\n      dup3\n        /* \"#utility.yul\":16376:16380   */\n      0x20\n        /* \"#utility.yul\":16368:16374   */\n      dup7\n        /* \"#utility.yul\":16364:16381   */\n      add\n        /* \"#utility.yul\":16305:16395   */\n      tag_302\n      jump\t// in\n    tag_487:\n        /* \"#utility.yul\":16296:16395   */\n      swap2\n      pop\n        /* \"#utility.yul\":16119:16401   */\n      pop\n        /* \"#utility.yul\":16046:16401   */\n      swap3\n      swap2\n      pop\n      pop\n      jump\t// out\n        /* \"#utility.yul\":16407:16550   */\n    tag_304:\n        /* \"#utility.yul\":16464:16469   */\n      0x00\n        /* \"#utility.yul\":16495:16501   */\n      dup2\n        /* \"#utility.yul\":16489:16502   */\n      mload\n        /* \"#utility.yul\":16480:16502   */\n      swap1\n      pop\n        /* \"#utility.yul\":16511:16544   */\n      tag_489\n        /* \"#utility.yul\":16538:16543   */\n      dup2\n        /* \"#utility.yul\":16511:16544   */\n      tag_258\n      jump\t// in\n    tag_489:\n        /* \"#utility.yul\":16407:16550   */\n      swap3\n      swap2\n      pop\n      pop\n      jump\t// out\n        /* \"#utility.yul\":16556:16699   */\n    tag_305:\n        /* \"#utility.yul\":16613:16618   */\n      0x00\n        /* \"#utility.yul\":16644:16650   */\n      dup2\n        /* \"#utility.yul\":16638:16651   */\n      mload\n        /* \"#utility.yul\":16629:16651   */\n      swap1\n      pop\n        /* \"#utility.yul\":16660:16693   */\n      tag_491\n        /* \"#utility.yul\":16687:16692   */\n      dup2\n        /* \"#utility.yul\":16660:16693   */\n      tag_262\n      jump\t// in\n    tag_491:\n        /* \"#utility.yul\":16556:16699   */\n      swap3\n      swap2\n      pop\n      pop\n      jump\t// out\n        /* \"#utility.yul\":16741:17695   */\n    tag_306:\n        /* \"#utility.yul\":16833:16838   */\n      0x00\n        /* \"#utility.yul\":16877:16881   */\n      0x60\n        /* \"#utility.yul\":16865:16874   */\n      dup3\n        /* \"#utility.yul\":16860:16863   */\n      dup5\n        /* \"#utility.yul\":16856:16875   */\n      sub\n        /* \"#utility.yul\":16852:16882   */\n      slt\n        /* \"#utility.yul\":16849:16966   */\n      iszero\n      tag_493\n      jumpi\n        /* \"#utility.yul\":16885:16964   */\n      tag_494\n      tag_300\n      jump\t// in\n    tag_494:\n        /* \"#utility.yul\":16849:16966   */\n    tag_493:\n        /* \"#utility.yul\":16984:17005   */\n      tag_495\n        /* \"#utility.yul\":17000:17004   */\n      0x60\n        /* \"#utility.yul\":16984:17005   */\n      tag_295\n      jump\t// in\n    tag_495:\n        /* \"#utility.yul\":16975:17005   */\n      swap1\n      pop\n        /* \"#utility.yul\":17085:17086   */\n      0x00\n        /* \"#utility.yul\":17074:17083   */\n      dup3\n        /* \"#utility.yul\":17070:17087   */\n      add\n        /* \"#utility.yul\":17064:17088   */\n      mload\n        /* \"#utility.yul\":17115:17133   */\n      0xffffffffffffffff\n        /* \"#utility.yul\":17107:17113   */\n      dup2\n        /* \"#utility.yul\":17104:17134   */\n      gt\n        /* \"#utility.yul\":17101:17218   */\n      iszero\n      tag_496\n      jumpi\n        /* \"#utility.yul\":17137:17216   */\n      tag_497\n      tag_301\n      jump\t// in\n    tag_497:\n        /* \"#utility.yul\":17101:17218   */\n    tag_496:\n        /* \"#utility.yul\":17257:17327   */\n      tag_498\n        /* \"#utility.yul\":17323:17326   */\n      dup5\n        /* \"#utility.yul\":17314:17320   */\n      dup3\n        /* \"#utility.yul\":17303:17312   */\n      dup6\n        /* \"#utility.yul\":17299:17321   */\n      add\n        /* \"#utility.yul\":17257:17327   */\n      tag_303\n      jump\t// in\n    tag_498:\n        /* \"#utility.yul\":17250:17254   */\n      0x00\n        /* \"#utility.yul\":17243:17248   */\n      dup4\n        /* \"#utility.yul\":17239:17255   */\n      add\n        /* \"#utility.yul\":17232:17328   */\n      mstore\n        /* \"#utility.yul\":17015:17339   */\n      pop\n        /* \"#utility.yul\":17396:17398   */\n      0x20\n        /* \"#utility.yul\":17437:17497   */\n      tag_499\n        /* \"#utility.yul\":17493:17496   */\n      dup5\n        /* \"#utility.yul\":17484:17490   */\n      dup3\n        /* \"#utility.yul\":17473:17482   */\n      dup6\n        /* \"#utility.yul\":17469:17491   */\n      add\n        /* \"#utility.yul\":17437:17497   */\n      tag_304\n      jump\t// in\n    tag_499:\n        /* \"#utility.yul\":17430:17434   */\n      0x20\n        /* \"#utility.yul\":17423:17428   */\n      dup4\n        /* \"#utility.yul\":17419:17435   */\n      add\n        /* \"#utility.yul\":17412:17498   */\n      mstore\n        /* \"#utility.yul\":17349:17509   */\n      pop\n        /* \"#utility.yul\":17575:17577   */\n      0x40\n        /* \"#utility.yul\":17616:17676   */\n      tag_500\n        /* \"#utility.yul\":17672:17675   */\n      dup5\n        /* \"#utility.yul\":17663:17669   */\n      dup3\n        /* \"#utility.yul\":17652:17661   */\n      dup6\n        /* \"#utility.yul\":17648:17670   */\n      add\n        /* \"#utility.yul\":17616:17676   */\n      tag_305\n      jump\t// in\n    tag_500:\n        /* \"#utility.yul\":17609:17613   */\n      0x40\n        /* \"#utility.yul\":17602:17607   */\n      dup4\n        /* \"#utility.yul\":17598:17614   */\n      add\n        /* \"#utility.yul\":17591:17677   */\n      mstore\n        /* \"#utility.yul\":17519:17688   */\n      pop\n        /* \"#utility.yul\":16741:17695   */\n      swap3\n      swap2\n      pop\n      pop\n      jump\t// out\n        /* \"#utility.yul\":17701:18269   */\n    tag_90:\n        /* \"#utility.yul\":17803:17809   */\n      0x00\n        /* \"#utility.yul\":17852:17854   */\n      0x20\n        /* \"#utility.yul\":17840:17849   */\n      dup3\n        /* \"#utility.yul\":17831:17838   */\n      dup5\n        /* \"#utility.yul\":17827:17850   */\n      sub\n        /* \"#utility.yul\":17823:17855   */\n      slt\n        /* \"#utility.yul\":17820:17939   */\n      iszero\n      tag_502\n      jumpi\n        /* \"#utility.yul\":17858:17937   */\n      tag_503\n      tag_255\n      jump\t// in\n    tag_503:\n        /* \"#utility.yul\":17820:17939   */\n    tag_502:\n        /* \"#utility.yul\":17999:18000   */\n      0x00\n        /* \"#utility.yul\":17988:17997   */\n      dup3\n        /* \"#utility.yul\":17984:18001   */\n      add\n        /* \"#utility.yul\":17978:18002   */\n      mload\n        /* \"#utility.yul\":18029:18047   */\n      0xffffffffffffffff\n        /* \"#utility.yul\":18021:18027   */\n      dup2\n        /* \"#utility.yul\":18018:18048   */\n      gt\n        /* \"#utility.yul\":18015:18132   */\n      iszero\n      tag_504\n      jumpi\n        /* \"#utility.yul\":18051:18130   */\n      tag_505\n      tag_256\n      jump\t// in\n    tag_505:\n        /* \"#utility.yul\":18015:18132   */\n    tag_504:\n        /* \"#utility.yul\":18156:18252   */\n      tag_506\n        /* \"#utility.yul\":18244:18251   */\n      dup5\n        /* \"#utility.yul\":18235:18241   */\n      dup3\n        /* \"#utility.yul\":18224:18233   */\n      dup6\n        /* \"#utility.yul\":18220:18242   */\n      add\n        /* \"#utility.yul\":18156:18252   */\n      tag_306\n      jump\t// in\n    tag_506:\n        /* \"#utility.yul\":18146:18252   */\n      swap2\n      pop\n        /* \"#utility.yul\":17949:18262   */\n      pop\n        /* \"#utility.yul\":17701:18269   */\n      swap3\n      swap2\n      pop\n      pop\n      jump\t// out\n        /* \"#utility.yul\":18275:18447   */\n    tag_307:\n        /* \"#utility.yul\":18415:18439   */\n      0x546869732075736572206973206e6f7420657869737400000000000000000000\n        /* \"#utility.yul\":18411:18412   */\n      0x00\n        /* \"#utility.yul\":18403:18409   */\n      dup3\n        /* \"#utility.yul\":18399:18413   */\n      add\n        /* \"#utility.yul\":18392:18440   */\n      mstore\n        /* \"#utility.yul\":18275:18447   */\n      pop\n      jump\t// out\n        /* \"#utility.yul\":18453:18819   */\n    tag_308:\n        /* \"#utility.yul\":18595:18598   */\n      0x00\n        /* \"#utility.yul\":18616:18683   */\n      tag_509\n        /* \"#utility.yul\":18680:18682   */\n      0x16\n        /* \"#utility.yul\":18675:18678   */\n      dup4\n        /* \"#utility.yul\":18616:18683   */\n      tag_279\n      jump\t// in\n    tag_509:\n        /* \"#utility.yul\":18609:18683   */\n      swap2\n      pop\n        /* \"#utility.yul\":18692:18785   */\n      tag_510\n        /* \"#utility.yul\":18781:18784   */\n      dup3\n        /* \"#utility.yul\":18692:18785   */\n      tag_307\n      jump\t// in\n    tag_510:\n        /* \"#utility.yul\":18810:18812   */\n      0x20\n        /* \"#utility.yul\":18805:18808   */\n      dup3\n        /* \"#utility.yul\":18801:18813   */\n      add\n        /* \"#utility.yul\":18794:18813   */\n      swap1\n      pop\n        /* \"#utility.yul\":18453:18819   */\n      swap2\n      swap1\n      pop\n      jump\t// out\n        /* \"#utility.yul\":18825:19244   */\n    tag_93:\n        /* \"#utility.yul\":18991:18995   */\n      0x00\n        /* \"#utility.yul\":19029:19031   */\n      0x20\n        /* \"#utility.yul\":19018:19027   */\n      dup3\n        /* \"#utility.yul\":19014:19032   */\n      add\n        /* \"#utility.yul\":19006:19032   */\n      swap1\n      pop\n        /* \"#utility.yul\":19078:19087   */\n      dup2\n        /* \"#utility.yul\":19072:19076   */\n      dup2\n        /* \"#utility.yul\":19068:19088   */\n      sub\n        /* \"#utility.yul\":19064:19065   */\n      0x00\n        /* \"#utility.yul\":19053:19062   */\n      dup4\n        /* \"#utility.yul\":19049:19066   */\n      add\n        /* \"#utility.yul\":19042:19089   */\n      mstore\n        /* \"#utility.yul\":19106:19237   */\n      tag_512\n        /* \"#utility.yul\":19232:19236   */\n      dup2\n        /* \"#utility.yul\":19106:19237   */\n      tag_308\n      jump\t// in\n    tag_512:\n        /* \"#utility.yul\":19098:19237   */\n      swap1\n      pop\n        /* \"#utility.yul\":18825:19244   */\n      swap2\n      swap1\n      pop\n      jump\t// out\n        /* \"#utility.yul\":19250:19425   */\n    tag_309:\n        /* \"#utility.yul\":19390:19417   */\n      0x5468697320706572736f6e20616c726561647920766f74656400000000000000\n        /* \"#utility.yul\":19386:19387   */\n      0x00\n        /* \"#utility.yul\":19378:19384   */\n      dup3\n        /* \"#utility.yul\":19374:19388   */\n      add\n        /* \"#utility.yul\":19367:19418   */\n      mstore\n        /* \"#utility.yul\":19250:19425   */\n      pop\n      jump\t// out\n        /* \"#utility.yul\":19431:19797   */\n    tag_310:\n        /* \"#utility.yul\":19573:19576   */\n      0x00\n        /* \"#utility.yul\":19594:19661   */\n      tag_515\n        /* \"#utility.yul\":19658:19660   */\n      0x19\n        /* \"#utility.yul\":19653:19656   */\n      dup4\n        /* \"#utility.yul\":19594:19661   */\n      tag_279\n      jump\t// in\n    tag_515:\n        /* \"#utility.yul\":19587:19661   */\n      swap2\n      pop\n        /* \"#utility.yul\":19670:19763   */\n      tag_516\n        /* \"#utility.yul\":19759:19762   */\n      dup3\n        /* \"#utility.yul\":19670:19763   */\n      tag_309\n      jump\t// in\n    tag_516:\n        /* \"#utility.yul\":19788:19790   */\n      0x20\n        /* \"#utility.yul\":19783:19786   */\n      dup3\n        /* \"#utility.yul\":19779:19791   */\n      add\n        /* \"#utility.yul\":19772:19791   */\n      swap1\n      pop\n        /* \"#utility.yul\":19431:19797   */\n      swap2\n      swap1\n      pop\n      jump\t// out\n        /* \"#utility.yul\":19803:20222   */\n    tag_96:\n        /* \"#utility.yul\":19969:19973   */\n      0x00\n        /* \"#utility.yul\":20007:20009   */\n      0x20\n        /* \"#utility.yul\":19996:20005   */\n      dup3\n        /* \"#utility.yul\":19992:20010   */\n      add\n        /* \"#utility.yul\":19984:20010   */\n      swap1\n      pop\n        /* \"#utility.yul\":20056:20065   */\n      dup2\n        /* \"#utility.yul\":20050:20054   */\n      dup2\n        /* \"#utility.yul\":20046:20066   */\n      sub\n        /* \"#utility.yul\":20042:20043   */\n      0x00\n        /* \"#utility.yul\":20031:20040   */\n      dup4\n        /* \"#utility.yul\":20027:20044   */\n      add\n        /* \"#utility.yul\":20020:20067   */\n      mstore\n        /* \"#utility.yul\":20084:20215   */\n      tag_518\n        /* \"#utility.yul\":20210:20214   */\n      dup2\n        /* \"#utility.yul\":20084:20215   */\n      tag_310\n      jump\t// in\n    tag_518:\n        /* \"#utility.yul\":20076:20215   */\n      swap1\n      pop\n        /* \"#utility.yul\":19803:20222   */\n      swap2\n      swap1\n      pop\n      jump\t// out\n        /* \"#utility.yul\":20228:20395   */\n    tag_311:\n        /* \"#utility.yul\":20368:20387   */\n      0x496e76616c69642063616e646964617465000000000000000000000000000000\n        /* \"#utility.yul\":20364:20365   */\n      0x00\n        /* \"#utility.yul\":20356:20362   */\n      dup3\n        /* \"#utility.yul\":20352:20366   */\n      add\n        /* \"#utility.yul\":20345:20388   */\n      mstore\n        /* \"#utility.yul\":20228:20395   */\n      pop\n      jump\t// out\n        /* \"#utility.yul\":20401:20767   */\n    tag_312:\n        /* \"#utility.yul\":20543:20546   */\n      0x00\n        /* \"#utility.yul\":20564:20631   */\n      tag_521\n        /* \"#utility.yul\":20628:20630   */\n      0x11\n        /* \"#utility.yul\":20623:20626   */\n      dup4\n        /* \"#utility.yul\":20564:20631   */\n      tag_279\n      jump\t// in\n    tag_521:\n        /* \"#utility.yul\":20557:20631   */\n      swap2\n      pop\n        /* \"#utility.yul\":20640:20733   */\n      tag_522\n        /* \"#utility.yul\":20729:20732   */\n      dup3\n        /* \"#utility.yul\":20640:20733   */\n      tag_311\n      jump\t// in\n    tag_522:\n        /* \"#utility.yul\":20758:20760   */\n      0x20\n        /* \"#utility.yul\":20753:20756   */\n      dup3\n        /* \"#utility.yul\":20749:20761   */\n      add\n        /* \"#utility.yul\":20742:20761   */\n      swap1\n      pop\n        /* \"#utility.yul\":20401:20767   */\n      swap2\n      swap1\n      pop\n      jump\t// out\n        /* \"#utility.yul\":20773:21192   */\n    tag_99:\n        /* \"#utility.yul\":20939:20943   */\n      0x00\n        /* \"#utility.yul\":20977:20979   */\n      0x20\n        /* \"#utility.yul\":20966:20975   */\n      dup3\n        /* \"#utility.yul\":20962:20980   */\n      add\n        /* \"#utility.yul\":20954:20980   */\n      swap1\n      pop\n        /* \"#utility.yul\":21026:21035   */\n      dup2\n        /* \"#utility.yul\":21020:21024   */\n      dup2\n        /* \"#utility.yul\":21016:21036   */\n      sub\n        /* \"#utility.yul\":21012:21013   */\n      0x00\n        /* \"#utility.yul\":21001:21010   */\n      dup4\n        /* \"#utility.yul\":20997:21014   */\n      add\n        /* \"#utility.yul\":20990:21037   */\n      mstore\n        /* \"#utility.yul\":21054:21185   */\n      tag_524\n        /* \"#utility.yul\":21180:21184   */\n      dup2\n        /* \"#utility.yul\":21054:21185   */\n      tag_312\n      jump\t// in\n    tag_524:\n        /* \"#utility.yul\":21046:21185   */\n      swap1\n      pop\n        /* \"#utility.yul\":20773:21192   */\n      swap2\n      swap1\n      pop\n      jump\t// out\n        /* \"#utility.yul\":21198:21378   */\n    tag_103:\n        /* \"#utility.yul\":21246:21323   */\n      0x4e487b7100000000000000000000000000000000000000000000000000000000\n        /* \"#utility.yul\":21243:21244   */\n      0x00\n        /* \"#utility.yul\":21236:21324   */\n      mstore\n        /* \"#utility.yul\":21343:21347   */\n      0x32\n        /* \"#utility.yul\":21340:21341   */\n      0x04\n        /* \"#utility.yul\":21333:21348   */\n      mstore\n        /* \"#utility.yul\":21367:21371   */\n      0x24\n        /* \"#utility.yul\":21364:21365   */\n      0x00\n        /* \"#utility.yul\":21357:21372   */\n      revert\n        /* \"#utility.yul\":21384:21564   */\n    tag_313:\n        /* \"#utility.yul\":21432:21509   */\n      0x4e487b7100000000000000000000000000000000000000000000000000000000\n        /* \"#utility.yul\":21429:21430   */\n      0x00\n        /* \"#utility.yul\":21422:21510   */\n      mstore\n        /* \"#utility.yul\":21529:21533   */\n      0x11\n        /* \"#utility.yul\":21526:21527   */\n      0x04\n        /* \"#utility.yul\":21519:21534   */\n      mstore\n        /* \"#utility.yul\":21553:21557   */\n      0x24\n        /* \"#utility.yul\":21550:21551   */\n      0x00\n        /* \"#utility.yul\":21543:21558   */\n      revert\n        /* \"#utility.yul\":21570:21803   */\n    tag_106:\n        /* \"#utility.yul\":21609:21612   */\n      0x00\n        /* \"#utility.yul\":21632:21656   */\n      tag_528\n        /* \"#utility.yul\":21650:21655   */\n      dup3\n        /* \"#utility.yul\":21632:21656   */\n      tag_257\n      jump\t// in\n    tag_528:\n        /* \"#utility.yul\":21623:21656   */\n      swap2\n      pop\n        /* \"#utility.yul\":21678:21744   */\n      0xffffffffffffffffffffffffffffffffffffffffffffffffffffffffffffffff\n        /* \"#utility.yul\":21671:21676   */\n      dup3\n        /* \"#utility.yul\":21668:21745   */\n      sub\n        /* \"#utility.yul\":21665:21768   */\n      tag_529\n      jumpi\n        /* \"#utility.yul\":21748:21766   */\n      tag_530\n      tag_313\n      jump\t// in\n    tag_530:\n        /* \"#utility.yul\":21665:21768   */\n    tag_529:\n        /* \"#utility.yul\":21795:21796   */\n      0x01\n        /* \"#utility.yul\":21788:21793   */\n      dup3\n        /* \"#utility.yul\":21784:21797   */\n      add\n        /* \"#utility.yul\":21777:21797   */\n      swap1\n      pop\n        /* \"#utility.yul\":21570:21803   */\n      swap2\n      swap1\n      pop\n      jump\t// out\n        /* \"#utility.yul\":21809:22003   */\n    tag_112:\n        /* \"#utility.yul\":21849:21853   */\n      0x00\n        /* \"#utility.yul\":21869:21889   */\n      tag_532\n        /* \"#utility.yul\":21887:21888   */\n      dup3\n        /* \"#utility.yul\":21869:21889   */\n      tag_257\n      jump\t// in\n    tag_532:\n        /* \"#utility.yul\":21864:21889   */\n      swap2\n      pop\n        /* \"#utility.yul\":21903:21923   */\n      tag_533\n        /* \"#utility.yul\":21921:21922   */\n      dup4\n        /* \"#utility.yul\":21903:21923   */\n      tag_257\n      jump\t// in\n    tag_533:\n        /* \"#utility.yul\":21898:21923   */\n      swap3\n      pop\n        /* \"#utility.yul\":21947:21948   */\n      dup3\n        /* \"#utility.yul\":21944:21945   */\n      dup3\n        /* \"#utility.yul\":21940:21949   */\n      sub\n        /* \"#utility.yul\":21932:21949   */\n      swap1\n      pop\n        /* \"#utility.yul\":21971:21972   */\n      dup2\n        /* \"#utility.yul\":21965:21969   */\n      dup2\n        /* \"#utility.yul\":21962:21973   */\n      gt\n        /* \"#utility.yul\":21959:21996   */\n      iszero\n      tag_534\n      jumpi\n        /* \"#utility.yul\":21976:21994   */\n      tag_535\n      tag_313\n      jump\t// in\n    tag_535:\n        /* \"#utility.yul\":21959:21996   */\n    tag_534:\n        /* \"#utility.yul\":21809:22003   */\n      swap3\n      swap2\n      pop\n      pop\n      jump\t// out\n        /* \"#utility.yul\":22009:22189   */\n    tag_314:\n        /* \"#utility.yul\":22057:22134   */\n      0x4e487b7100000000000000000000000000000000000000000000000000000000\n        /* \"#utility.yul\":22054:22055   */\n      0x00\n        /* \"#utility.yul\":22047:22135   */\n      mstore\n        /* \"#utility.yul\":22154:22158   */\n      0x22\n        /* \"#utility.yul\":22151:22152   */\n      0x04\n        /* \"#utility.yul\":22144:22159   */\n      mstore\n        /* \"#utility.yul\":22178:22182   */\n      0x24\n        /* \"#utility.yul\":22175:22176   */\n      0x00\n        /* \"#utility.yul\":22168:22183   */\n      revert\n        /* \"#utility.yul\":22195:22515   */\n    tag_152:\n        /* \"#utility.yul\":22239:22245   */\n      0x00\n        /* \"#utility.yul\":22276:22277   */\n      0x02\n        /* \"#utility.yul\":22270:22274   */\n      dup3\n        /* \"#utility.yul\":22266:22278   */\n      div\n        /* \"#utility.yul\":22256:22278   */\n      swap1\n      pop\n        /* \"#utility.yul\":22323:22324   */\n      0x01\n        /* \"#utility.yul\":22317:22321   */\n      dup3\n        /* \"#utility.yul\":22313:22325   */\n      and\n        /* \"#utility.yul\":22344:22362   */\n      dup1\n        /* \"#utility.yul\":22334:22415   */\n      tag_538\n      jumpi\n        /* \"#utility.yul\":22400:22404   */\n      0x7f\n        /* \"#utility.yul\":22392:22398   */\n      dup3\n        /* \"#utility.yul\":22388:22405   */\n      and\n        /* \"#utility.yul\":22378:22405   */\n      swap2\n      pop\n        /* \"#utility.yul\":22334:22415   */\n    tag_538:\n        /* \"#utility.yul\":22462:22464   */\n      0x20\n        /* \"#utility.yul\":22454:22460   */\n      dup3\n        /* \"#utility.yul\":22451:22465   */\n      lt\n        /* \"#utility.yul\":22431:22449   */\n      dup2\n        /* \"#utility.yul\":22428:22466   */\n      sub\n        /* \"#utility.yul\":22425:22509   */\n      tag_539\n      jumpi\n        /* \"#utility.yul\":22481:22499   */\n      tag_540\n      tag_314\n      jump\t// in\n    tag_540:\n        /* \"#utility.yul\":22425:22509   */\n    tag_539:\n        /* \"#utility.yul\":22246:22515   */\n      pop\n        /* \"#utility.yul\":22195:22515   */\n      swap2\n      swap1\n      pop\n      jump\t// out\n        /* \"#utility.yul\":22521:22670   */\n    tag_315:\n        /* \"#utility.yul\":22570:22576   */\n      0x00\n        /* \"#utility.yul\":22604:22609   */\n      dup2\n        /* \"#utility.yul\":22598:22610   */\n      sload\n        /* \"#utility.yul\":22588:22610   */\n      swap1\n      pop\n        /* \"#utility.yul\":22630:22663   */\n      tag_542\n        /* \"#utility.yul\":22656:22662   */\n      dup2\n        /* \"#utility.yul\":22630:22663   */\n      tag_152\n      jump\t// in\n    tag_542:\n        /* \"#utility.yul\":22620:22663   */\n      swap1\n      pop\n        /* \"#utility.yul\":22521:22670   */\n      swap2\n      swap1\n      pop\n      jump\t// out\n        /* \"#utility.yul\":22676:22817   */\n    tag_316:\n        /* \"#utility.yul\":22725:22729   */\n      0x00\n        /* \"#utility.yul\":22748:22751   */\n      dup2\n        /* \"#utility.yul\":22740:22751   */\n      swap1\n      pop\n        /* \"#utility.yul\":22771:22774   */\n      dup2\n        /* \"#utility.yul\":22768:22769   */\n      0x00\n        /* \"#utility.yul\":22761:22775   */\n      mstore\n        /* \"#utility.yul\":22805:22809   */\n      0x20\n        /* \"#utility.yul\":22802:22803   */\n      0x00\n        /* \"#utility.yul\":22792:22810   */\n      keccak256\n        /* \"#utility.yul\":22784:22810   */\n      swap1\n      pop\n        /* \"#utility.yul\":22676:22817   */\n      swap2\n      swap1\n      pop\n      jump\t// out\n        /* \"#utility.yul\":22823:22916   */\n    tag_317:\n        /* \"#utility.yul\":22860:22866   */\n      0x00\n        /* \"#utility.yul\":22907:22909   */\n      0x20\n        /* \"#utility.yul\":22902:22904   */\n      0x1f\n        /* \"#utility.yul\":22895:22900   */\n      dup4\n        /* \"#utility.yul\":22891:22905   */\n      add\n        /* \"#utility.yul\":22887:22910   */\n      div\n        /* \"#utility.yul\":22877:22910   */\n      swap1\n      pop\n        /* \"#utility.yul\":22823:22916   */\n      swap2\n      swap1\n      pop\n      jump\t// out\n        /* \"#utility.yul\":22922:23029   */\n    tag_318:\n        /* \"#utility.yul\":22966:22974   */\n      0x00\n        /* \"#utility.yul\":23016:23021   */\n      dup3\n        /* \"#utility.yul\":23010:23014   */\n      dup3\n        /* \"#utility.yul\":23006:23022   */\n      shl\n        /* \"#utility.yul\":22985:23022   */\n      swap1\n      pop\n        /* \"#utility.yul\":22922:23029   */\n      swap3\n      swap2\n      pop\n      pop\n      jump\t// out\n        /* \"#utility.yul\":23035:23428   */\n    tag_319:\n        /* \"#utility.yul\":23104:23110   */\n      0x00\n        /* \"#utility.yul\":23154:23155   */\n      0x08\n        /* \"#utility.yul\":23142:23152   */\n      dup4\n        /* \"#utility.yul\":23138:23156   */\n      mul\n        /* \"#utility.yul\":23177:23274   */\n      tag_547\n        /* \"#utility.yul\":23207:23273   */\n      0xffffffffffffffffffffffffffffffffffffffffffffffffffffffffffffffff\n        /* \"#utility.yul\":23196:23205   */\n      dup3\n        /* \"#utility.yul\":23177:23274   */\n      tag_318\n      jump\t// in\n    tag_547:\n        /* \"#utility.yul\":23295:23334   */\n      tag_548\n        /* \"#utility.yul\":23325:23333   */\n      dup7\n        /* \"#utility.yul\":23314:23323   */\n      dup4\n        /* \"#utility.yul\":23295:23334   */\n      tag_318\n      jump\t// in\n    tag_548:\n        /* \"#utility.yul\":23283:23334   */\n      swap6\n      pop\n        /* \"#utility.yul\":23367:23371   */\n      dup1\n        /* \"#utility.yul\":23363:23372   */\n      not\n        /* \"#utility.yul\":23356:23361   */\n      dup5\n        /* \"#utility.yul\":23352:23373   */\n      and\n        /* \"#utility.yul\":23343:23373   */\n      swap4\n      pop\n        /* \"#utility.yul\":23416:23420   */\n      dup1\n        /* \"#utility.yul\":23406:23414   */\n      dup7\n        /* \"#utility.yul\":23402:23421   */\n      and\n        /* \"#utility.yul\":23395:23400   */\n      dup5\n        /* \"#utility.yul\":23392:23422   */\n      or\n        /* \"#utility.yul\":23382:23422   */\n      swap3\n      pop\n        /* \"#utility.yul\":23111:23428   */\n      pop\n      pop\n        /* \"#utility.yul\":23035:23428   */\n      swap4\n      swap3\n      pop\n      pop\n      pop\n      jump\t// out\n        /* \"#utility.yul\":23434:23494   */\n    tag_320:\n        /* \"#utility.yul\":23462:23465   */\n      0x00\n        /* \"#utility.yul\":23483:23488   */\n      dup2\n        /* \"#utility.yul\":23476:23488   */\n      swap1\n      pop\n        /* \"#utility.yul\":23434:23494   */\n      swap2\n      swap1\n      pop\n      jump\t// out\n        /* \"#utility.yul\":23500:23642   */\n    tag_321:\n        /* \"#utility.yul\":23550:23559   */\n      0x00\n        /* \"#utility.yul\":23583:23636   */\n      tag_551\n        /* \"#utility.yul\":23601:23635   */\n      tag_552\n        /* \"#utility.yul\":23610:23634   */\n      tag_553\n        /* \"#utility.yul\":23628:23633   */\n      dup5\n        /* \"#utility.yul\":23610:23634   */\n      tag_257\n      jump\t// in\n    tag_553:\n        /* \"#utility.yul\":23601:23635   */\n      tag_320\n      jump\t// in\n    tag_552:\n        /* \"#utility.yul\":23583:23636   */\n      tag_257\n      jump\t// in\n    tag_551:\n        /* \"#utility.yul\":23570:23636   */\n      swap1\n      pop\n        /* \"#utility.yul\":23500:23642   */\n      swap2\n      swap1\n      pop\n      jump\t// out\n        /* \"#utility.yul\":23648:23723   */\n    tag_322:\n        /* \"#utility.yul\":23691:23694   */\n      0x00\n        /* \"#utility.yul\":23712:23717   */\n      dup2\n        /* \"#utility.yul\":23705:23717   */\n      swap1\n      pop\n        /* \"#utility.yul\":23648:23723   */\n      swap2\n      swap1\n      pop\n      jump\t// out\n        /* \"#utility.yul\":23729:23998   */\n    tag_323:\n        /* \"#utility.yul\":23839:23878   */\n      tag_556\n        /* \"#utility.yul\":23870:23877   */\n      dup4\n        /* \"#utility.yul\":23839:23878   */\n      tag_321\n      jump\t// in\n    tag_556:\n        /* \"#utility.yul\":23900:23991   */\n      tag_557\n        /* \"#utility.yul\":23949:23990   */\n      tag_558\n        /* \"#utility.yul\":23973:23989   */\n      dup3\n        /* \"#utility.yul\":23949:23990   */\n      tag_322\n      jump\t// in\n    tag_558:\n        /* \"#utility.yul\":23941:23947   */\n      dup5\n        /* \"#utility.yul\":23934:23938   */\n      dup5\n        /* \"#utility.yul\":23928:23939   */\n      sload\n        /* \"#utility.yul\":23900:23991   */\n      tag_319\n      jump\t// in\n    tag_557:\n        /* \"#utility.yul\":23894:23898   */\n      dup3\n        /* \"#utility.yul\":23887:23992   */\n      sstore\n        /* \"#utility.yul\":23805:23998   */\n      pop\n        /* \"#utility.yul\":23729:23998   */\n      pop\n      pop\n      pop\n      jump\t// out\n        /* \"#utility.yul\":24004:24077   */\n    tag_324:\n        /* \"#utility.yul\":24049:24052   */\n      0x00\n        /* \"#utility.yul\":24070:24071   */\n      0x00\n        /* \"#utility.yul\":24063:24071   */\n      swap1\n      pop\n        /* \"#utility.yul\":24004:24077   */\n      swap1\n      jump\t// out\n        /* \"#utility.yul\":24083:24272   */\n    tag_325:\n        /* \"#utility.yul\":24160:24192   */\n      tag_561\n      tag_324\n      jump\t// in\n    tag_561:\n        /* \"#utility.yul\":24201:24266   */\n      tag_562\n        /* \"#utility.yul\":24259:24265   */\n      dup2\n        /* \"#utility.yul\":24251:24257   */\n      dup5\n        /* \"#utility.yul\":24245:24249   */\n      dup5\n        /* \"#utility.yul\":24201:24266   */\n      tag_323\n      jump\t// in\n    tag_562:\n        /* \"#utility.yul\":24136:24272   */\n      pop\n        /* \"#utility.yul\":24083:24272   */\n      pop\n      pop\n      jump\t// out\n        /* \"#utility.yul\":24278:24464   */\n    tag_326:\n        /* \"#utility.yul\":24338:24458   */\n    tag_564:\n        /* \"#utility.yul\":24355:24358   */\n      dup2\n        /* \"#utility.yul\":24348:24353   */\n      dup2\n        /* \"#utility.yul\":24345:24359   */\n      lt\n        /* \"#utility.yul\":24338:24458   */\n      iszero\n      tag_566\n      jumpi\n        /* \"#utility.yul\":24409:24448   */\n      tag_567\n        /* \"#utility.yul\":24446:24447   */\n      0x00\n        /* \"#utility.yul\":24439:24444   */\n      dup3\n        /* \"#utility.yul\":24409:24448   */\n      tag_325\n      jump\t// in\n    tag_567:\n        /* \"#utility.yul\":24382:24383   */\n      0x01\n        /* \"#utility.yul\":24375:24380   */\n      dup2\n        /* \"#utility.yul\":24371:24384   */\n      add\n        /* \"#utility.yul\":24362:24384   */\n      swap1\n      pop\n        /* \"#utility.yul\":24338:24458   */\n      jump(tag_564)\n    tag_566:\n        /* \"#utility.yul\":24278:24464   */\n      pop\n      pop\n      jump\t// out\n        /* \"#utility.yul\":24470:25013   */\n    tag_327:\n        /* \"#utility.yul\":24571:24573   */\n      0x1f\n        /* \"#utility.yul\":24566:24569   */\n      dup3\n        /* \"#utility.yul\":24563:24574   */\n      gt\n        /* \"#utility.yul\":24560:25006   */\n      iszero\n      tag_569\n      jumpi\n        /* \"#utility.yul\":24605:24643   */\n      tag_570\n        /* \"#utility.yul\":24637:24642   */\n      dup2\n        /* \"#utility.yul\":24605:24643   */\n      tag_316\n      jump\t// in\n    tag_570:\n        /* \"#utility.yul\":24689:24718   */\n      tag_571\n        /* \"#utility.yul\":24707:24717   */\n      dup5\n        /* \"#utility.yul\":24689:24718   */\n      tag_317\n      jump\t// in\n    tag_571:\n        /* \"#utility.yul\":24679:24687   */\n      dup2\n        /* \"#utility.yul\":24675:24719   */\n      add\n        /* \"#utility.yul\":24872:24874   */\n      0x20\n        /* \"#utility.yul\":24860:24870   */\n      dup6\n        /* \"#utility.yul\":24857:24875   */\n      lt\n        /* \"#utility.yul\":24854:24903   */\n      iszero\n      tag_572\n      jumpi\n        /* \"#utility.yul\":24893:24901   */\n      dup2\n        /* \"#utility.yul\":24878:24901   */\n      swap1\n      pop\n        /* \"#utility.yul\":24854:24903   */\n    tag_572:\n        /* \"#utility.yul\":24916:24996   */\n      tag_573\n        /* \"#utility.yul\":24972:24994   */\n      tag_574\n        /* \"#utility.yul\":24990:24993   */\n      dup6\n        /* \"#utility.yul\":24972:24994   */\n      tag_317\n      jump\t// in\n    tag_574:\n        /* \"#utility.yul\":24962:24970   */\n      dup4\n        /* \"#utility.yul\":24958:24995   */\n      add\n        /* \"#utility.yul\":24945:24956   */\n      dup3\n        /* \"#utility.yul\":24916:24996   */\n      tag_326\n      jump\t// in\n    tag_573:\n        /* \"#utility.yul\":24575:25006   */\n      pop\n      pop\n        /* \"#utility.yul\":24560:25006   */\n    tag_569:\n        /* \"#utility.yul\":24470:25013   */\n      pop\n      pop\n      pop\n      jump\t// out\n        /* \"#utility.yul\":25019:25136   */\n    tag_328:\n        /* \"#utility.yul\":25073:25081   */\n      0x00\n        /* \"#utility.yul\":25123:25128   */\n      dup3\n        /* \"#utility.yul\":25117:25121   */\n      dup3\n        /* \"#utility.yul\":25113:25129   */\n      shr\n        /* \"#utility.yul\":25092:25129   */\n      swap1\n      pop\n        /* \"#utility.yul\":25019:25136   */\n      swap3\n      swap2\n      pop\n      pop\n      jump\t// out\n        /* \"#utility.yul\":25142:25311   */\n    tag_329:\n        /* \"#utility.yul\":25186:25192   */\n      0x00\n        /* \"#utility.yul\":25219:25270   */\n      tag_577\n        /* \"#utility.yul\":25267:25268   */\n      0x00\n        /* \"#utility.yul\":25263:25269   */\n      not\n        /* \"#utility.yul\":25255:25260   */\n      dup5\n        /* \"#utility.yul\":25252:25253   */\n      0x08\n        /* \"#utility.yul\":25248:25261   */\n      mul\n        /* \"#utility.yul\":25219:25270   */\n      tag_328\n      jump\t// in\n    tag_577:\n        /* \"#utility.yul\":25215:25271   */\n      not\n        /* \"#utility.yul\":25300:25304   */\n      dup1\n        /* \"#utility.yul\":25294:25298   */\n      dup4\n        /* \"#utility.yul\":25290:25305   */\n      and\n        /* \"#utility.yul\":25280:25305   */\n      swap2\n      pop\n        /* \"#utility.yul\":25193:25311   */\n      pop\n        /* \"#utility.yul\":25142:25311   */\n      swap3\n      swap2\n      pop\n      pop\n      jump\t// out\n        /* \"#utility.yul\":25316:25611   */\n    tag_330:\n        /* \"#utility.yul\":25392:25396   */\n      0x00\n        /* \"#utility.yul\":25538:25567   */\n      tag_579\n        /* \"#utility.yul\":25563:25566   */\n      dup4\n        /* \"#utility.yul\":25557:25561   */\n      dup4\n        /* \"#utility.yul\":25538:25567   */\n      tag_329\n      jump\t// in\n    tag_579:\n        /* \"#utility.yul\":25530:25567   */\n      swap2\n      pop\n        /* \"#utility.yul\":25600:25603   */\n      dup3\n        /* \"#utility.yul\":25597:25598   */\n      0x02\n        /* \"#utility.yul\":25593:25604   */\n      mul\n        /* \"#utility.yul\":25587:25591   */\n      dup3\n        /* \"#utility.yul\":25584:25605   */\n      or\n        /* \"#utility.yul\":25576:25605   */\n      swap1\n      pop\n        /* \"#utility.yul\":25316:25611   */\n      swap3\n      swap2\n      pop\n      pop\n      jump\t// out\n        /* \"#utility.yul\":25616:27067   */\n    tag_120:\n        /* \"#utility.yul\":25727:25730   */\n      dup2\n        /* \"#utility.yul\":25721:25725   */\n      dup2\n        /* \"#utility.yul\":25718:25731   */\n      sub\n        /* \"#utility.yul\":25715:25741   */\n      tag_581\n      jumpi\n        /* \"#utility.yul\":25734:25739   */\n      pop\n      pop\n      jump(tag_580)\n        /* \"#utility.yul\":25715:25741   */\n    tag_581:\n        /* \"#utility.yul\":25765:25799   */\n      tag_582\n        /* \"#utility.yul\":25795:25798   */\n      dup3\n        /* \"#utility.yul\":25765:25799   */\n      tag_315\n      jump\t// in\n    tag_582:\n        /* \"#utility.yul\":25864:25882   */\n      0xffffffffffffffff\n        /* \"#utility.yul\":25856:25862   */\n      dup2\n        /* \"#utility.yul\":25853:25883   */\n      gt\n        /* \"#utility.yul\":25850:25906   */\n      iszero\n      tag_583\n      jumpi\n        /* \"#utility.yul\":25886:25904   */\n      tag_584\n      tag_293\n      jump\t// in\n    tag_584:\n        /* \"#utility.yul\":25850:25906   */\n    tag_583:\n        /* \"#utility.yul\":25930:25968   */\n      tag_585\n        /* \"#utility.yul\":25962:25966   */\n      dup3\n        /* \"#utility.yul\":25956:25967   */\n      sload\n        /* \"#utility.yul\":25930:25968   */\n      tag_152\n      jump\t// in\n    tag_585:\n        /* \"#utility.yul\":26015:26082   */\n      tag_586\n        /* \"#utility.yul\":26075:26081   */\n      dup3\n        /* \"#utility.yul\":26067:26073   */\n      dup3\n        /* \"#utility.yul\":26061:26065   */\n      dup6\n        /* \"#utility.yul\":26015:26082   */\n      tag_327\n      jump\t// in\n    tag_586:\n        /* \"#utility.yul\":26109:26110   */\n      0x00\n        /* \"#utility.yul\":26138:26140   */\n      0x1f\n        /* \"#utility.yul\":26130:26136   */\n      dup4\n        /* \"#utility.yul\":26127:26141   */\n      gt\n        /* \"#utility.yul\":26155:26156   */\n      0x01\n        /* \"#utility.yul\":26150:26822   */\n      dup2\n      eq\n      tag_588\n      jumpi\n        /* \"#utility.yul\":26866:26867   */\n      0x00\n        /* \"#utility.yul\":26883:26889   */\n      dup5\n        /* \"#utility.yul\":26880:26957   */\n      iszero\n      tag_589\n      jumpi\n        /* \"#utility.yul\":26932:26941   */\n      dup3\n        /* \"#utility.yul\":26927:26930   */\n      dup8\n        /* \"#utility.yul\":26923:26942   */\n      add\n        /* \"#utility.yul\":26917:26943   */\n      sload\n        /* \"#utility.yul\":26908:26943   */\n      swap1\n      pop\n        /* \"#utility.yul\":26880:26957   */\n    tag_589:\n        /* \"#utility.yul\":26983:27050   */\n      tag_590\n        /* \"#utility.yul\":27043:27049   */\n      dup6\n        /* \"#utility.yul\":27036:27041   */\n      dup3\n        /* \"#utility.yul\":26983:27050   */\n      tag_330\n      jump\t// in\n    tag_590:\n        /* \"#utility.yul\":26977:26981   */\n      dup7\n        /* \"#utility.yul\":26970:27051   */\n      sstore\n        /* \"#utility.yul\":26839:27061   */\n      pop\n        /* \"#utility.yul\":26120:27061   */\n      jump(tag_587)\n        /* \"#utility.yul\":26150:26822   */\n    tag_588:\n        /* \"#utility.yul\":26202:26206   */\n      0x1f\n        /* \"#utility.yul\":26198:26207   */\n      not\n        /* \"#utility.yul\":26190:26196   */\n      dup5\n        /* \"#utility.yul\":26186:26208   */\n      and\n        /* \"#utility.yul\":26228:26264   */\n      tag_591\n        /* \"#utility.yul\":26260:26263   */\n      dup8\n        /* \"#utility.yul\":26228:26264   */\n      tag_316\n      jump\t// in\n    tag_591:\n        /* \"#utility.yul\":26221:26264   */\n      swap7\n      pop\n        /* \"#utility.yul\":26291:26328   */\n      tag_592\n        /* \"#utility.yul\":26323:26327   */\n      dup7\n        /* \"#utility.yul\":26291:26328   */\n      tag_316\n      jump\t// in\n    tag_592:\n        /* \"#utility.yul\":26350:26351   */\n      0x00\n        /* \"#utility.yul\":26364:26571   */\n    tag_593:\n        /* \"#utility.yul\":26378:26385   */\n      dup3\n        /* \"#utility.yul\":26375:26376   */\n      dup2\n        /* \"#utility.yul\":26372:26386   */\n      lt\n        /* \"#utility.yul\":26364:26571   */\n      iszero\n      tag_595\n      jumpi\n        /* \"#utility.yul\":26457:26466   */\n      dup5\n        /* \"#utility.yul\":26452:26455   */\n      dup10\n        /* \"#utility.yul\":26448:26467   */\n      add\n        /* \"#utility.yul\":26442:26468   */\n      sload\n        /* \"#utility.yul\":26434:26440   */\n      dup3\n        /* \"#utility.yul\":26427:26469   */\n      sstore\n        /* \"#utility.yul\":26508:26509   */\n      0x01\n        /* \"#utility.yul\":26500:26506   */\n      dup3\n        /* \"#utility.yul\":26496:26510   */\n      add\n        /* \"#utility.yul\":26486:26510   */\n      swap2\n      pop\n        /* \"#utility.yul\":26555:26556   */\n      0x01\n        /* \"#utility.yul\":26544:26553   */\n      dup6\n        /* \"#utility.yul\":26540:26557   */\n      add\n        /* \"#utility.yul\":26527:26557   */\n      swap5\n      pop\n        /* \"#utility.yul\":26401:26405   */\n      0x20\n        /* \"#utility.yul\":26398:26399   */\n      dup2\n        /* \"#utility.yul\":26394:26406   */\n      add\n        /* \"#utility.yul\":26389:26406   */\n      swap1\n      pop\n        /* \"#utility.yul\":26364:26571   */\n      jump(tag_593)\n    tag_595:\n        /* \"#utility.yul\":26599:26605   */\n      dup7\n        /* \"#utility.yul\":26590:26597   */\n      dup4\n        /* \"#utility.yul\":26587:26606   */\n      lt\n        /* \"#utility.yul\":26584:26763   */\n      iszero\n      tag_596\n      jumpi\n        /* \"#utility.yul\":26657:26666   */\n      dup5\n        /* \"#utility.yul\":26652:26655   */\n      dup10\n        /* \"#utility.yul\":26648:26667   */\n      add\n        /* \"#utility.yul\":26642:26668   */\n      sload\n        /* \"#utility.yul\":26700:26748   */\n      tag_597\n        /* \"#utility.yul\":26742:26746   */\n      0x1f\n        /* \"#utility.yul\":26734:26740   */\n      dup10\n        /* \"#utility.yul\":26730:26747   */\n      and\n        /* \"#utility.yul\":26719:26728   */\n      dup3\n        /* \"#utility.yul\":26700:26748   */\n      tag_329\n      jump\t// in\n    tag_597:\n        /* \"#utility.yul\":26692:26698   */\n      dup4\n        /* \"#utility.yul\":26685:26749   */\n      sstore\n        /* \"#utility.yul\":26607:26763   */\n      pop\n        /* \"#utility.yul\":26584:26763   */\n    tag_596:\n        /* \"#utility.yul\":26809:26810   */\n      0x01\n        /* \"#utility.yul\":26805:26806   */\n      0x02\n        /* \"#utility.yul\":26797:26803   */\n      dup9\n        /* \"#utility.yul\":26793:26807   */\n      mul\n        /* \"#utility.yul\":26789:26811   */\n      add\n        /* \"#utility.yul\":26783:26787   */\n      dup9\n        /* \"#utility.yul\":26776:26812   */\n      sstore\n        /* \"#utility.yul\":26157:26822   */\n      pop\n      pop\n      pop\n        /* \"#utility.yul\":26120:27061   */\n    tag_587:\n      pop\n        /* \"#utility.yul\":25705:27067   */\n      pop\n      pop\n      pop\n        /* \"#utility.yul\":25616:27067   */\n      pop\n      pop\n    tag_580:\n      jump\t// out\n        /* \"#utility.yul\":27073:27253   */\n    tag_124:\n        /* \"#utility.yul\":27121:27198   */\n      0x4e487b7100000000000000000000000000000000000000000000000000000000\n        /* \"#utility.yul\":27118:27119   */\n      0x00\n        /* \"#utility.yul\":27111:27199   */\n      mstore\n        /* \"#utility.yul\":27218:27222   */\n      0x31\n        /* \"#utility.yul\":27215:27216   */\n      0x04\n        /* \"#utility.yul\":27208:27223   */\n      mstore\n        /* \"#utility.yul\":27242:27246   */\n      0x24\n        /* \"#utility.yul\":27239:27240   */\n      0x00\n        /* \"#utility.yul\":27232:27247   */\n      revert\n        /* \"#utility.yul\":27259:28654   */\n    tag_226:\n        /* \"#utility.yul\":27376:27413   */\n      tag_600\n        /* \"#utility.yul\":27409:27412   */\n      dup3\n        /* \"#utility.yul\":27376:27413   */\n      tag_269\n      jump\t// in\n    tag_600:\n        /* \"#utility.yul\":27478:27496   */\n      0xffffffffffffffff\n        /* \"#utility.yul\":27470:27476   */\n      dup2\n        /* \"#utility.yul\":27467:27497   */\n      gt\n        /* \"#utility.yul\":27464:27520   */\n      iszero\n      tag_601\n      jumpi\n        /* \"#utility.yul\":27500:27518   */\n      tag_602\n      tag_293\n      jump\t// in\n    tag_602:\n        /* \"#utility.yul\":27464:27520   */\n    tag_601:\n        /* \"#utility.yul\":27544:27582   */\n      tag_603\n        /* \"#utility.yul\":27576:27580   */\n      dup3\n        /* \"#utility.yul\":27570:27581   */\n      sload\n        /* \"#utility.yul\":27544:27582   */\n      tag_152\n      jump\t// in\n    tag_603:\n        /* \"#utility.yul\":27629:27696   */\n      tag_604\n        /* \"#utility.yul\":27689:27695   */\n      dup3\n        /* \"#utility.yul\":27681:27687   */\n      dup3\n        /* \"#utility.yul\":27675:27679   */\n      dup6\n        /* \"#utility.yul\":27629:27696   */\n      tag_327\n      jump\t// in\n    tag_604:\n        /* \"#utility.yul\":27723:27724   */\n      0x00\n        /* \"#utility.yul\":27747:27751   */\n      0x20\n        /* \"#utility.yul\":27734:27751   */\n      swap1\n      pop\n        /* \"#utility.yul\":27779:27781   */\n      0x1f\n        /* \"#utility.yul\":27771:27777   */\n      dup4\n        /* \"#utility.yul\":27768:27782   */\n      gt\n        /* \"#utility.yul\":27796:27797   */\n      0x01\n        /* \"#utility.yul\":27791:28409   */\n      dup2\n      eq\n      tag_606\n      jumpi\n        /* \"#utility.yul\":28453:28454   */\n      0x00\n        /* \"#utility.yul\":28470:28476   */\n      dup5\n        /* \"#utility.yul\":28467:28544   */\n      iszero\n      tag_607\n      jumpi\n        /* \"#utility.yul\":28519:28528   */\n      dup3\n        /* \"#utility.yul\":28514:28517   */\n      dup8\n        /* \"#utility.yul\":28510:28529   */\n      add\n        /* \"#utility.yul\":28504:28530   */\n      mload\n        /* \"#utility.yul\":28495:28530   */\n      swap1\n      pop\n        /* \"#utility.yul\":28467:28544   */\n    tag_607:\n        /* \"#utility.yul\":28570:28637   */\n      tag_608\n        /* \"#utility.yul\":28630:28636   */\n      dup6\n        /* \"#utility.yul\":28623:28628   */\n      dup3\n        /* \"#utility.yul\":28570:28637   */\n      tag_330\n      jump\t// in\n    tag_608:\n        /* \"#utility.yul\":28564:28568   */\n      dup7\n        /* \"#utility.yul\":28557:28638   */\n      sstore\n        /* \"#utility.yul\":28426:28648   */\n      pop\n        /* \"#utility.yul\":27761:28648   */\n      jump(tag_605)\n        /* \"#utility.yul\":27791:28409   */\n    tag_606:\n        /* \"#utility.yul\":27843:27847   */\n      0x1f\n        /* \"#utility.yul\":27839:27848   */\n      not\n        /* \"#utility.yul\":27831:27837   */\n      dup5\n        /* \"#utility.yul\":27827:27849   */\n      and\n        /* \"#utility.yul\":27877:27914   */\n      tag_609\n        /* \"#utility.yul\":27909:27913   */\n      dup7\n        /* \"#utility.yul\":27877:27914   */\n      tag_316\n      jump\t// in\n    tag_609:\n        /* \"#utility.yul\":27936:27937   */\n      0x00\n        /* \"#utility.yul\":27950:28158   */\n    tag_610:\n        /* \"#utility.yul\":27964:27971   */\n      dup3\n        /* \"#utility.yul\":27961:27962   */\n      dup2\n        /* \"#utility.yul\":27958:27972   */\n      lt\n        /* \"#utility.yul\":27950:28158   */\n      iszero\n      tag_612\n      jumpi\n        /* \"#utility.yul\":28043:28052   */\n      dup5\n        /* \"#utility.yul\":28038:28041   */\n      dup10\n        /* \"#utility.yul\":28034:28053   */\n      add\n        /* \"#utility.yul\":28028:28054   */\n      mload\n        /* \"#utility.yul\":28020:28026   */\n      dup3\n        /* \"#utility.yul\":28013:28055   */\n      sstore\n        /* \"#utility.yul\":28094:28095   */\n      0x01\n        /* \"#utility.yul\":28086:28092   */\n      dup3\n        /* \"#utility.yul\":28082:28096   */\n      add\n        /* \"#utility.yul\":28072:28096   */\n      swap2\n      pop\n        /* \"#utility.yul\":28141:28143   */\n      0x20\n        /* \"#utility.yul\":28130:28139   */\n      dup6\n        /* \"#utility.yul\":28126:28144   */\n      add\n        /* \"#utility.yul\":28113:28144   */\n      swap5\n      pop\n        /* \"#utility.yul\":27987:27991   */\n      0x20\n        /* \"#utility.yul\":27984:27985   */\n      dup2\n        /* \"#utility.yul\":27980:27992   */\n      add\n        /* \"#utility.yul\":27975:27992   */\n      swap1\n      pop\n        /* \"#utility.yul\":27950:28158   */\n      jump(tag_610)\n    tag_612:\n        /* \"#utility.yul\":28186:28192   */\n      dup7\n        /* \"#utility.yul\":28177:28184   */\n      dup4\n        /* \"#utility.yul\":28174:28193   */\n      lt\n        /* \"#utility.yul\":28171:28350   */\n      iszero\n      tag_613\n      jumpi\n        /* \"#utility.yul\":28244:28253   */\n      dup5\n        /* \"#utility.yul\":28239:28242   */\n      dup10\n        /* \"#utility.yul\":28235:28254   */\n      add\n        /* \"#utility.yul\":28229:28255   */\n      mload\n        /* \"#utility.yul\":28287:28335   */\n      tag_614\n        /* \"#utility.yul\":28329:28333   */\n      0x1f\n        /* \"#utility.yul\":28321:28327   */\n      dup10\n        /* \"#utility.yul\":28317:28334   */\n      and\n        /* \"#utility.yul\":28306:28315   */\n      dup3\n        /* \"#utility.yul\":28287:28335   */\n      tag_329\n      jump\t// in\n    tag_614:\n        /* \"#utility.yul\":28279:28285   */\n      dup4\n        /* \"#utility.yul\":28272:28336   */\n      sstore\n        /* \"#utility.yul\":28194:28350   */\n      pop\n        /* \"#utility.yul\":28171:28350   */\n    tag_613:\n        /* \"#utility.yul\":28396:28397   */\n      0x01\n        /* \"#utility.yul\":28392:28393   */\n      0x02\n        /* \"#utility.yul\":28384:28390   */\n      dup9\n        /* \"#utility.yul\":28380:28394   */\n      mul\n        /* \"#utility.yul\":28376:28398   */\n      add\n        /* \"#utility.yul\":28370:28374   */\n      dup9\n        /* \"#utility.yul\":28363:28399   */\n      sstore\n        /* \"#utility.yul\":27798:28409   */\n      pop\n      pop\n      pop\n        /* \"#utility.yul\":27761:28648   */\n    tag_605:\n      pop\n        /* \"#utility.yul\":27351:28654   */\n      pop\n      pop\n      pop\n        /* \"#utility.yul\":27259:28654   */\n      pop\n      pop\n      jump\t// out\n\n    auxdata: 0xa26469706673582212208b09e85962a90fabb19ced8f554330351731816dbd2aa72d1ad976835b81fd7464736f6c634300081c0033\n}\n",
				"bytecode": {
					"linkReferences": {},
					"object": "608060405234801561000f575f5ffd5b5060405161242238038061242283398181016040528101906100319190610217565b335f73ffffffffffffffffffffffffffffffffffffffff168173ffffffffffffffffffffffffffffffffffffffff16036100a2575f6040517f1e4fbdf70000000000000000000000000000000000000000000000000000000081526004016100999190610251565b60405180910390fd5b6100b1816100f860201b60201c565b508060015f6101000a81548173ffffffffffffffffffffffffffffffffffffffff021916908373ffffffffffffffffffffffffffffffffffffffff1602179055505061026a565b5f5f5f9054906101000a900473ffffffffffffffffffffffffffffffffffffffff169050815f5f6101000a81548173ffffffffffffffffffffffffffffffffffffffff021916908373ffffffffffffffffffffffffffffffffffffffff1602179055508173ffffffffffffffffffffffffffffffffffffffff168173ffffffffffffffffffffffffffffffffffffffff167f8be0079c531659141344cd1fd0a4f28419497f9722a3daafe3b4186f6b6457e060405160405180910390a35050565b5f5ffd5b5f73ffffffffffffffffffffffffffffffffffffffff82169050919050565b5f6101e6826101bd565b9050919050565b6101f6816101dc565b8114610200575f5ffd5b50565b5f81519050610211816101ed565b92915050565b5f6020828403121561022c5761022b6101b9565b5b5f61023984828501610203565b91505092915050565b61024b816101dc565b82525050565b5f6020820190506102645f830184610242565b92915050565b6121ab806102775f395ff3fe608060405234801561000f575f5ffd5b50600436106100fe575f3560e01c8063715018a6116100955780639ab1c0ed116100645780639ab1c0ed14610288578063ad84c2da146102a4578063f2fde38b146102d4578063fba00cbd146102f0576100fe565b8063715018a6146102245780638312feb31461022e5780638da5cb5b1461024c5780638fd26f891461026a576100fe565b80631234ce9d116100d15780631234ce9d146101865780632e6997fe146101a45780633477ee2e146101c25780634521083f146101f4576100fe565b80630121b93f1461010257806309e9d7e21461011e57806309eef43e1461013a57806311dc47031461016a575b5f5ffd5b61011c6004803603810190610117919061137d565b610320565b005b6101386004803603810190610133919061137d565b610618565b005b610154600480360381019061014f9190611402565b610805565b6040516101619190611447565b60405180910390f35b610184600480360381019061017f919061137d565b610822565b005b61018e6108b4565b60405161019b9190611447565b60405180910390f35b6101ac610904565b6040516101b991906115ee565b60405180910390f35b6101dc60048036038101906101d7919061137d565b610a89565b6040516101eb93929190611665565b60405180910390f35b61020e6004803603810190610209919061137d565b610bca565b60405161021b919061175f565b60405180910390f35b61022c610c66565b005b610236610c79565b60405161024391906117d3565b60405180910390f35b610254610f86565b6040516102619190611802565b60405180910390f35b610272610fad565b60405161027f9190611447565b60405180910390f35b6102a2600480360381019061029d9190611947565b610fe9565b005b6102be60048036038101906102b99190611402565b611073565b6040516102cb91906119bd565b60405180910390f35b6102ee60048036038101906102e99190611402565b611088565b005b61030a600480360381019061030591906119d6565b61110c565b6040516103179190611802565b60405180910390f35b5f60015f9054906101000a900473ffffffffffffffffffffffffffffffffffffffff1673ffffffffffffffffffffffffffffffffffffffff16636f77926b336040518263ffffffff1660e01b815260040161037b9190611802565b5f60405180830381865afa158015610395573d5f5f3e3d5ffd5b505050506040513d5f823e3d601f19601f820116820180604052508101906103bd9190611b2f565b90505f815f01515111610405576040517f08c379a00000000000000000000000000000000000000000000000000000000081526004016103fc90611bc0565b60405180910390fd5b60035f3373ffffffffffffffffffffffffffffffffffffffff1673ffffffffffffffffffffffffffffffffffffffff1681526020019081526020015f205f9054906101000a900460ff161561048f576040517f08c379a000000000000000000000000000000000000000000000000000000000815260040161048690611c28565b60405180910390fd5b60028054905082106104d6576040517f08c379a00000000000000000000000000000000000000000000000000000000081526004016104cd90611c90565b60405180910390fd5b60055f8381526020019081526020015f2033908060018154018082558091505060019003905f5260205f20015f9091909190916101000a81548173ffffffffffffffffffffffffffffffffffffffff021916908373ffffffffffffffffffffffffffffffffffffffff1602179055506002828154811061055957610558611cae565b5b905f5260205f2090600302016002015f81548092919061057890611d08565b9190505550600160035f3373ffffffffffffffffffffffffffffffffffffffff1673ffffffffffffffffffffffffffffffffffffffff1681526020019081526020015f205f6101000a81548160ff0219169083151502179055508160045f3373ffffffffffffffffffffffffffffffffffffffff1673ffffffffffffffffffffffffffffffffffffffff1681526020019081526020015f20819055505050565b610620611154565b600260016002805490506106349190611d4f565b8154811061064557610644611cae565b5b905f5260205f2090600302016002828154811061066557610664611cae565b5b905f5260205f2090600302015f8201815f0190816106839190611f94565b50600182018160010190816106989190611f94565b506002820154816002015590505060028054806106b8576106b7612079565b5b600190038181905f5260205f2090600302015f5f82015f6106d991906112a3565b600182015f6106e891906112a3565b600282015f9055505090555f6106fd82610bca565b90505f5f90505b81518110156107e4575f60035f84848151811061072457610723611cae565b5b602002602001015173ffffffffffffffffffffffffffffffffffffffff1673ffffffffffffffffffffffffffffffffffffffff1681526020019081526020015f205f6101000a81548160ff0219169083151502179055505f60045f84848151811061079257610791611cae565b5b602002602001015173ffffffffffffffffffffffffffffffffffffffff1673ffffffffffffffffffffffffffffffffffffffff1681526020019081526020015f20819055508080600101915050610704565b5060055f8381526020019081526020015f205f61080191906112e0565b5050565b6003602052805f5260405f205f915054906101000a900460ff1681565b61082a611154565b60015f9054906101000a900473ffffffffffffffffffffffffffffffffffffffff1673ffffffffffffffffffffffffffffffffffffffff16634cc82215826040518263ffffffff1660e01b815260040161088491906119bd565b5f604051808303815f87803b15801561089b575f5ffd5b505af11580156108ad573d5f5f3e3d5ffd5b5050505050565b5f60035f3373ffffffffffffffffffffffffffffffffffffffff1673ffffffffffffffffffffffffffffffffffffffff1681526020019081526020015f205f9054906101000a900460ff16905090565b60606002805480602002602001604051908101604052809291908181526020015f905b82821015610a80578382905f5260205f2090600302016040518060600160405290815f8201805461095790611daf565b80601f016020809104026020016040519081016040528092919081815260200182805461098390611daf565b80156109ce5780601f106109a5576101008083540402835291602001916109ce565b820191905f5260205f20905b8154815290600101906020018083116109b157829003601f168201915b505050505081526020016001820180546109e790611daf565b80601f0160208091040260200160405190810160405280929190818152602001828054610a1390611daf565b8015610a5e5780601f10610a3557610100808354040283529160200191610a5e565b820191905f5260205f20905b815481529060010190602001808311610a4157829003601f168201915b5050505050815260200160028201548152505081526020019060010190610927565b50505050905090565b60028181548110610a98575f80fd5b905f5260205f2090600302015f91509050805f018054610ab790611daf565b80601f0160208091040260200160405190810160405280929190818152602001828054610ae390611daf565b8015610b2e5780601f10610b0557610100808354040283529160200191610b2e565b820191905f5260205f20905b815481529060010190602001808311610b1157829003601f168201915b505050505090806001018054610b4390611daf565b80601f0160208091040260200160405190810160405280929190818152602001828054610b6f90611daf565b8015610bba5780601f10610b9157610100808354040283529160200191610bba565b820191905f5260205f20905b815481529060010190602001808311610b9d57829003601f168201915b5050505050908060020154905083565b606060055f8381526020019081526020015f20805480602002602001604051908101604052809291908181526020018280548015610c5a57602002820191905f5260205f20905b815f9054906101000a900473ffffffffffffffffffffffffffffffffffffffff1673ffffffffffffffffffffffffffffffffffffffff1681526020019060010190808311610c11575b50505050509050919050565b610c6e611154565b610c775f6111db565b565b610c816112fe565b5f60025f81548110610c9657610c95611cae565b5b905f5260205f2090600302016040518060600160405290815f82018054610cbc90611daf565b80601f0160208091040260200160405190810160405280929190818152602001828054610ce890611daf565b8015610d335780601f10610d0a57610100808354040283529160200191610d33565b820191905f5260205f20905b815481529060010190602001808311610d1657829003601f168201915b50505050508152602001600182018054610d4c90611daf565b80601f0160208091040260200160405190810160405280929190818152602001828054610d7890611daf565b8015610dc35780601f10610d9a57610100808354040283529160200191610dc3565b820191905f5260205f20905b815481529060010190602001808311610da657829003601f168201915b5050505050815260200160028201548152505090505f600190505b600280549050811015610f7e5760028181548110610dff57610dfe611cae565b5b905f5260205f2090600302016002015482604001511015610f715760028181548110610e2e57610e2d611cae565b5b905f5260205f2090600302016040518060600160405290815f82018054610e5490611daf565b80601f0160208091040260200160405190810160405280929190818152602001828054610e8090611daf565b8015610ecb5780601f10610ea257610100808354040283529160200191610ecb565b820191905f5260205f20905b815481529060010190602001808311610eae57829003601f168201915b50505050508152602001600182018054610ee490611daf565b80601f0160208091040260200160405190810160405280929190818152602001828054610f1090611daf565b8015610f5b5780601f10610f3257610100808354040283529160200191610f5b565b820191905f5260205f20905b815481529060010190602001808311610f3e57829003601f168201915b5050505050815260200160028201548152505091505b8080600101915050610dde565b508091505090565b5f5f5f9054906101000a900473ffffffffffffffffffffffffffffffffffffffff16905090565b5f610fb6610f86565b73ffffffffffffffffffffffffffffffffffffffff163373ffffffffffffffffffffffffffffffffffffffff1614905090565b610ff1611154565b5f60405180606001604052808481526020018381526020015f8152509050600281908060018154018082558091505060019003905f5260205f2090600302015f909190919091505f820151815f01908161104b91906120a6565b50602082015181600101908161106191906120a6565b50604082015181600201555050505050565b6004602052805f5260405f205f915090505481565b611090611154565b5f73ffffffffffffffffffffffffffffffffffffffff168173ffffffffffffffffffffffffffffffffffffffff1603611100575f6040517f1e4fbdf70000000000000000000000000000000000000000000000000000000081526004016110f79190611802565b60405180910390fd5b611109816111db565b50565b6005602052815f5260405f208181548110611125575f80fd5b905f5260205f20015f915091509054906101000a900473ffffffffffffffffffffffffffffffffffffffff1681565b61115c61129c565b73ffffffffffffffffffffffffffffffffffffffff1661117a610f86565b73ffffffffffffffffffffffffffffffffffffffff16146111d95761119d61129c565b6040517f118cdaa70000000000000000000000000000000000000000000000000000000081526004016111d09190611802565b60405180910390fd5b565b5f5f5f9054906101000a900473ffffffffffffffffffffffffffffffffffffffff169050815f5f6101000a81548173ffffffffffffffffffffffffffffffffffffffff021916908373ffffffffffffffffffffffffffffffffffffffff1602179055508173ffffffffffffffffffffffffffffffffffffffff168173ffffffffffffffffffffffffffffffffffffffff167f8be0079c531659141344cd1fd0a4f28419497f9722a3daafe3b4186f6b6457e060405160405180910390a35050565b5f33905090565b5080546112af90611daf565b5f825580601f106112c057506112dd565b601f0160209004905f5260205f20908101906112dc919061131e565b5b50565b5080545f8255905f5260205f20908101906112fb919061131e565b50565b604051806060016040528060608152602001606081526020015f81525090565b5b80821115611335575f815f90555060010161131f565b5090565b5f604051905090565b5f5ffd5b5f5ffd5b5f819050919050565b61135c8161134a565b8114611366575f5ffd5b50565b5f8135905061137781611353565b92915050565b5f6020828403121561139257611391611342565b5b5f61139f84828501611369565b91505092915050565b5f73ffffffffffffffffffffffffffffffffffffffff82169050919050565b5f6113d1826113a8565b9050919050565b6113e1816113c7565b81146113eb575f5ffd5b50565b5f813590506113fc816113d8565b92915050565b5f6020828403121561141757611416611342565b5b5f611424848285016113ee565b91505092915050565b5f8115159050919050565b6114418161142d565b82525050565b5f60208201905061145a5f830184611438565b92915050565b5f81519050919050565b5f82825260208201905092915050565b5f819050602082019050919050565b5f81519050919050565b5f82825260208201905092915050565b8281835e5f83830152505050565b5f601f19601f8301169050919050565b5f6114cb82611489565b6114d58185611493565b93506114e58185602086016114a3565b6114ee816114b1565b840191505092915050565b6115028161134a565b82525050565b5f606083015f8301518482035f86015261152282826114c1565b9150506020830151848203602086015261153c82826114c1565b915050604083015161155160408601826114f9565b508091505092915050565b5f6115678383611508565b905092915050565b5f602082019050919050565b5f61158582611460565b61158f818561146a565b9350836020820285016115a18561147a565b805f5b858110156115dc57848403895281516115bd858261155c565b94506115c88361156f565b925060208a019950506001810190506115a4565b50829750879550505050505092915050565b5f6020820190508181035f830152611606818461157b565b905092915050565b5f82825260208201905092915050565b5f61162882611489565b611632818561160e565b93506116428185602086016114a3565b61164b816114b1565b840191505092915050565b61165f8161134a565b82525050565b5f6060820190508181035f83015261167d818661161e565b90508181036020830152611691818561161e565b90506116a06040830184611656565b949350505050565b5f81519050919050565b5f82825260208201905092915050565b5f819050602082019050919050565b6116da816113c7565b82525050565b5f6116eb83836116d1565b60208301905092915050565b5f602082019050919050565b5f61170d826116a8565b61171781856116b2565b9350611722836116c2565b805f5b8381101561175257815161173988826116e0565b9750611744836116f7565b925050600181019050611725565b5085935050505092915050565b5f6020820190508181035f8301526117778184611703565b905092915050565b5f606083015f8301518482035f86015261179982826114c1565b915050602083015184820360208601526117b382826114c1565b91505060408301516117c860408601826114f9565b508091505092915050565b5f6020820190508181035f8301526117eb818461177f565b905092915050565b6117fc816113c7565b82525050565b5f6020820190506118155f8301846117f3565b92915050565b5f5ffd5b5f5ffd5b7f4e487b71000000000000000000000000000000000000000000000000000000005f52604160045260245ffd5b611859826114b1565b810181811067ffffffffffffffff8211171561187857611877611823565b5b80604052505050565b5f61188a611339565b90506118968282611850565b919050565b5f67ffffffffffffffff8211156118b5576118b4611823565b5b6118be826114b1565b9050602081019050919050565b828183375f83830152505050565b5f6118eb6118e68461189b565b611881565b9050828152602081018484840111156119075761190661181f565b5b6119128482856118cb565b509392505050565b5f82601f83011261192e5761192d61181b565b5b813561193e8482602086016118d9565b91505092915050565b5f5f6040838503121561195d5761195c611342565b5b5f83013567ffffffffffffffff81111561197a57611979611346565b5b6119868582860161191a565b925050602083013567ffffffffffffffff8111156119a7576119a6611346565b5b6119b38582860161191a565b9150509250929050565b5f6020820190506119d05f830184611656565b92915050565b5f5f604083850312156119ec576119eb611342565b5b5f6119f985828601611369565b9250506020611a0a85828601611369565b9150509250929050565b5f5ffd5b5f5ffd5b5f611a2e611a298461189b565b611881565b905082815260208101848484011115611a4a57611a4961181f565b5b611a558482856114a3565b509392505050565b5f82601f830112611a7157611a7061181b565b5b8151611a81848260208601611a1c565b91505092915050565b5f81519050611a9881611353565b92915050565b5f81519050611aac816113d8565b92915050565b5f60608284031215611ac757611ac6611a14565b5b611ad16060611881565b90505f82015167ffffffffffffffff811115611af057611aef611a18565b5b611afc84828501611a5d565b5f830152506020611b0f84828501611a8a565b6020830152506040611b2384828501611a9e565b60408301525092915050565b5f60208284031215611b4457611b43611342565b5b5f82015167ffffffffffffffff811115611b6157611b60611346565b5b611b6d84828501611ab2565b91505092915050565b7f546869732075736572206973206e6f74206578697374000000000000000000005f82015250565b5f611baa60168361160e565b9150611bb582611b76565b602082019050919050565b5f6020820190508181035f830152611bd781611b9e565b9050919050565b7f5468697320706572736f6e20616c726561647920766f746564000000000000005f82015250565b5f611c1260198361160e565b9150611c1d82611bde565b602082019050919050565b5f6020820190508181035f830152611c3f81611c06565b9050919050565b7f496e76616c69642063616e6469646174650000000000000000000000000000005f82015250565b5f611c7a60118361160e565b9150611c8582611c46565b602082019050919050565b5f6020820190508181035f830152611ca781611c6e565b9050919050565b7f4e487b71000000000000000000000000000000000000000000000000000000005f52603260045260245ffd5b7f4e487b71000000000000000000000000000000000000000000000000000000005f52601160045260245ffd5b5f611d128261134a565b91507fffffffffffffffffffffffffffffffffffffffffffffffffffffffffffffffff8203611d4457611d43611cdb565b5b600182019050919050565b5f611d598261134a565b9150611d648361134a565b9250828203905081811115611d7c57611d7b611cdb565b5b92915050565b7f4e487b71000000000000000000000000000000000000000000000000000000005f52602260045260245ffd5b5f6002820490506001821680611dc657607f821691505b602082108103611dd957611dd8611d82565b5b50919050565b5f81549050611ded81611daf565b9050919050565b5f819050815f5260205f209050919050565b5f6020601f8301049050919050565b5f82821b905092915050565b5f60088302611e507fffffffffffffffffffffffffffffffffffffffffffffffffffffffffffffffff82611e15565b611e5a8683611e15565b95508019841693508086168417925050509392505050565b5f819050919050565b5f611e95611e90611e8b8461134a565b611e72565b61134a565b9050919050565b5f819050919050565b611eae83611e7b565b611ec2611eba82611e9c565b848454611e21565b825550505050565b5f5f905090565b611ed9611eca565b611ee4818484611ea5565b505050565b5b81811015611f0757611efc5f82611ed1565b600181019050611eea565b5050565b601f821115611f4c57611f1d81611df4565b611f2684611e06565b81016020851015611f35578190505b611f49611f4185611e06565b830182611ee9565b50505b505050565b5f82821c905092915050565b5f611f6c5f1984600802611f51565b1980831691505092915050565b5f611f848383611f5d565b9150826002028217905092915050565b818103611fa2575050612077565b611fab82611ddf565b67ffffffffffffffff811115611fc457611fc3611823565b5b611fce8254611daf565b611fd9828285611f0b565b5f601f831160018114612006575f8415611ff4578287015490505b611ffe8582611f79565b865550612070565b601f19841661201487611df4565b965061201f86611df4565b5f5b8281101561204657848901548255600182019150600185019450602081019050612021565b86831015612063578489015461205f601f891682611f5d565b8355505b6001600288020188555050505b5050505050505b565b7f4e487b71000000000000000000000000000000000000000000000000000000005f52603160045260245ffd5b6120af82611489565b67ffffffffffffffff8111156120c8576120c7611823565b5b6120d28254611daf565b6120dd828285611f0b565b5f60209050601f83116001811461210e575f84156120fc578287015190505b6121068582611f79565b86555061216d565b601f19841661211c86611df4565b5f5b828110156121435784890151825560018201915060208501945060208101905061211e565b86831015612160578489015161215c601f891682611f5d565b8355505b6001600288020188555050505b50505050505056fea26469706673582212208b09e85962a90fabb19ced8f554330351731816dbd2aa72d1ad976835b81fd7464736f6c634300081c0033",
					"opcodes": "PUSH1 0x80 PUSH1 0x40 MSTORE CALLVALUE DUP1 ISZERO PUSH2 0xF JUMPI PUSH0 PUSH0 REVERT JUMPDEST POP PUSH1 0x40 MLOAD PUSH2 0x2422 CODESIZE SUB DUP1 PUSH2 0x2422 DUP4 CODECOPY DUP2 DUP2 ADD PUSH1 0x40 MSTORE DUP2 ADD SWAP1 PUSH2 0x31 SWAP2 SWAP1 PUSH2 0x217 JUMP JUMPDEST CALLER PUSH0 PUSH20 0xFFFFFFFFFFFFFFFFFFFFFFFFFFFFFFFFFFFFFFFF AND DUP2 PUSH20 0xFFFFFFFFFFFFFFFFFFFFFFFFFFFFFFFFFFFFFFFF AND SUB PUSH2 0xA2 JUMPI PUSH0 PUSH1 0x40 MLOAD PUSH32 0x1E4FBDF700000000000000000000000000000000000000000000000000000000 DUP2 MSTORE PUSH1 0x4 ADD PUSH2 0x99 SWAP2 SWAP1 PUSH2 0x251 JUMP JUMPDEST PUSH1 0x40 MLOAD DUP1 SWAP2 SUB SWAP1 REVERT JUMPDEST PUSH2 0xB1 DUP2 PUSH2 0xF8 PUSH1 0x20 SHL PUSH1 0x20 SHR JUMP JUMPDEST POP DUP1 PUSH1 0x1 PUSH0 PUSH2 0x100 EXP DUP2 SLOAD DUP2 PUSH20 0xFFFFFFFFFFFFFFFFFFFFFFFFFFFFFFFFFFFFFFFF MUL NOT AND SWAP1 DUP4 PUSH20 0xFFFFFFFFFFFFFFFFFFFFFFFFFFFFFFFFFFFFFFFF AND MUL OR SWAP1 SSTORE POP POP PUSH2 0x26A JUMP JUMPDEST PUSH0 PUSH0 PUSH0 SWAP1 SLOAD SWAP1 PUSH2 0x100 EXP SWAP1 DIV PUSH20 0xFFFFFFFFFFFFFFFFFFFFFFFFFFFFFFFFFFFFFFFF AND SWAP1 POP DUP2 PUSH0 PUSH0 PUSH2 0x100 EXP DUP2 SLOAD DUP2 PUSH20 0xFFFFFFFFFFFFFFFFFFFFFFFFFFFFFFFFFFFFFFFF MUL NOT AND SWAP1 DUP4 PUSH20 0xFFFFFFFFFFFFFFFFFFFFFFFFFFFFFFFFFFFFFFFF AND MUL OR SWAP1 SSTORE POP DUP2 PUSH20 0xFFFFFFFFFFFFFFFFFFFFFFFFFFFFFFFFFFFFFFFF AND DUP2 PUSH20 0xFFFFFFFFFFFFFFFFFFFFFFFFFFFFFFFFFFFFFFFF AND PUSH32 0x8BE0079C531659141344CD1FD0A4F28419497F9722A3DAAFE3B4186F6B6457E0 PUSH1 0x40 MLOAD PUSH1 0x40 MLOAD DUP1 SWAP2 SUB SWAP1 LOG3 POP POP JUMP JUMPDEST PUSH0 PUSH0 REVERT JUMPDEST PUSH0 PUSH20 0xFFFFFFFFFFFFFFFFFFFFFFFFFFFFFFFFFFFFFFFF DUP3 AND SWAP1 POP SWAP2 SWAP1 POP JUMP JUMPDEST PUSH0 PUSH2 0x1E6 DUP3 PUSH2 0x1BD JUMP JUMPDEST SWAP1 POP SWAP2 SWAP1 POP JUMP JUMPDEST PUSH2 0x1F6 DUP2 PUSH2 0x1DC JUMP JUMPDEST DUP2 EQ PUSH2 0x200 JUMPI PUSH0 PUSH0 REVERT JUMPDEST POP JUMP JUMPDEST PUSH0 DUP2 MLOAD SWAP1 POP PUSH2 0x211 DUP2 PUSH2 0x1ED JUMP JUMPDEST SWAP3 SWAP2 POP POP JUMP JUMPDEST PUSH0 PUSH1 0x20 DUP3 DUP5 SUB SLT ISZERO PUSH2 0x22C JUMPI PUSH2 0x22B PUSH2 0x1B9 JUMP JUMPDEST JUMPDEST PUSH0 PUSH2 0x239 DUP5 DUP3 DUP6 ADD PUSH2 0x203 JUMP JUMPDEST SWAP2 POP POP SWAP3 SWAP2 POP POP JUMP JUMPDEST PUSH2 0x24B DUP2 PUSH2 0x1DC JUMP JUMPDEST DUP3 MSTORE POP POP JUMP JUMPDEST PUSH0 PUSH1 0x20 DUP3 ADD SWAP1 POP PUSH2 0x264 PUSH0 DUP4 ADD DUP5 PUSH2 0x242 JUMP JUMPDEST SWAP3 SWAP2 POP POP JUMP JUMPDEST PUSH2 0x21AB DUP1 PUSH2 0x277 PUSH0 CODECOPY PUSH0 RETURN INVALID PUSH1 0x80 PUSH1 0x40 MSTORE CALLVALUE DUP1 ISZERO PUSH2 0xF JUMPI PUSH0 PUSH0 REVERT JUMPDEST POP PUSH1 0x4 CALLDATASIZE LT PUSH2 0xFE JUMPI PUSH0 CALLDATALOAD PUSH1 0xE0 SHR DUP1 PUSH4 0x715018A6 GT PUSH2 0x95 JUMPI DUP1 PUSH4 0x9AB1C0ED GT PUSH2 0x64 JUMPI DUP1 PUSH4 0x9AB1C0ED EQ PUSH2 0x288 JUMPI DUP1 PUSH4 0xAD84C2DA EQ PUSH2 0x2A4 JUMPI DUP1 PUSH4 0xF2FDE38B EQ PUSH2 0x2D4 JUMPI DUP1 PUSH4 0xFBA00CBD EQ PUSH2 0x2F0 JUMPI PUSH2 0xFE JUMP JUMPDEST DUP1 PUSH4 0x715018A6 EQ PUSH2 0x224 JUMPI DUP1 PUSH4 0x8312FEB3 EQ PUSH2 0x22E JUMPI DUP1 PUSH4 0x8DA5CB5B EQ PUSH2 0x24C JUMPI DUP1 PUSH4 0x8FD26F89 EQ PUSH2 0x26A JUMPI PUSH2 0xFE JUMP JUMPDEST DUP1 PUSH4 0x1234CE9D GT PUSH2 0xD1 JUMPI DUP1 PUSH4 0x1234CE9D EQ PUSH2 0x186 JUMPI DUP1 PUSH4 0x2E6997FE EQ PUSH2 0x1A4 JUMPI DUP1 PUSH4 0x3477EE2E EQ PUSH2 0x1C2 JUMPI DUP1 PUSH4 0x4521083F EQ PUSH2 0x1F4 JUMPI PUSH2 0xFE JUMP JUMPDEST DUP1 PUSH4 0x121B93F EQ PUSH2 0x102 JUMPI DUP1 PUSH4 0x9E9D7E2 EQ PUSH2 0x11E JUMPI DUP1 PUSH4 0x9EEF43E EQ PUSH2 0x13A JUMPI DUP1 PUSH4 0x11DC4703 EQ PUSH2 0x16A JUMPI JUMPDEST PUSH0 PUSH0 REVERT JUMPDEST PUSH2 0x11C PUSH1 0x4 DUP1 CALLDATASIZE SUB DUP2 ADD SWAP1 PUSH2 0x117 SWAP2 SWAP1 PUSH2 0x137D JUMP JUMPDEST PUSH2 0x320 JUMP JUMPDEST STOP JUMPDEST PUSH2 0x138 PUSH1 0x4 DUP1 CALLDATASIZE SUB DUP2 ADD SWAP1 PUSH2 0x133 SWAP2 SWAP1 PUSH2 0x137D JUMP JUMPDEST PUSH2 0x618 JUMP JUMPDEST STOP JUMPDEST PUSH2 0x154 PUSH1 0x4 DUP1 CALLDATASIZE SUB DUP2 ADD SWAP1 PUSH2 0x14F SWAP2 SWAP1 PUSH2 0x1402 JUMP JUMPDEST PUSH2 0x805 JUMP JUMPDEST PUSH1 0x40 MLOAD PUSH2 0x161 SWAP2 SWAP1 PUSH2 0x1447 JUMP JUMPDEST PUSH1 0x40 MLOAD DUP1 SWAP2 SUB SWAP1 RETURN JUMPDEST PUSH2 0x184 PUSH1 0x4 DUP1 CALLDATASIZE SUB DUP2 ADD SWAP1 PUSH2 0x17F SWAP2 SWAP1 PUSH2 0x137D JUMP JUMPDEST PUSH2 0x822 JUMP JUMPDEST STOP JUMPDEST PUSH2 0x18E PUSH2 0x8B4 JUMP JUMPDEST PUSH1 0x40 MLOAD PUSH2 0x19B SWAP2 SWAP1 PUSH2 0x1447 JUMP JUMPDEST PUSH1 0x40 MLOAD DUP1 SWAP2 SUB SWAP1 RETURN JUMPDEST PUSH2 0x1AC PUSH2 0x904 JUMP JUMPDEST PUSH1 0x40 MLOAD PUSH2 0x1B9 SWAP2 SWAP1 PUSH2 0x15EE JUMP JUMPDEST PUSH1 0x40 MLOAD DUP1 SWAP2 SUB SWAP1 RETURN JUMPDEST PUSH2 0x1DC PUSH1 0x4 DUP1 CALLDATASIZE SUB DUP2 ADD SWAP1 PUSH2 0x1D7 SWAP2 SWAP1 PUSH2 0x137D JUMP JUMPDEST PUSH2 0xA89 JUMP JUMPDEST PUSH1 0x40 MLOAD PUSH2 0x1EB SWAP4 SWAP3 SWAP2 SWAP1 PUSH2 0x1665 JUMP JUMPDEST PUSH1 0x40 MLOAD DUP1 SWAP2 SUB SWAP1 RETURN JUMPDEST PUSH2 0x20E PUSH1 0x4 DUP1 CALLDATASIZE SUB DUP2 ADD SWAP1 PUSH2 0x209 SWAP2 SWAP1 PUSH2 0x137D JUMP JUMPDEST PUSH2 0xBCA JUMP JUMPDEST PUSH1 0x40 MLOAD PUSH2 0x21B SWAP2 SWAP1 PUSH2 0x175F JUMP JUMPDEST PUSH1 0x40 MLOAD DUP1 SWAP2 SUB SWAP1 RETURN JUMPDEST PUSH2 0x22C PUSH2 0xC66 JUMP JUMPDEST STOP JUMPDEST PUSH2 0x236 PUSH2 0xC79 JUMP JUMPDEST PUSH1 0x40 MLOAD PUSH2 0x243 SWAP2 SWAP1 PUSH2 0x17D3 JUMP JUMPDEST PUSH1 0x40 MLOAD DUP1 SWAP2 SUB SWAP1 RETURN JUMPDEST PUSH2 0x254 PUSH2 0xF86 JUMP JUMPDEST PUSH1 0x40 MLOAD PUSH2 0x261 SWAP2 SWAP1 PUSH2 0x1802 JUMP JUMPDEST PUSH1 0x40 MLOAD DUP1 SWAP2 SUB SWAP1 RETURN JUMPDEST PUSH2 0x272 PUSH2 0xFAD JUMP JUMPDEST PUSH1 0x40 MLOAD PUSH2 0x27F SWAP2 SWAP1 PUSH2 0x1447 JUMP JUMPDEST PUSH1 0x40 MLOAD DUP1 SWAP2 SUB SWAP1 RETURN JUMPDEST PUSH2 0x2A2 PUSH1 0x4 DUP1 CALLDATASIZE SUB DUP2 ADD SWAP1 PUSH2 0x29D SWAP2 SWAP1 PUSH2 0x1947 JUMP JUMPDEST PUSH2 0xFE9 JUMP JUMPDEST STOP JUMPDEST PUSH2 0x2BE PUSH1 0x4 DUP1 CALLDATASIZE SUB DUP2 ADD SWAP1 PUSH2 0x2B9 SWAP2 SWAP1 PUSH2 0x1402 JUMP JUMPDEST PUSH2 0x1073 JUMP JUMPDEST PUSH1 0x40 MLOAD PUSH2 0x2CB SWAP2 SWAP1 PUSH2 0x19BD JUMP JUMPDEST PUSH1 0x40 MLOAD DUP1 SWAP2 SUB SWAP1 RETURN JUMPDEST PUSH2 0x2EE PUSH1 0x4 DUP1 CALLDATASIZE SUB DUP2 ADD SWAP1 PUSH2 0x2E9 SWAP2 SWAP1 PUSH2 0x1402 JUMP JUMPDEST PUSH2 0x1088 JUMP JUMPDEST STOP JUMPDEST PUSH2 0x30A PUSH1 0x4 DUP1 CALLDATASIZE SUB DUP2 ADD SWAP1 PUSH2 0x305 SWAP2 SWAP1 PUSH2 0x19D6 JUMP JUMPDEST PUSH2 0x110C JUMP JUMPDEST PUSH1 0x40 MLOAD PUSH2 0x317 SWAP2 SWAP1 PUSH2 0x1802 JUMP JUMPDEST PUSH1 0x40 MLOAD DUP1 SWAP2 SUB SWAP1 RETURN JUMPDEST PUSH0 PUSH1 0x1 PUSH0 SWAP1 SLOAD SWAP1 PUSH2 0x100 EXP SWAP1 DIV PUSH20 0xFFFFFFFFFFFFFFFFFFFFFFFFFFFFFFFFFFFFFFFF AND PUSH20 0xFFFFFFFFFFFFFFFFFFFFFFFFFFFFFFFFFFFFFFFF AND PUSH4 0x6F77926B CALLER PUSH1 0x40 MLOAD DUP3 PUSH4 0xFFFFFFFF AND PUSH1 0xE0 SHL DUP2 MSTORE PUSH1 0x4 ADD PUSH2 0x37B SWAP2 SWAP1 PUSH2 0x1802 JUMP JUMPDEST PUSH0 PUSH1 0x40 MLOAD DUP1 DUP4 SUB DUP2 DUP7 GAS STATICCALL ISZERO DUP1 ISZERO PUSH2 0x395 JUMPI RETURNDATASIZE PUSH0 PUSH0 RETURNDATACOPY RETURNDATASIZE PUSH0 REVERT JUMPDEST POP POP POP POP PUSH1 0x40 MLOAD RETURNDATASIZE PUSH0 DUP3 RETURNDATACOPY RETURNDATASIZE PUSH1 0x1F NOT PUSH1 0x1F DUP3 ADD AND DUP3 ADD DUP1 PUSH1 0x40 MSTORE POP DUP2 ADD SWAP1 PUSH2 0x3BD SWAP2 SWAP1 PUSH2 0x1B2F JUMP JUMPDEST SWAP1 POP PUSH0 DUP2 PUSH0 ADD MLOAD MLOAD GT PUSH2 0x405 JUMPI PUSH1 0x40 MLOAD PUSH32 0x8C379A000000000000000000000000000000000000000000000000000000000 DUP2 MSTORE PUSH1 0x4 ADD PUSH2 0x3FC SWAP1 PUSH2 0x1BC0 JUMP JUMPDEST PUSH1 0x40 MLOAD DUP1 SWAP2 SUB SWAP1 REVERT JUMPDEST PUSH1 0x3 PUSH0 CALLER PUSH20 0xFFFFFFFFFFFFFFFFFFFFFFFFFFFFFFFFFFFFFFFF AND PUSH20 0xFFFFFFFFFFFFFFFFFFFFFFFFFFFFFFFFFFFFFFFF AND DUP2 MSTORE PUSH1 0x20 ADD SWAP1 DUP2 MSTORE PUSH1 0x20 ADD PUSH0 KECCAK256 PUSH0 SWAP1 SLOAD SWAP1 PUSH2 0x100 EXP SWAP1 DIV PUSH1 0xFF AND ISZERO PUSH2 0x48F JUMPI PUSH1 0x40 MLOAD PUSH32 0x8C379A000000000000000000000000000000000000000000000000000000000 DUP2 MSTORE PUSH1 0x4 ADD PUSH2 0x486 SWAP1 PUSH2 0x1C28 JUMP JUMPDEST PUSH1 0x40 MLOAD DUP1 SWAP2 SUB SWAP1 REVERT JUMPDEST PUSH1 0x2 DUP1 SLOAD SWAP1 POP DUP3 LT PUSH2 0x4D6 JUMPI PUSH1 0x40 MLOAD PUSH32 0x8C379A000000000000000000000000000000000000000000000000000000000 DUP2 MSTORE PUSH1 0x4 ADD PUSH2 0x4CD SWAP1 PUSH2 0x1C90 JUMP JUMPDEST PUSH1 0x40 MLOAD DUP1 SWAP2 SUB SWAP1 REVERT JUMPDEST PUSH1 0x5 PUSH0 DUP4 DUP2 MSTORE PUSH1 0x20 ADD SWAP1 DUP2 MSTORE PUSH1 0x20 ADD PUSH0 KECCAK256 CALLER SWAP1 DUP1 PUSH1 0x1 DUP2 SLOAD ADD DUP1 DUP3 SSTORE DUP1 SWAP2 POP POP PUSH1 0x1 SWAP1 SUB SWAP1 PUSH0 MSTORE PUSH1 0x20 PUSH0 KECCAK256 ADD PUSH0 SWAP1 SWAP2 SWAP1 SWAP2 SWAP1 SWAP2 PUSH2 0x100 EXP DUP2 SLOAD DUP2 PUSH20 0xFFFFFFFFFFFFFFFFFFFFFFFFFFFFFFFFFFFFFFFF MUL NOT AND SWAP1 DUP4 PUSH20 0xFFFFFFFFFFFFFFFFFFFFFFFFFFFFFFFFFFFFFFFF AND MUL OR SWAP1 SSTORE POP PUSH1 0x2 DUP3 DUP2 SLOAD DUP2 LT PUSH2 0x559 JUMPI PUSH2 0x558 PUSH2 0x1CAE JUMP JUMPDEST JUMPDEST SWAP1 PUSH0 MSTORE PUSH1 0x20 PUSH0 KECCAK256 SWAP1 PUSH1 0x3 MUL ADD PUSH1 0x2 ADD PUSH0 DUP2 SLOAD DUP1 SWAP3 SWAP2 SWAP1 PUSH2 0x578 SWAP1 PUSH2 0x1D08 JUMP JUMPDEST SWAP2 SWAP1 POP SSTORE POP PUSH1 0x1 PUSH1 0x3 PUSH0 CALLER PUSH20 0xFFFFFFFFFFFFFFFFFFFFFFFFFFFFFFFFFFFFFFFF AND PUSH20 0xFFFFFFFFFFFFFFFFFFFFFFFFFFFFFFFFFFFFFFFF AND DUP2 MSTORE PUSH1 0x20 ADD SWAP1 DUP2 MSTORE PUSH1 0x20 ADD PUSH0 KECCAK256 PUSH0 PUSH2 0x100 EXP DUP2 SLOAD DUP2 PUSH1 0xFF MUL NOT AND SWAP1 DUP4 ISZERO ISZERO MUL OR SWAP1 SSTORE POP DUP2 PUSH1 0x4 PUSH0 CALLER PUSH20 0xFFFFFFFFFFFFFFFFFFFFFFFFFFFFFFFFFFFFFFFF AND PUSH20 0xFFFFFFFFFFFFFFFFFFFFFFFFFFFFFFFFFFFFFFFF AND DUP2 MSTORE PUSH1 0x20 ADD SWAP1 DUP2 MSTORE PUSH1 0x20 ADD PUSH0 KECCAK256 DUP2 SWAP1 SSTORE POP POP POP JUMP JUMPDEST PUSH2 0x620 PUSH2 0x1154 JUMP JUMPDEST PUSH1 0x2 PUSH1 0x1 PUSH1 0x2 DUP1 SLOAD SWAP1 POP PUSH2 0x634 SWAP2 SWAP1 PUSH2 0x1D4F JUMP JUMPDEST DUP2 SLOAD DUP2 LT PUSH2 0x645 JUMPI PUSH2 0x644 PUSH2 0x1CAE JUMP JUMPDEST JUMPDEST SWAP1 PUSH0 MSTORE PUSH1 0x20 PUSH0 KECCAK256 SWAP1 PUSH1 0x3 MUL ADD PUSH1 0x2 DUP3 DUP2 SLOAD DUP2 LT PUSH2 0x665 JUMPI PUSH2 0x664 PUSH2 0x1CAE JUMP JUMPDEST JUMPDEST SWAP1 PUSH0 MSTORE PUSH1 0x20 PUSH0 KECCAK256 SWAP1 PUSH1 0x3 MUL ADD PUSH0 DUP3 ADD DUP2 PUSH0 ADD SWAP1 DUP2 PUSH2 0x683 SWAP2 SWAP1 PUSH2 0x1F94 JUMP JUMPDEST POP PUSH1 0x1 DUP3 ADD DUP2 PUSH1 0x1 ADD SWAP1 DUP2 PUSH2 0x698 SWAP2 SWAP1 PUSH2 0x1F94 JUMP JUMPDEST POP PUSH1 0x2 DUP3 ADD SLOAD DUP2 PUSH1 0x2 ADD SSTORE SWAP1 POP POP PUSH1 0x2 DUP1 SLOAD DUP1 PUSH2 0x6B8 JUMPI PUSH2 0x6B7 PUSH2 0x2079 JUMP JUMPDEST JUMPDEST PUSH1 0x1 SWAP1 SUB DUP2 DUP2 SWAP1 PUSH0 MSTORE PUSH1 0x20 PUSH0 KECCAK256 SWAP1 PUSH1 0x3 MUL ADD PUSH0 PUSH0 DUP3 ADD PUSH0 PUSH2 0x6D9 SWAP2 SWAP1 PUSH2 0x12A3 JUMP JUMPDEST PUSH1 0x1 DUP3 ADD PUSH0 PUSH2 0x6E8 SWAP2 SWAP1 PUSH2 0x12A3 JUMP JUMPDEST PUSH1 0x2 DUP3 ADD PUSH0 SWAP1 SSTORE POP POP SWAP1 SSTORE PUSH0 PUSH2 0x6FD DUP3 PUSH2 0xBCA JUMP JUMPDEST SWAP1 POP PUSH0 PUSH0 SWAP1 POP JUMPDEST DUP2 MLOAD DUP2 LT ISZERO PUSH2 0x7E4 JUMPI PUSH0 PUSH1 0x3 PUSH0 DUP5 DUP5 DUP2 MLOAD DUP2 LT PUSH2 0x724 JUMPI PUSH2 0x723 PUSH2 0x1CAE JUMP JUMPDEST JUMPDEST PUSH1 0x20 MUL PUSH1 0x20 ADD ADD MLOAD PUSH20 0xFFFFFFFFFFFFFFFFFFFFFFFFFFFFFFFFFFFFFFFF AND PUSH20 0xFFFFFFFFFFFFFFFFFFFFFFFFFFFFFFFFFFFFFFFF AND DUP2 MSTORE PUSH1 0x20 ADD SWAP1 DUP2 MSTORE PUSH1 0x20 ADD PUSH0 KECCAK256 PUSH0 PUSH2 0x100 EXP DUP2 SLOAD DUP2 PUSH1 0xFF MUL NOT AND SWAP1 DUP4 ISZERO ISZERO MUL OR SWAP1 SSTORE POP PUSH0 PUSH1 0x4 PUSH0 DUP5 DUP5 DUP2 MLOAD DUP2 LT PUSH2 0x792 JUMPI PUSH2 0x791 PUSH2 0x1CAE JUMP JUMPDEST JUMPDEST PUSH1 0x20 MUL PUSH1 0x20 ADD ADD MLOAD PUSH20 0xFFFFFFFFFFFFFFFFFFFFFFFFFFFFFFFFFFFFFFFF AND PUSH20 0xFFFFFFFFFFFFFFFFFFFFFFFFFFFFFFFFFFFFFFFF AND DUP2 MSTORE PUSH1 0x20 ADD SWAP1 DUP2 MSTORE PUSH1 0x20 ADD PUSH0 KECCAK256 DUP2 SWAP1 SSTORE POP DUP1 DUP1 PUSH1 0x1 ADD SWAP2 POP POP PUSH2 0x704 JUMP JUMPDEST POP PUSH1 0x5 PUSH0 DUP4 DUP2 MSTORE PUSH1 0x20 ADD SWAP1 DUP2 MSTORE PUSH1 0x20 ADD PUSH0 KECCAK256 PUSH0 PUSH2 0x801 SWAP2 SWAP1 PUSH2 0x12E0 JUMP JUMPDEST POP POP JUMP JUMPDEST PUSH1 0x3 PUSH1 0x20 MSTORE DUP1 PUSH0 MSTORE PUSH1 0x40 PUSH0 KECCAK256 PUSH0 SWAP2 POP SLOAD SWAP1 PUSH2 0x100 EXP SWAP1 DIV PUSH1 0xFF AND DUP2 JUMP JUMPDEST PUSH2 0x82A PUSH2 0x1154 JUMP JUMPDEST PUSH1 0x1 PUSH0 SWAP1 SLOAD SWAP1 PUSH2 0x100 EXP SWAP1 DIV PUSH20 0xFFFFFFFFFFFFFFFFFFFFFFFFFFFFFFFFFFFFFFFF AND PUSH20 0xFFFFFFFFFFFFFFFFFFFFFFFFFFFFFFFFFFFFFFFF AND PUSH4 0x4CC82215 DUP3 PUSH1 0x40 MLOAD DUP3 PUSH4 0xFFFFFFFF AND PUSH1 0xE0 SHL DUP2 MSTORE PUSH1 0x4 ADD PUSH2 0x884 SWAP2 SWAP1 PUSH2 0x19BD JUMP JUMPDEST PUSH0 PUSH1 0x40 MLOAD DUP1 DUP4 SUB DUP2 PUSH0 DUP8 DUP1 EXTCODESIZE ISZERO DUP1 ISZERO PUSH2 0x89B JUMPI PUSH0 PUSH0 REVERT JUMPDEST POP GAS CALL ISZERO DUP1 ISZERO PUSH2 0x8AD JUMPI RETURNDATASIZE PUSH0 PUSH0 RETURNDATACOPY RETURNDATASIZE PUSH0 REVERT JUMPDEST POP POP POP POP POP JUMP JUMPDEST PUSH0 PUSH1 0x3 PUSH0 CALLER PUSH20 0xFFFFFFFFFFFFFFFFFFFFFFFFFFFFFFFFFFFFFFFF AND PUSH20 0xFFFFFFFFFFFFFFFFFFFFFFFFFFFFFFFFFFFFFFFF AND DUP2 MSTORE PUSH1 0x20 ADD SWAP1 DUP2 MSTORE PUSH1 0x20 ADD PUSH0 KECCAK256 PUSH0 SWAP1 SLOAD SWAP1 PUSH2 0x100 EXP SWAP1 DIV PUSH1 0xFF AND SWAP1 POP SWAP1 JUMP JUMPDEST PUSH1 0x60 PUSH1 0x2 DUP1 SLOAD DUP1 PUSH1 0x20 MUL PUSH1 0x20 ADD PUSH1 0x40 MLOAD SWAP1 DUP2 ADD PUSH1 0x40 MSTORE DUP1 SWAP3 SWAP2 SWAP1 DUP2 DUP2 MSTORE PUSH1 0x20 ADD PUSH0 SWAP1 JUMPDEST DUP3 DUP3 LT ISZERO PUSH2 0xA80 JUMPI DUP4 DUP3 SWAP1 PUSH0 MSTORE PUSH1 0x20 PUSH0 KECCAK256 SWAP1 PUSH1 0x3 MUL ADD PUSH1 0x40 MLOAD DUP1 PUSH1 0x60 ADD PUSH1 0x40 MSTORE SWAP1 DUP2 PUSH0 DUP3 ADD DUP1 SLOAD PUSH2 0x957 SWAP1 PUSH2 0x1DAF JUMP JUMPDEST DUP1 PUSH1 0x1F ADD PUSH1 0x20 DUP1 SWAP2 DIV MUL PUSH1 0x20 ADD PUSH1 0x40 MLOAD SWAP1 DUP2 ADD PUSH1 0x40 MSTORE DUP1 SWAP3 SWAP2 SWAP1 DUP2 DUP2 MSTORE PUSH1 0x20 ADD DUP3 DUP1 SLOAD PUSH2 0x983 SWAP1 PUSH2 0x1DAF JUMP JUMPDEST DUP1 ISZERO PUSH2 0x9CE JUMPI DUP1 PUSH1 0x1F LT PUSH2 0x9A5 JUMPI PUSH2 0x100 DUP1 DUP4 SLOAD DIV MUL DUP4 MSTORE SWAP2 PUSH1 0x20 ADD SWAP2 PUSH2 0x9CE JUMP JUMPDEST DUP3 ADD SWAP2 SWAP1 PUSH0 MSTORE PUSH1 0x20 PUSH0 KECCAK256 SWAP1 JUMPDEST DUP2 SLOAD DUP2 MSTORE SWAP1 PUSH1 0x1 ADD SWAP1 PUSH1 0x20 ADD DUP1 DUP4 GT PUSH2 0x9B1 JUMPI DUP3 SWAP1 SUB PUSH1 0x1F AND DUP3 ADD SWAP2 JUMPDEST POP POP POP POP POP DUP2 MSTORE PUSH1 0x20 ADD PUSH1 0x1 DUP3 ADD DUP1 SLOAD PUSH2 0x9E7 SWAP1 PUSH2 0x1DAF JUMP JUMPDEST DUP1 PUSH1 0x1F ADD PUSH1 0x20 DUP1 SWAP2 DIV MUL PUSH1 0x20 ADD PUSH1 0x40 MLOAD SWAP1 DUP2 ADD PUSH1 0x40 MSTORE DUP1 SWAP3 SWAP2 SWAP1 DUP2 DUP2 MSTORE PUSH1 0x20 ADD DUP3 DUP1 SLOAD PUSH2 0xA13 SWAP1 PUSH2 0x1DAF JUMP JUMPDEST DUP1 ISZERO PUSH2 0xA5E JUMPI DUP1 PUSH1 0x1F LT PUSH2 0xA35 JUMPI PUSH2 0x100 DUP1 DUP4 SLOAD DIV MUL DUP4 MSTORE SWAP2 PUSH1 0x20 ADD SWAP2 PUSH2 0xA5E JUMP JUMPDEST DUP3 ADD SWAP2 SWAP1 PUSH0 MSTORE PUSH1 0x20 PUSH0 KECCAK256 SWAP1 JUMPDEST DUP2 SLOAD DUP2 MSTORE SWAP1 PUSH1 0x1 ADD SWAP1 PUSH1 0x20 ADD DUP1 DUP4 GT PUSH2 0xA41 JUMPI DUP3 SWAP1 SUB PUSH1 0x1F AND DUP3 ADD SWAP2 JUMPDEST POP POP POP POP POP DUP2 MSTORE PUSH1 0x20 ADD PUSH1 0x2 DUP3 ADD SLOAD DUP2 MSTORE POP POP DUP2 MSTORE PUSH1 0x20 ADD SWAP1 PUSH1 0x1 ADD SWAP1 PUSH2 0x927 JUMP JUMPDEST POP POP POP POP SWAP1 POP SWAP1 JUMP JUMPDEST PUSH1 0x2 DUP2 DUP2 SLOAD DUP2 LT PUSH2 0xA98 JUMPI PUSH0 DUP1 REVERT JUMPDEST SWAP1 PUSH0 MSTORE PUSH1 0x20 PUSH0 KECCAK256 SWAP1 PUSH1 0x3 MUL ADD PUSH0 SWAP2 POP SWAP1 POP DUP1 PUSH0 ADD DUP1 SLOAD PUSH2 0xAB7 SWAP1 PUSH2 0x1DAF JUMP JUMPDEST DUP1 PUSH1 0x1F ADD PUSH1 0x20 DUP1 SWAP2 DIV MUL PUSH1 0x20 ADD PUSH1 0x40 MLOAD SWAP1 DUP2 ADD PUSH1 0x40 MSTORE DUP1 SWAP3 SWAP2 SWAP1 DUP2 DUP2 MSTORE PUSH1 0x20 ADD DUP3 DUP1 SLOAD PUSH2 0xAE3 SWAP1 PUSH2 0x1DAF JUMP JUMPDEST DUP1 ISZERO PUSH2 0xB2E JUMPI DUP1 PUSH1 0x1F LT PUSH2 0xB05 JUMPI PUSH2 0x100 DUP1 DUP4 SLOAD DIV MUL DUP4 MSTORE SWAP2 PUSH1 0x20 ADD SWAP2 PUSH2 0xB2E JUMP JUMPDEST DUP3 ADD SWAP2 SWAP1 PUSH0 MSTORE PUSH1 0x20 PUSH0 KECCAK256 SWAP1 JUMPDEST DUP2 SLOAD DUP2 MSTORE SWAP1 PUSH1 0x1 ADD SWAP1 PUSH1 0x20 ADD DUP1 DUP4 GT PUSH2 0xB11 JUMPI DUP3 SWAP1 SUB PUSH1 0x1F AND DUP3 ADD SWAP2 JUMPDEST POP POP POP POP POP SWAP1 DUP1 PUSH1 0x1 ADD DUP1 SLOAD PUSH2 0xB43 SWAP1 PUSH2 0x1DAF JUMP JUMPDEST DUP1 PUSH1 0x1F ADD PUSH1 0x20 DUP1 SWAP2 DIV MUL PUSH1 0x20 ADD PUSH1 0x40 MLOAD SWAP1 DUP2 ADD PUSH1 0x40 MSTORE DUP1 SWAP3 SWAP2 SWAP1 DUP2 DUP2 MSTORE PUSH1 0x20 ADD DUP3 DUP1 SLOAD PUSH2 0xB6F SWAP1 PUSH2 0x1DAF JUMP JUMPDEST DUP1 ISZERO PUSH2 0xBBA JUMPI DUP1 PUSH1 0x1F LT PUSH2 0xB91 JUMPI PUSH2 0x100 DUP1 DUP4 SLOAD DIV MUL DUP4 MSTORE SWAP2 PUSH1 0x20 ADD SWAP2 PUSH2 0xBBA JUMP JUMPDEST DUP3 ADD SWAP2 SWAP1 PUSH0 MSTORE PUSH1 0x20 PUSH0 KECCAK256 SWAP1 JUMPDEST DUP2 SLOAD DUP2 MSTORE SWAP1 PUSH1 0x1 ADD SWAP1 PUSH1 0x20 ADD DUP1 DUP4 GT PUSH2 0xB9D JUMPI DUP3 SWAP1 SUB PUSH1 0x1F AND DUP3 ADD SWAP2 JUMPDEST POP POP POP POP POP SWAP1 DUP1 PUSH1 0x2 ADD SLOAD SWAP1 POP DUP4 JUMP JUMPDEST PUSH1 0x60 PUSH1 0x5 PUSH0 DUP4 DUP2 MSTORE PUSH1 0x20 ADD SWAP1 DUP2 MSTORE PUSH1 0x20 ADD PUSH0 KECCAK256 DUP1 SLOAD DUP1 PUSH1 0x20 MUL PUSH1 0x20 ADD PUSH1 0x40 MLOAD SWAP1 DUP2 ADD PUSH1 0x40 MSTORE DUP1 SWAP3 SWAP2 SWAP1 DUP2 DUP2 MSTORE PUSH1 0x20 ADD DUP3 DUP1 SLOAD DUP1 ISZERO PUSH2 0xC5A JUMPI PUSH1 0x20 MUL DUP3 ADD SWAP2 SWAP1 PUSH0 MSTORE PUSH1 0x20 PUSH0 KECCAK256 SWAP1 JUMPDEST DUP2 PUSH0 SWAP1 SLOAD SWAP1 PUSH2 0x100 EXP SWAP1 DIV PUSH20 0xFFFFFFFFFFFFFFFFFFFFFFFFFFFFFFFFFFFFFFFF AND PUSH20 0xFFFFFFFFFFFFFFFFFFFFFFFFFFFFFFFFFFFFFFFF AND DUP2 MSTORE PUSH1 0x20 ADD SWAP1 PUSH1 0x1 ADD SWAP1 DUP1 DUP4 GT PUSH2 0xC11 JUMPI JUMPDEST POP POP POP POP POP SWAP1 POP SWAP2 SWAP1 POP JUMP JUMPDEST PUSH2 0xC6E PUSH2 0x1154 JUMP JUMPDEST PUSH2 0xC77 PUSH0 PUSH2 0x11DB JUMP JUMPDEST JUMP JUMPDEST PUSH2 0xC81 PUSH2 0x12FE JUMP JUMPDEST PUSH0 PUSH1 0x2 PUSH0 DUP2 SLOAD DUP2 LT PUSH2 0xC96 JUMPI PUSH2 0xC95 PUSH2 0x1CAE JUMP JUMPDEST JUMPDEST SWAP1 PUSH0 MSTORE PUSH1 0x20 PUSH0 KECCAK256 SWAP1 PUSH1 0x3 MUL ADD PUSH1 0x40 MLOAD DUP1 PUSH1 0x60 ADD PUSH1 0x40 MSTORE SWAP1 DUP2 PUSH0 DUP3 ADD DUP1 SLOAD PUSH2 0xCBC SWAP1 PUSH2 0x1DAF JUMP JUMPDEST DUP1 PUSH1 0x1F ADD PUSH1 0x20 DUP1 SWAP2 DIV MUL PUSH1 0x20 ADD PUSH1 0x40 MLOAD SWAP1 DUP2 ADD PUSH1 0x40 MSTORE DUP1 SWAP3 SWAP2 SWAP1 DUP2 DUP2 MSTORE PUSH1 0x20 ADD DUP3 DUP1 SLOAD PUSH2 0xCE8 SWAP1 PUSH2 0x1DAF JUMP JUMPDEST DUP1 ISZERO PUSH2 0xD33 JUMPI DUP1 PUSH1 0x1F LT PUSH2 0xD0A JUMPI PUSH2 0x100 DUP1 DUP4 SLOAD DIV MUL DUP4 MSTORE SWAP2 PUSH1 0x20 ADD SWAP2 PUSH2 0xD33 JUMP JUMPDEST DUP3 ADD SWAP2 SWAP1 PUSH0 MSTORE PUSH1 0x20 PUSH0 KECCAK256 SWAP1 JUMPDEST DUP2 SLOAD DUP2 MSTORE SWAP1 PUSH1 0x1 ADD SWAP1 PUSH1 0x20 ADD DUP1 DUP4 GT PUSH2 0xD16 JUMPI DUP3 SWAP1 SUB PUSH1 0x1F AND DUP3 ADD SWAP2 JUMPDEST POP POP POP POP POP DUP2 MSTORE PUSH1 0x20 ADD PUSH1 0x1 DUP3 ADD DUP1 SLOAD PUSH2 0xD4C SWAP1 PUSH2 0x1DAF JUMP JUMPDEST DUP1 PUSH1 0x1F ADD PUSH1 0x20 DUP1 SWAP2 DIV MUL PUSH1 0x20 ADD PUSH1 0x40 MLOAD SWAP1 DUP2 ADD PUSH1 0x40 MSTORE DUP1 SWAP3 SWAP2 SWAP1 DUP2 DUP2 MSTORE PUSH1 0x20 ADD DUP3 DUP1 SLOAD PUSH2 0xD78 SWAP1 PUSH2 0x1DAF JUMP JUMPDEST DUP1 ISZERO PUSH2 0xDC3 JUMPI DUP1 PUSH1 0x1F LT PUSH2 0xD9A JUMPI PUSH2 0x100 DUP1 DUP4 SLOAD DIV MUL DUP4 MSTORE SWAP2 PUSH1 0x20 ADD SWAP2 PUSH2 0xDC3 JUMP JUMPDEST DUP3 ADD SWAP2 SWAP1 PUSH0 MSTORE PUSH1 0x20 PUSH0 KECCAK256 SWAP1 JUMPDEST DUP2 SLOAD DUP2 MSTORE SWAP1 PUSH1 0x1 ADD SWAP1 PUSH1 0x20 ADD DUP1 DUP4 GT PUSH2 0xDA6 JUMPI DUP3 SWAP1 SUB PUSH1 0x1F AND DUP3 ADD SWAP2 JUMPDEST POP POP POP POP POP DUP2 MSTORE PUSH1 0x20 ADD PUSH1 0x2 DUP3 ADD SLOAD DUP2 MSTORE POP POP SWAP1 POP PUSH0 PUSH1 0x1 SWAP1 POP JUMPDEST PUSH1 0x2 DUP1 SLOAD SWAP1 POP DUP2 LT ISZERO PUSH2 0xF7E JUMPI PUSH1 0x2 DUP2 DUP2 SLOAD DUP2 LT PUSH2 0xDFF JUMPI PUSH2 0xDFE PUSH2 0x1CAE JUMP JUMPDEST JUMPDEST SWAP1 PUSH0 MSTORE PUSH1 0x20 PUSH0 KECCAK256 SWAP1 PUSH1 0x3 MUL ADD PUSH1 0x2 ADD SLOAD DUP3 PUSH1 0x40 ADD MLOAD LT ISZERO PUSH2 0xF71 JUMPI PUSH1 0x2 DUP2 DUP2 SLOAD DUP2 LT PUSH2 0xE2E JUMPI PUSH2 0xE2D PUSH2 0x1CAE JUMP JUMPDEST JUMPDEST SWAP1 PUSH0 MSTORE PUSH1 0x20 PUSH0 KECCAK256 SWAP1 PUSH1 0x3 MUL ADD PUSH1 0x40 MLOAD DUP1 PUSH1 0x60 ADD PUSH1 0x40 MSTORE SWAP1 DUP2 PUSH0 DUP3 ADD DUP1 SLOAD PUSH2 0xE54 SWAP1 PUSH2 0x1DAF JUMP JUMPDEST DUP1 PUSH1 0x1F ADD PUSH1 0x20 DUP1 SWAP2 DIV MUL PUSH1 0x20 ADD PUSH1 0x40 MLOAD SWAP1 DUP2 ADD PUSH1 0x40 MSTORE DUP1 SWAP3 SWAP2 SWAP1 DUP2 DUP2 MSTORE PUSH1 0x20 ADD DUP3 DUP1 SLOAD PUSH2 0xE80 SWAP1 PUSH2 0x1DAF JUMP JUMPDEST DUP1 ISZERO PUSH2 0xECB JUMPI DUP1 PUSH1 0x1F LT PUSH2 0xEA2 JUMPI PUSH2 0x100 DUP1 DUP4 SLOAD DIV MUL DUP4 MSTORE SWAP2 PUSH1 0x20 ADD SWAP2 PUSH2 0xECB JUMP JUMPDEST DUP3 ADD SWAP2 SWAP1 PUSH0 MSTORE PUSH1 0x20 PUSH0 KECCAK256 SWAP1 JUMPDEST DUP2 SLOAD DUP2 MSTORE SWAP1 PUSH1 0x1 ADD SWAP1 PUSH1 0x20 ADD DUP1 DUP4 GT PUSH2 0xEAE JUMPI DUP3 SWAP1 SUB PUSH1 0x1F AND DUP3 ADD SWAP2 JUMPDEST POP POP POP POP POP DUP2 MSTORE PUSH1 0x20 ADD PUSH1 0x1 DUP3 ADD DUP1 SLOAD PUSH2 0xEE4 SWAP1 PUSH2 0x1DAF JUMP JUMPDEST DUP1 PUSH1 0x1F ADD PUSH1 0x20 DUP1 SWAP2 DIV MUL PUSH1 0x20 ADD PUSH1 0x40 MLOAD SWAP1 DUP2 ADD PUSH1 0x40 MSTORE DUP1 SWAP3 SWAP2 SWAP1 DUP2 DUP2 MSTORE PUSH1 0x20 ADD DUP3 DUP1 SLOAD PUSH2 0xF10 SWAP1 PUSH2 0x1DAF JUMP JUMPDEST DUP1 ISZERO PUSH2 0xF5B JUMPI DUP1 PUSH1 0x1F LT PUSH2 0xF32 JUMPI PUSH2 0x100 DUP1 DUP4 SLOAD DIV MUL DUP4 MSTORE SWAP2 PUSH1 0x20 ADD SWAP2 PUSH2 0xF5B JUMP JUMPDEST DUP3 ADD SWAP2 SWAP1 PUSH0 MSTORE PUSH1 0x20 PUSH0 KECCAK256 SWAP1 JUMPDEST DUP2 SLOAD DUP2 MSTORE SWAP1 PUSH1 0x1 ADD SWAP1 PUSH1 0x20 ADD DUP1 DUP4 GT PUSH2 0xF3E JUMPI DUP3 SWAP1 SUB PUSH1 0x1F AND DUP3 ADD SWAP2 JUMPDEST POP POP POP POP POP DUP2 MSTORE PUSH1 0x20 ADD PUSH1 0x2 DUP3 ADD SLOAD DUP2 MSTORE POP POP SWAP2 POP JUMPDEST DUP1 DUP1 PUSH1 0x1 ADD SWAP2 POP POP PUSH2 0xDDE JUMP JUMPDEST POP DUP1 SWAP2 POP POP SWAP1 JUMP JUMPDEST PUSH0 PUSH0 PUSH0 SWAP1 SLOAD SWAP1 PUSH2 0x100 EXP SWAP1 DIV PUSH20 0xFFFFFFFFFFFFFFFFFFFFFFFFFFFFFFFFFFFFFFFF AND SWAP1 POP SWAP1 JUMP JUMPDEST PUSH0 PUSH2 0xFB6 PUSH2 0xF86 JUMP JUMPDEST PUSH20 0xFFFFFFFFFFFFFFFFFFFFFFFFFFFFFFFFFFFFFFFF AND CALLER PUSH20 0xFFFFFFFFFFFFFFFFFFFFFFFFFFFFFFFFFFFFFFFF AND EQ SWAP1 POP SWAP1 JUMP JUMPDEST PUSH2 0xFF1 PUSH2 0x1154 JUMP JUMPDEST PUSH0 PUSH1 0x40 MLOAD DUP1 PUSH1 0x60 ADD PUSH1 0x40 MSTORE DUP1 DUP5 DUP2 MSTORE PUSH1 0x20 ADD DUP4 DUP2 MSTORE PUSH1 0x20 ADD PUSH0 DUP2 MSTORE POP SWAP1 POP PUSH1 0x2 DUP2 SWAP1 DUP1 PUSH1 0x1 DUP2 SLOAD ADD DUP1 DUP3 SSTORE DUP1 SWAP2 POP POP PUSH1 0x1 SWAP1 SUB SWAP1 PUSH0 MSTORE PUSH1 0x20 PUSH0 KECCAK256 SWAP1 PUSH1 0x3 MUL ADD PUSH0 SWAP1 SWAP2 SWAP1 SWAP2 SWAP1 SWAP2 POP PUSH0 DUP3 ADD MLOAD DUP2 PUSH0 ADD SWAP1 DUP2 PUSH2 0x104B SWAP2 SWAP1 PUSH2 0x20A6 JUMP JUMPDEST POP PUSH1 0x20 DUP3 ADD MLOAD DUP2 PUSH1 0x1 ADD SWAP1 DUP2 PUSH2 0x1061 SWAP2 SWAP1 PUSH2 0x20A6 JUMP JUMPDEST POP PUSH1 0x40 DUP3 ADD MLOAD DUP2 PUSH1 0x2 ADD SSTORE POP POP POP POP POP JUMP JUMPDEST PUSH1 0x4 PUSH1 0x20 MSTORE DUP1 PUSH0 MSTORE PUSH1 0x40 PUSH0 KECCAK256 PUSH0 SWAP2 POP SWAP1 POP SLOAD DUP2 JUMP JUMPDEST PUSH2 0x1090 PUSH2 0x1154 JUMP JUMPDEST PUSH0 PUSH20 0xFFFFFFFFFFFFFFFFFFFFFFFFFFFFFFFFFFFFFFFF AND DUP2 PUSH20 0xFFFFFFFFFFFFFFFFFFFFFFFFFFFFFFFFFFFFFFFF AND SUB PUSH2 0x1100 JUMPI PUSH0 PUSH1 0x40 MLOAD PUSH32 0x1E4FBDF700000000000000000000000000000000000000000000000000000000 DUP2 MSTORE PUSH1 0x4 ADD PUSH2 0x10F7 SWAP2 SWAP1 PUSH2 0x1802 JUMP JUMPDEST PUSH1 0x40 MLOAD DUP1 SWAP2 SUB SWAP1 REVERT JUMPDEST PUSH2 0x1109 DUP2 PUSH2 0x11DB JUMP JUMPDEST POP JUMP JUMPDEST PUSH1 0x5 PUSH1 0x20 MSTORE DUP2 PUSH0 MSTORE PUSH1 0x40 PUSH0 KECCAK256 DUP2 DUP2 SLOAD DUP2 LT PUSH2 0x1125 JUMPI PUSH0 DUP1 REVERT JUMPDEST SWAP1 PUSH0 MSTORE PUSH1 0x20 PUSH0 KECCAK256 ADD PUSH0 SWAP2 POP SWAP2 POP SWAP1 SLOAD SWAP1 PUSH2 0x100 EXP SWAP1 DIV PUSH20 0xFFFFFFFFFFFFFFFFFFFFFFFFFFFFFFFFFFFFFFFF AND DUP2 JUMP JUMPDEST PUSH2 0x115C PUSH2 0x129C JUMP JUMPDEST PUSH20 0xFFFFFFFFFFFFFFFFFFFFFFFFFFFFFFFFFFFFFFFF AND PUSH2 0x117A PUSH2 0xF86 JUMP JUMPDEST PUSH20 0xFFFFFFFFFFFFFFFFFFFFFFFFFFFFFFFFFFFFFFFF AND EQ PUSH2 0x11D9 JUMPI PUSH2 0x119D PUSH2 0x129C JUMP JUMPDEST PUSH1 0x40 MLOAD PUSH32 0x118CDAA700000000000000000000000000000000000000000000000000000000 DUP2 MSTORE PUSH1 0x4 ADD PUSH2 0x11D0 SWAP2 SWAP1 PUSH2 0x1802 JUMP JUMPDEST PUSH1 0x40 MLOAD DUP1 SWAP2 SUB SWAP1 REVERT JUMPDEST JUMP JUMPDEST PUSH0 PUSH0 PUSH0 SWAP1 SLOAD SWAP1 PUSH2 0x100 EXP SWAP1 DIV PUSH20 0xFFFFFFFFFFFFFFFFFFFFFFFFFFFFFFFFFFFFFFFF AND SWAP1 POP DUP2 PUSH0 PUSH0 PUSH2 0x100 EXP DUP2 SLOAD DUP2 PUSH20 0xFFFFFFFFFFFFFFFFFFFFFFFFFFFFFFFFFFFFFFFF MUL NOT AND SWAP1 DUP4 PUSH20 0xFFFFFFFFFFFFFFFFFFFFFFFFFFFFFFFFFFFFFFFF AND MUL OR SWAP1 SSTORE POP DUP2 PUSH20 0xFFFFFFFFFFFFFFFFFFFFFFFFFFFFFFFFFFFFFFFF AND DUP2 PUSH20 0xFFFFFFFFFFFFFFFFFFFFFFFFFFFFFFFFFFFFFFFF AND PUSH32 0x8BE0079C531659141344CD1FD0A4F28419497F9722A3DAAFE3B4186F6B6457E0 PUSH1 0x40 MLOAD PUSH1 0x40 MLOAD DUP1 SWAP2 SUB SWAP1 LOG3 POP POP JUMP JUMPDEST PUSH0 CALLER SWAP1 POP SWAP1 JUMP JUMPDEST POP DUP1 SLOAD PUSH2 0x12AF SWAP1 PUSH2 0x1DAF JUMP JUMPDEST PUSH0 DUP3 SSTORE DUP1 PUSH1 0x1F LT PUSH2 0x12C0 JUMPI POP PUSH2 0x12DD JUMP JUMPDEST PUSH1 0x1F ADD PUSH1 0x20 SWAP1 DIV SWAP1 PUSH0 MSTORE PUSH1 0x20 PUSH0 KECCAK256 SWAP1 DUP2 ADD SWAP1 PUSH2 0x12DC SWAP2 SWAP1 PUSH2 0x131E JUMP JUMPDEST JUMPDEST POP JUMP JUMPDEST POP DUP1 SLOAD PUSH0 DUP3 SSTORE SWAP1 PUSH0 MSTORE PUSH1 0x20 PUSH0 KECCAK256 SWAP1 DUP2 ADD SWAP1 PUSH2 0x12FB SWAP2 SWAP1 PUSH2 0x131E JUMP JUMPDEST POP JUMP JUMPDEST PUSH1 0x40 MLOAD DUP1 PUSH1 0x60 ADD PUSH1 0x40 MSTORE DUP1 PUSH1 0x60 DUP2 MSTORE PUSH1 0x20 ADD PUSH1 0x60 DUP2 MSTORE PUSH1 0x20 ADD PUSH0 DUP2 MSTORE POP SWAP1 JUMP JUMPDEST JUMPDEST DUP1 DUP3 GT ISZERO PUSH2 0x1335 JUMPI PUSH0 DUP2 PUSH0 SWAP1 SSTORE POP PUSH1 0x1 ADD PUSH2 0x131F JUMP JUMPDEST POP SWAP1 JUMP JUMPDEST PUSH0 PUSH1 0x40 MLOAD SWAP1 POP SWAP1 JUMP JUMPDEST PUSH0 PUSH0 REVERT JUMPDEST PUSH0 PUSH0 REVERT JUMPDEST PUSH0 DUP2 SWAP1 POP SWAP2 SWAP1 POP JUMP JUMPDEST PUSH2 0x135C DUP2 PUSH2 0x134A JUMP JUMPDEST DUP2 EQ PUSH2 0x1366 JUMPI PUSH0 PUSH0 REVERT JUMPDEST POP JUMP JUMPDEST PUSH0 DUP2 CALLDATALOAD SWAP1 POP PUSH2 0x1377 DUP2 PUSH2 0x1353 JUMP JUMPDEST SWAP3 SWAP2 POP POP JUMP JUMPDEST PUSH0 PUSH1 0x20 DUP3 DUP5 SUB SLT ISZERO PUSH2 0x1392 JUMPI PUSH2 0x1391 PUSH2 0x1342 JUMP JUMPDEST JUMPDEST PUSH0 PUSH2 0x139F DUP5 DUP3 DUP6 ADD PUSH2 0x1369 JUMP JUMPDEST SWAP2 POP POP SWAP3 SWAP2 POP POP JUMP JUMPDEST PUSH0 PUSH20 0xFFFFFFFFFFFFFFFFFFFFFFFFFFFFFFFFFFFFFFFF DUP3 AND SWAP1 POP SWAP2 SWAP1 POP JUMP JUMPDEST PUSH0 PUSH2 0x13D1 DUP3 PUSH2 0x13A8 JUMP JUMPDEST SWAP1 POP SWAP2 SWAP1 POP JUMP JUMPDEST PUSH2 0x13E1 DUP2 PUSH2 0x13C7 JUMP JUMPDEST DUP2 EQ PUSH2 0x13EB JUMPI PUSH0 PUSH0 REVERT JUMPDEST POP JUMP JUMPDEST PUSH0 DUP2 CALLDATALOAD SWAP1 POP PUSH2 0x13FC DUP2 PUSH2 0x13D8 JUMP JUMPDEST SWAP3 SWAP2 POP POP JUMP JUMPDEST PUSH0 PUSH1 0x20 DUP3 DUP5 SUB SLT ISZERO PUSH2 0x1417 JUMPI PUSH2 0x1416 PUSH2 0x1342 JUMP JUMPDEST JUMPDEST PUSH0 PUSH2 0x1424 DUP5 DUP3 DUP6 ADD PUSH2 0x13EE JUMP JUMPDEST SWAP2 POP POP SWAP3 SWAP2 POP POP JUMP JUMPDEST PUSH0 DUP2 ISZERO ISZERO SWAP1 POP SWAP2 SWAP1 POP JUMP JUMPDEST PUSH2 0x1441 DUP2 PUSH2 0x142D JUMP JUMPDEST DUP3 MSTORE POP POP JUMP JUMPDEST PUSH0 PUSH1 0x20 DUP3 ADD SWAP1 POP PUSH2 0x145A PUSH0 DUP4 ADD DUP5 PUSH2 0x1438 JUMP JUMPDEST SWAP3 SWAP2 POP POP JUMP JUMPDEST PUSH0 DUP2 MLOAD SWAP1 POP SWAP2 SWAP1 POP JUMP JUMPDEST PUSH0 DUP3 DUP3 MSTORE PUSH1 0x20 DUP3 ADD SWAP1 POP SWAP3 SWAP2 POP POP JUMP JUMPDEST PUSH0 DUP2 SWAP1 POP PUSH1 0x20 DUP3 ADD SWAP1 POP SWAP2 SWAP1 POP JUMP JUMPDEST PUSH0 DUP2 MLOAD SWAP1 POP SWAP2 SWAP1 POP JUMP JUMPDEST PUSH0 DUP3 DUP3 MSTORE PUSH1 0x20 DUP3 ADD SWAP1 POP SWAP3 SWAP2 POP POP JUMP JUMPDEST DUP3 DUP2 DUP4 MCOPY PUSH0 DUP4 DUP4 ADD MSTORE POP POP POP JUMP JUMPDEST PUSH0 PUSH1 0x1F NOT PUSH1 0x1F DUP4 ADD AND SWAP1 POP SWAP2 SWAP1 POP JUMP JUMPDEST PUSH0 PUSH2 0x14CB DUP3 PUSH2 0x1489 JUMP JUMPDEST PUSH2 0x14D5 DUP2 DUP6 PUSH2 0x1493 JUMP JUMPDEST SWAP4 POP PUSH2 0x14E5 DUP2 DUP6 PUSH1 0x20 DUP7 ADD PUSH2 0x14A3 JUMP JUMPDEST PUSH2 0x14EE DUP2 PUSH2 0x14B1 JUMP JUMPDEST DUP5 ADD SWAP2 POP POP SWAP3 SWAP2 POP POP JUMP JUMPDEST PUSH2 0x1502 DUP2 PUSH2 0x134A JUMP JUMPDEST DUP3 MSTORE POP POP JUMP JUMPDEST PUSH0 PUSH1 0x60 DUP4 ADD PUSH0 DUP4 ADD MLOAD DUP5 DUP3 SUB PUSH0 DUP7 ADD MSTORE PUSH2 0x1522 DUP3 DUP3 PUSH2 0x14C1 JUMP JUMPDEST SWAP2 POP POP PUSH1 0x20 DUP4 ADD MLOAD DUP5 DUP3 SUB PUSH1 0x20 DUP7 ADD MSTORE PUSH2 0x153C DUP3 DUP3 PUSH2 0x14C1 JUMP JUMPDEST SWAP2 POP POP PUSH1 0x40 DUP4 ADD MLOAD PUSH2 0x1551 PUSH1 0x40 DUP7 ADD DUP3 PUSH2 0x14F9 JUMP JUMPDEST POP DUP1 SWAP2 POP POP SWAP3 SWAP2 POP POP JUMP JUMPDEST PUSH0 PUSH2 0x1567 DUP4 DUP4 PUSH2 0x1508 JUMP JUMPDEST SWAP1 POP SWAP3 SWAP2 POP POP JUMP JUMPDEST PUSH0 PUSH1 0x20 DUP3 ADD SWAP1 POP SWAP2 SWAP1 POP JUMP JUMPDEST PUSH0 PUSH2 0x1585 DUP3 PUSH2 0x1460 JUMP JUMPDEST PUSH2 0x158F DUP2 DUP6 PUSH2 0x146A JUMP JUMPDEST SWAP4 POP DUP4 PUSH1 0x20 DUP3 MUL DUP6 ADD PUSH2 0x15A1 DUP6 PUSH2 0x147A JUMP JUMPDEST DUP1 PUSH0 JUMPDEST DUP6 DUP2 LT ISZERO PUSH2 0x15DC JUMPI DUP5 DUP5 SUB DUP10 MSTORE DUP2 MLOAD PUSH2 0x15BD DUP6 DUP3 PUSH2 0x155C JUMP JUMPDEST SWAP5 POP PUSH2 0x15C8 DUP4 PUSH2 0x156F JUMP JUMPDEST SWAP3 POP PUSH1 0x20 DUP11 ADD SWAP10 POP POP PUSH1 0x1 DUP2 ADD SWAP1 POP PUSH2 0x15A4 JUMP JUMPDEST POP DUP3 SWAP8 POP DUP8 SWAP6 POP POP POP POP POP POP SWAP3 SWAP2 POP POP JUMP JUMPDEST PUSH0 PUSH1 0x20 DUP3 ADD SWAP1 POP DUP2 DUP2 SUB PUSH0 DUP4 ADD MSTORE PUSH2 0x1606 DUP2 DUP5 PUSH2 0x157B JUMP JUMPDEST SWAP1 POP SWAP3 SWAP2 POP POP JUMP JUMPDEST PUSH0 DUP3 DUP3 MSTORE PUSH1 0x20 DUP3 ADD SWAP1 POP SWAP3 SWAP2 POP POP JUMP JUMPDEST PUSH0 PUSH2 0x1628 DUP3 PUSH2 0x1489 JUMP JUMPDEST PUSH2 0x1632 DUP2 DUP6 PUSH2 0x160E JUMP JUMPDEST SWAP4 POP PUSH2 0x1642 DUP2 DUP6 PUSH1 0x20 DUP7 ADD PUSH2 0x14A3 JUMP JUMPDEST PUSH2 0x164B DUP2 PUSH2 0x14B1 JUMP JUMPDEST DUP5 ADD SWAP2 POP POP SWAP3 SWAP2 POP POP JUMP JUMPDEST PUSH2 0x165F DUP2 PUSH2 0x134A JUMP JUMPDEST DUP3 MSTORE POP POP JUMP JUMPDEST PUSH0 PUSH1 0x60 DUP3 ADD SWAP1 POP DUP2 DUP2 SUB PUSH0 DUP4 ADD MSTORE PUSH2 0x167D DUP2 DUP7 PUSH2 0x161E JUMP JUMPDEST SWAP1 POP DUP2 DUP2 SUB PUSH1 0x20 DUP4 ADD MSTORE PUSH2 0x1691 DUP2 DUP6 PUSH2 0x161E JUMP JUMPDEST SWAP1 POP PUSH2 0x16A0 PUSH1 0x40 DUP4 ADD DUP5 PUSH2 0x1656 JUMP JUMPDEST SWAP5 SWAP4 POP POP POP POP JUMP JUMPDEST PUSH0 DUP2 MLOAD SWAP1 POP SWAP2 SWAP1 POP JUMP JUMPDEST PUSH0 DUP3 DUP3 MSTORE PUSH1 0x20 DUP3 ADD SWAP1 POP SWAP3 SWAP2 POP POP JUMP JUMPDEST PUSH0 DUP2 SWAP1 POP PUSH1 0x20 DUP3 ADD SWAP1 POP SWAP2 SWAP1 POP JUMP JUMPDEST PUSH2 0x16DA DUP2 PUSH2 0x13C7 JUMP JUMPDEST DUP3 MSTORE POP POP JUMP JUMPDEST PUSH0 PUSH2 0x16EB DUP4 DUP4 PUSH2 0x16D1 JUMP JUMPDEST PUSH1 0x20 DUP4 ADD SWAP1 POP SWAP3 SWAP2 POP POP JUMP JUMPDEST PUSH0 PUSH1 0x20 DUP3 ADD SWAP1 POP SWAP2 SWAP1 POP JUMP JUMPDEST PUSH0 PUSH2 0x170D DUP3 PUSH2 0x16A8 JUMP JUMPDEST PUSH2 0x1717 DUP2 DUP6 PUSH2 0x16B2 JUMP JUMPDEST SWAP4 POP PUSH2 0x1722 DUP4 PUSH2 0x16C2 JUMP JUMPDEST DUP1 PUSH0 JUMPDEST DUP4 DUP2 LT ISZERO PUSH2 0x1752 JUMPI DUP2 MLOAD PUSH2 0x1739 DUP9 DUP3 PUSH2 0x16E0 JUMP JUMPDEST SWAP8 POP PUSH2 0x1744 DUP4 PUSH2 0x16F7 JUMP JUMPDEST SWAP3 POP POP PUSH1 0x1 DUP2 ADD SWAP1 POP PUSH2 0x1725 JUMP JUMPDEST POP DUP6 SWAP4 POP POP POP POP SWAP3 SWAP2 POP POP JUMP JUMPDEST PUSH0 PUSH1 0x20 DUP3 ADD SWAP1 POP DUP2 DUP2 SUB PUSH0 DUP4 ADD MSTORE PUSH2 0x1777 DUP2 DUP5 PUSH2 0x1703 JUMP JUMPDEST SWAP1 POP SWAP3 SWAP2 POP POP JUMP JUMPDEST PUSH0 PUSH1 0x60 DUP4 ADD PUSH0 DUP4 ADD MLOAD DUP5 DUP3 SUB PUSH0 DUP7 ADD MSTORE PUSH2 0x1799 DUP3 DUP3 PUSH2 0x14C1 JUMP JUMPDEST SWAP2 POP POP PUSH1 0x20 DUP4 ADD MLOAD DUP5 DUP3 SUB PUSH1 0x20 DUP7 ADD MSTORE PUSH2 0x17B3 DUP3 DUP3 PUSH2 0x14C1 JUMP JUMPDEST SWAP2 POP POP PUSH1 0x40 DUP4 ADD MLOAD PUSH2 0x17C8 PUSH1 0x40 DUP7 ADD DUP3 PUSH2 0x14F9 JUMP JUMPDEST POP DUP1 SWAP2 POP POP SWAP3 SWAP2 POP POP JUMP JUMPDEST PUSH0 PUSH1 0x20 DUP3 ADD SWAP1 POP DUP2 DUP2 SUB PUSH0 DUP4 ADD MSTORE PUSH2 0x17EB DUP2 DUP5 PUSH2 0x177F JUMP JUMPDEST SWAP1 POP SWAP3 SWAP2 POP POP JUMP JUMPDEST PUSH2 0x17FC DUP2 PUSH2 0x13C7 JUMP JUMPDEST DUP3 MSTORE POP POP JUMP JUMPDEST PUSH0 PUSH1 0x20 DUP3 ADD SWAP1 POP PUSH2 0x1815 PUSH0 DUP4 ADD DUP5 PUSH2 0x17F3 JUMP JUMPDEST SWAP3 SWAP2 POP POP JUMP JUMPDEST PUSH0 PUSH0 REVERT JUMPDEST PUSH0 PUSH0 REVERT JUMPDEST PUSH32 0x4E487B7100000000000000000000000000000000000000000000000000000000 PUSH0 MSTORE PUSH1 0x41 PUSH1 0x4 MSTORE PUSH1 0x24 PUSH0 REVERT JUMPDEST PUSH2 0x1859 DUP3 PUSH2 0x14B1 JUMP JUMPDEST DUP2 ADD DUP2 DUP2 LT PUSH8 0xFFFFFFFFFFFFFFFF DUP3 GT OR ISZERO PUSH2 0x1878 JUMPI PUSH2 0x1877 PUSH2 0x1823 JUMP JUMPDEST JUMPDEST DUP1 PUSH1 0x40 MSTORE POP POP POP JUMP JUMPDEST PUSH0 PUSH2 0x188A PUSH2 0x1339 JUMP JUMPDEST SWAP1 POP PUSH2 0x1896 DUP3 DUP3 PUSH2 0x1850 JUMP JUMPDEST SWAP2 SWAP1 POP JUMP JUMPDEST PUSH0 PUSH8 0xFFFFFFFFFFFFFFFF DUP3 GT ISZERO PUSH2 0x18B5 JUMPI PUSH2 0x18B4 PUSH2 0x1823 JUMP JUMPDEST JUMPDEST PUSH2 0x18BE DUP3 PUSH2 0x14B1 JUMP JUMPDEST SWAP1 POP PUSH1 0x20 DUP2 ADD SWAP1 POP SWAP2 SWAP1 POP JUMP JUMPDEST DUP3 DUP2 DUP4 CALLDATACOPY PUSH0 DUP4 DUP4 ADD MSTORE POP POP POP JUMP JUMPDEST PUSH0 PUSH2 0x18EB PUSH2 0x18E6 DUP5 PUSH2 0x189B JUMP JUMPDEST PUSH2 0x1881 JUMP JUMPDEST SWAP1 POP DUP3 DUP2 MSTORE PUSH1 0x20 DUP2 ADD DUP5 DUP5 DUP5 ADD GT ISZERO PUSH2 0x1907 JUMPI PUSH2 0x1906 PUSH2 0x181F JUMP JUMPDEST JUMPDEST PUSH2 0x1912 DUP5 DUP3 DUP6 PUSH2 0x18CB JUMP JUMPDEST POP SWAP4 SWAP3 POP POP POP JUMP JUMPDEST PUSH0 DUP3 PUSH1 0x1F DUP4 ADD SLT PUSH2 0x192E JUMPI PUSH2 0x192D PUSH2 0x181B JUMP JUMPDEST JUMPDEST DUP2 CALLDATALOAD PUSH2 0x193E DUP5 DUP3 PUSH1 0x20 DUP7 ADD PUSH2 0x18D9 JUMP JUMPDEST SWAP2 POP POP SWAP3 SWAP2 POP POP JUMP JUMPDEST PUSH0 PUSH0 PUSH1 0x40 DUP4 DUP6 SUB SLT ISZERO PUSH2 0x195D JUMPI PUSH2 0x195C PUSH2 0x1342 JUMP JUMPDEST JUMPDEST PUSH0 DUP4 ADD CALLDATALOAD PUSH8 0xFFFFFFFFFFFFFFFF DUP2 GT ISZERO PUSH2 0x197A JUMPI PUSH2 0x1979 PUSH2 0x1346 JUMP JUMPDEST JUMPDEST PUSH2 0x1986 DUP6 DUP3 DUP7 ADD PUSH2 0x191A JUMP JUMPDEST SWAP3 POP POP PUSH1 0x20 DUP4 ADD CALLDATALOAD PUSH8 0xFFFFFFFFFFFFFFFF DUP2 GT ISZERO PUSH2 0x19A7 JUMPI PUSH2 0x19A6 PUSH2 0x1346 JUMP JUMPDEST JUMPDEST PUSH2 0x19B3 DUP6 DUP3 DUP7 ADD PUSH2 0x191A JUMP JUMPDEST SWAP2 POP POP SWAP3 POP SWAP3 SWAP1 POP JUMP JUMPDEST PUSH0 PUSH1 0x20 DUP3 ADD SWAP1 POP PUSH2 0x19D0 PUSH0 DUP4 ADD DUP5 PUSH2 0x1656 JUMP JUMPDEST SWAP3 SWAP2 POP POP JUMP JUMPDEST PUSH0 PUSH0 PUSH1 0x40 DUP4 DUP6 SUB SLT ISZERO PUSH2 0x19EC JUMPI PUSH2 0x19EB PUSH2 0x1342 JUMP JUMPDEST JUMPDEST PUSH0 PUSH2 0x19F9 DUP6 DUP3 DUP7 ADD PUSH2 0x1369 JUMP JUMPDEST SWAP3 POP POP PUSH1 0x20 PUSH2 0x1A0A DUP6 DUP3 DUP7 ADD PUSH2 0x1369 JUMP JUMPDEST SWAP2 POP POP SWAP3 POP SWAP3 SWAP1 POP JUMP JUMPDEST PUSH0 PUSH0 REVERT JUMPDEST PUSH0 PUSH0 REVERT JUMPDEST PUSH0 PUSH2 0x1A2E PUSH2 0x1A29 DUP5 PUSH2 0x189B JUMP JUMPDEST PUSH2 0x1881 JUMP JUMPDEST SWAP1 POP DUP3 DUP2 MSTORE PUSH1 0x20 DUP2 ADD DUP5 DUP5 DUP5 ADD GT ISZERO PUSH2 0x1A4A JUMPI PUSH2 0x1A49 PUSH2 0x181F JUMP JUMPDEST JUMPDEST PUSH2 0x1A55 DUP5 DUP3 DUP6 PUSH2 0x14A3 JUMP JUMPDEST POP SWAP4 SWAP3 POP POP POP JUMP JUMPDEST PUSH0 DUP3 PUSH1 0x1F DUP4 ADD SLT PUSH2 0x1A71 JUMPI PUSH2 0x1A70 PUSH2 0x181B JUMP JUMPDEST JUMPDEST DUP2 MLOAD PUSH2 0x1A81 DUP5 DUP3 PUSH1 0x20 DUP7 ADD PUSH2 0x1A1C JUMP JUMPDEST SWAP2 POP POP SWAP3 SWAP2 POP POP JUMP JUMPDEST PUSH0 DUP2 MLOAD SWAP1 POP PUSH2 0x1A98 DUP2 PUSH2 0x1353 JUMP JUMPDEST SWAP3 SWAP2 POP POP JUMP JUMPDEST PUSH0 DUP2 MLOAD SWAP1 POP PUSH2 0x1AAC DUP2 PUSH2 0x13D8 JUMP JUMPDEST SWAP3 SWAP2 POP POP JUMP JUMPDEST PUSH0 PUSH1 0x60 DUP3 DUP5 SUB SLT ISZERO PUSH2 0x1AC7 JUMPI PUSH2 0x1AC6 PUSH2 0x1A14 JUMP JUMPDEST JUMPDEST PUSH2 0x1AD1 PUSH1 0x60 PUSH2 0x1881 JUMP JUMPDEST SWAP1 POP PUSH0 DUP3 ADD MLOAD PUSH8 0xFFFFFFFFFFFFFFFF DUP2 GT ISZERO PUSH2 0x1AF0 JUMPI PUSH2 0x1AEF PUSH2 0x1A18 JUMP JUMPDEST JUMPDEST PUSH2 0x1AFC DUP5 DUP3 DUP6 ADD PUSH2 0x1A5D JUMP JUMPDEST PUSH0 DUP4 ADD MSTORE POP PUSH1 0x20 PUSH2 0x1B0F DUP5 DUP3 DUP6 ADD PUSH2 0x1A8A JUMP JUMPDEST PUSH1 0x20 DUP4 ADD MSTORE POP PUSH1 0x40 PUSH2 0x1B23 DUP5 DUP3 DUP6 ADD PUSH2 0x1A9E JUMP JUMPDEST PUSH1 0x40 DUP4 ADD MSTORE POP SWAP3 SWAP2 POP POP JUMP JUMPDEST PUSH0 PUSH1 0x20 DUP3 DUP5 SUB SLT ISZERO PUSH2 0x1B44 JUMPI PUSH2 0x1B43 PUSH2 0x1342 JUMP JUMPDEST JUMPDEST PUSH0 DUP3 ADD MLOAD PUSH8 0xFFFFFFFFFFFFFFFF DUP2 GT ISZERO PUSH2 0x1B61 JUMPI PUSH2 0x1B60 PUSH2 0x1346 JUMP JUMPDEST JUMPDEST PUSH2 0x1B6D DUP5 DUP3 DUP6 ADD PUSH2 0x1AB2 JUMP JUMPDEST SWAP2 POP POP SWAP3 SWAP2 POP POP JUMP JUMPDEST PUSH32 0x546869732075736572206973206E6F7420657869737400000000000000000000 PUSH0 DUP3 ADD MSTORE POP JUMP JUMPDEST PUSH0 PUSH2 0x1BAA PUSH1 0x16 DUP4 PUSH2 0x160E JUMP JUMPDEST SWAP2 POP PUSH2 0x1BB5 DUP3 PUSH2 0x1B76 JUMP JUMPDEST PUSH1 0x20 DUP3 ADD SWAP1 POP SWAP2 SWAP1 POP JUMP JUMPDEST PUSH0 PUSH1 0x20 DUP3 ADD SWAP1 POP DUP2 DUP2 SUB PUSH0 DUP4 ADD MSTORE PUSH2 0x1BD7 DUP2 PUSH2 0x1B9E JUMP JUMPDEST SWAP1 POP SWAP2 SWAP1 POP JUMP JUMPDEST PUSH32 0x5468697320706572736F6E20616C726561647920766F74656400000000000000 PUSH0 DUP3 ADD MSTORE POP JUMP JUMPDEST PUSH0 PUSH2 0x1C12 PUSH1 0x19 DUP4 PUSH2 0x160E JUMP JUMPDEST SWAP2 POP PUSH2 0x1C1D DUP3 PUSH2 0x1BDE JUMP JUMPDEST PUSH1 0x20 DUP3 ADD SWAP1 POP SWAP2 SWAP1 POP JUMP JUMPDEST PUSH0 PUSH1 0x20 DUP3 ADD SWAP1 POP DUP2 DUP2 SUB PUSH0 DUP4 ADD MSTORE PUSH2 0x1C3F DUP2 PUSH2 0x1C06 JUMP JUMPDEST SWAP1 POP SWAP2 SWAP1 POP JUMP JUMPDEST PUSH32 0x496E76616C69642063616E646964617465000000000000000000000000000000 PUSH0 DUP3 ADD MSTORE POP JUMP JUMPDEST PUSH0 PUSH2 0x1C7A PUSH1 0x11 DUP4 PUSH2 0x160E JUMP JUMPDEST SWAP2 POP PUSH2 0x1C85 DUP3 PUSH2 0x1C46 JUMP JUMPDEST PUSH1 0x20 DUP3 ADD SWAP1 POP SWAP2 SWAP1 POP JUMP JUMPDEST PUSH0 PUSH1 0x20 DUP3 ADD SWAP1 POP DUP2 DUP2 SUB PUSH0 DUP4 ADD MSTORE PUSH2 0x1CA7 DUP2 PUSH2 0x1C6E JUMP JUMPDEST SWAP1 POP SWAP2 SWAP1 POP JUMP JUMPDEST PUSH32 0x4E487B7100000000000000000000000000000000000000000000000000000000 PUSH0 MSTORE PUSH1 0x32 PUSH1 0x4 MSTORE PUSH1 0x24 PUSH0 REVERT JUMPDEST PUSH32 0x4E487B7100000000000000000000000000000000000000000000000000000000 PUSH0 MSTORE PUSH1 0x11 PUSH1 0x4 MSTORE PUSH1 0x24 PUSH0 REVERT JUMPDEST PUSH0 PUSH2 0x1D12 DUP3 PUSH2 0x134A JUMP JUMPDEST SWAP2 POP PUSH32 0xFFFFFFFFFFFFFFFFFFFFFFFFFFFFFFFFFFFFFFFFFFFFFFFFFFFFFFFFFFFFFFFF DUP3 SUB PUSH2 0x1D44 JUMPI PUSH2 0x1D43 PUSH2 0x1CDB JUMP JUMPDEST JUMPDEST PUSH1 0x1 DUP3 ADD SWAP1 POP SWAP2 SWAP1 POP JUMP JUMPDEST PUSH0 PUSH2 0x1D59 DUP3 PUSH2 0x134A JUMP JUMPDEST SWAP2 POP PUSH2 0x1D64 DUP4 PUSH2 0x134A JUMP JUMPDEST SWAP3 POP DUP3 DUP3 SUB SWAP1 POP DUP2 DUP2 GT ISZERO PUSH2 0x1D7C JUMPI PUSH2 0x1D7B PUSH2 0x1CDB JUMP JUMPDEST JUMPDEST SWAP3 SWAP2 POP POP JUMP JUMPDEST PUSH32 0x4E487B7100000000000000000000000000000000000000000000000000000000 PUSH0 MSTORE PUSH1 0x22 PUSH1 0x4 MSTORE PUSH1 0x24 PUSH0 REVERT JUMPDEST PUSH0 PUSH1 0x2 DUP3 DIV SWAP1 POP PUSH1 0x1 DUP3 AND DUP1 PUSH2 0x1DC6 JUMPI PUSH1 0x7F DUP3 AND SWAP2 POP JUMPDEST PUSH1 0x20 DUP3 LT DUP2 SUB PUSH2 0x1DD9 JUMPI PUSH2 0x1DD8 PUSH2 0x1D82 JUMP JUMPDEST JUMPDEST POP SWAP2 SWAP1 POP JUMP JUMPDEST PUSH0 DUP2 SLOAD SWAP1 POP PUSH2 0x1DED DUP2 PUSH2 0x1DAF JUMP JUMPDEST SWAP1 POP SWAP2 SWAP1 POP JUMP JUMPDEST PUSH0 DUP2 SWAP1 POP DUP2 PUSH0 MSTORE PUSH1 0x20 PUSH0 KECCAK256 SWAP1 POP SWAP2 SWAP1 POP JUMP JUMPDEST PUSH0 PUSH1 0x20 PUSH1 0x1F DUP4 ADD DIV SWAP1 POP SWAP2 SWAP1 POP JUMP JUMPDEST PUSH0 DUP3 DUP3 SHL SWAP1 POP SWAP3 SWAP2 POP POP JUMP JUMPDEST PUSH0 PUSH1 0x8 DUP4 MUL PUSH2 0x1E50 PUSH32 0xFFFFFFFFFFFFFFFFFFFFFFFFFFFFFFFFFFFFFFFFFFFFFFFFFFFFFFFFFFFFFFFF DUP3 PUSH2 0x1E15 JUMP JUMPDEST PUSH2 0x1E5A DUP7 DUP4 PUSH2 0x1E15 JUMP JUMPDEST SWAP6 POP DUP1 NOT DUP5 AND SWAP4 POP DUP1 DUP7 AND DUP5 OR SWAP3 POP POP POP SWAP4 SWAP3 POP POP POP JUMP JUMPDEST PUSH0 DUP2 SWAP1 POP SWAP2 SWAP1 POP JUMP JUMPDEST PUSH0 PUSH2 0x1E95 PUSH2 0x1E90 PUSH2 0x1E8B DUP5 PUSH2 0x134A JUMP JUMPDEST PUSH2 0x1E72 JUMP JUMPDEST PUSH2 0x134A JUMP JUMPDEST SWAP1 POP SWAP2 SWAP1 POP JUMP JUMPDEST PUSH0 DUP2 SWAP1 POP SWAP2 SWAP1 POP JUMP JUMPDEST PUSH2 0x1EAE DUP4 PUSH2 0x1E7B JUMP JUMPDEST PUSH2 0x1EC2 PUSH2 0x1EBA DUP3 PUSH2 0x1E9C JUMP JUMPDEST DUP5 DUP5 SLOAD PUSH2 0x1E21 JUMP JUMPDEST DUP3 SSTORE POP POP POP POP JUMP JUMPDEST PUSH0 PUSH0 SWAP1 POP SWAP1 JUMP JUMPDEST PUSH2 0x1ED9 PUSH2 0x1ECA JUMP JUMPDEST PUSH2 0x1EE4 DUP2 DUP5 DUP5 PUSH2 0x1EA5 JUMP JUMPDEST POP POP POP JUMP JUMPDEST JUMPDEST DUP2 DUP2 LT ISZERO PUSH2 0x1F07 JUMPI PUSH2 0x1EFC PUSH0 DUP3 PUSH2 0x1ED1 JUMP JUMPDEST PUSH1 0x1 DUP2 ADD SWAP1 POP PUSH2 0x1EEA JUMP JUMPDEST POP POP JUMP JUMPDEST PUSH1 0x1F DUP3 GT ISZERO PUSH2 0x1F4C JUMPI PUSH2 0x1F1D DUP2 PUSH2 0x1DF4 JUMP JUMPDEST PUSH2 0x1F26 DUP5 PUSH2 0x1E06 JUMP JUMPDEST DUP2 ADD PUSH1 0x20 DUP6 LT ISZERO PUSH2 0x1F35 JUMPI DUP2 SWAP1 POP JUMPDEST PUSH2 0x1F49 PUSH2 0x1F41 DUP6 PUSH2 0x1E06 JUMP JUMPDEST DUP4 ADD DUP3 PUSH2 0x1EE9 JUMP JUMPDEST POP POP JUMPDEST POP POP POP JUMP JUMPDEST PUSH0 DUP3 DUP3 SHR SWAP1 POP SWAP3 SWAP2 POP POP JUMP JUMPDEST PUSH0 PUSH2 0x1F6C PUSH0 NOT DUP5 PUSH1 0x8 MUL PUSH2 0x1F51 JUMP JUMPDEST NOT DUP1 DUP4 AND SWAP2 POP POP SWAP3 SWAP2 POP POP JUMP JUMPDEST PUSH0 PUSH2 0x1F84 DUP4 DUP4 PUSH2 0x1F5D JUMP JUMPDEST SWAP2 POP DUP3 PUSH1 0x2 MUL DUP3 OR SWAP1 POP SWAP3 SWAP2 POP POP JUMP JUMPDEST DUP2 DUP2 SUB PUSH2 0x1FA2 JUMPI POP POP PUSH2 0x2077 JUMP JUMPDEST PUSH2 0x1FAB DUP3 PUSH2 0x1DDF JUMP JUMPDEST PUSH8 0xFFFFFFFFFFFFFFFF DUP2 GT ISZERO PUSH2 0x1FC4 JUMPI PUSH2 0x1FC3 PUSH2 0x1823 JUMP JUMPDEST JUMPDEST PUSH2 0x1FCE DUP3 SLOAD PUSH2 0x1DAF JUMP JUMPDEST PUSH2 0x1FD9 DUP3 DUP3 DUP6 PUSH2 0x1F0B JUMP JUMPDEST PUSH0 PUSH1 0x1F DUP4 GT PUSH1 0x1 DUP2 EQ PUSH2 0x2006 JUMPI PUSH0 DUP5 ISZERO PUSH2 0x1FF4 JUMPI DUP3 DUP8 ADD SLOAD SWAP1 POP JUMPDEST PUSH2 0x1FFE DUP6 DUP3 PUSH2 0x1F79 JUMP JUMPDEST DUP7 SSTORE POP PUSH2 0x2070 JUMP JUMPDEST PUSH1 0x1F NOT DUP5 AND PUSH2 0x2014 DUP8 PUSH2 0x1DF4 JUMP JUMPDEST SWAP7 POP PUSH2 0x201F DUP7 PUSH2 0x1DF4 JUMP JUMPDEST PUSH0 JUMPDEST DUP3 DUP2 LT ISZERO PUSH2 0x2046 JUMPI DUP5 DUP10 ADD SLOAD DUP3 SSTORE PUSH1 0x1 DUP3 ADD SWAP2 POP PUSH1 0x1 DUP6 ADD SWAP5 POP PUSH1 0x20 DUP2 ADD SWAP1 POP PUSH2 0x2021 JUMP JUMPDEST DUP7 DUP4 LT ISZERO PUSH2 0x2063 JUMPI DUP5 DUP10 ADD SLOAD PUSH2 0x205F PUSH1 0x1F DUP10 AND DUP3 PUSH2 0x1F5D JUMP JUMPDEST DUP4 SSTORE POP JUMPDEST PUSH1 0x1 PUSH1 0x2 DUP9 MUL ADD DUP9 SSTORE POP POP POP JUMPDEST POP POP POP POP POP POP JUMPDEST JUMP JUMPDEST PUSH32 0x4E487B7100000000000000000000000000000000000000000000000000000000 PUSH0 MSTORE PUSH1 0x31 PUSH1 0x4 MSTORE PUSH1 0x24 PUSH0 REVERT JUMPDEST PUSH2 0x20AF DUP3 PUSH2 0x1489 JUMP JUMPDEST PUSH8 0xFFFFFFFFFFFFFFFF DUP2 GT ISZERO PUSH2 0x20C8 JUMPI PUSH2 0x20C7 PUSH2 0x1823 JUMP JUMPDEST JUMPDEST PUSH2 0x20D2 DUP3 SLOAD PUSH2 0x1DAF JUMP JUMPDEST PUSH2 0x20DD DUP3 DUP3 DUP6 PUSH2 0x1F0B JUMP JUMPDEST PUSH0 PUSH1 0x20 SWAP1 POP PUSH1 0x1F DUP4 GT PUSH1 0x1 DUP2 EQ PUSH2 0x210E JUMPI PUSH0 DUP5 ISZERO PUSH2 0x20FC JUMPI DUP3 DUP8 ADD MLOAD SWAP1 POP JUMPDEST PUSH2 0x2106 DUP6 DUP3 PUSH2 0x1F79 JUMP JUMPDEST DUP7 SSTORE POP PUSH2 0x216D JUMP JUMPDEST PUSH1 0x1F NOT DUP5 AND PUSH2 0x211C DUP7 PUSH2 0x1DF4 JUMP JUMPDEST PUSH0 JUMPDEST DUP3 DUP2 LT ISZERO PUSH2 0x2143 JUMPI DUP5 DUP10 ADD MLOAD DUP3 SSTORE PUSH1 0x1 DUP3 ADD SWAP2 POP PUSH1 0x20 DUP6 ADD SWAP5 POP PUSH1 0x20 DUP2 ADD SWAP1 POP PUSH2 0x211E JUMP JUMPDEST DUP7 DUP4 LT ISZERO PUSH2 0x2160 JUMPI DUP5 DUP10 ADD MLOAD PUSH2 0x215C PUSH1 0x1F DUP10 AND DUP3 PUSH2 0x1F5D JUMP JUMPDEST DUP4 SSTORE POP JUMPDEST PUSH1 0x1 PUSH1 0x2 DUP9 MUL ADD DUP9 SSTORE POP POP POP JUMPDEST POP POP POP POP POP POP JUMP INVALID LOG2 PUSH5 0x6970667358 0x22 SLT KECCAK256 DUP12 MULMOD 0xE8 MSIZE PUSH3 0xA90FAB 0xB1 SWAP13 0xED DUP16 SSTORE NUMBER ADDRESS CALLDATALOAD OR BALANCE DUP2 PUSH14 0xBD2AA72D1AD976835B81FD746473 PUSH16 0x6C634300081C00330000000000000000 "
				},
				"gasEstimates": {
					"creation": {
						"codeDepositCost": "1723800",
						"executionCost": "infinite",
						"totalCost": "infinite"
					},
					"external": {
						"candidates(uint256)": "infinite",
						"checkHasVoted()": "2583",
						"checkIsOnwer()": "2612",
						"createCandidate(string,string)": "infinite",
						"getAllCandidates()": "infinite",
						"getCandidateVoters(uint256)": "infinite",
						"getTheMostVoteCandidates()": "infinite",
						"hasVoted(address)": "2901",
						"owner()": "2581",
						"removeCandidate(uint256)": "infinite",
						"removeUser(uint256)": "infinite",
						"renounceOwnership()": "infinite",
						"transferOwnership(address)": "infinite",
						"vote(uint256)": "infinite",
						"voterChoice(address)": "2846",
						"voters(uint256,uint256)": "infinite"
					}
				},
				"methodIdentifiers": {
					"candidates(uint256)": "3477ee2e",
					"checkHasVoted()": "1234ce9d",
					"checkIsOnwer()": "8fd26f89",
					"createCandidate(string,string)": "9ab1c0ed",
					"getAllCandidates()": "2e6997fe",
					"getCandidateVoters(uint256)": "4521083f",
					"getTheMostVoteCandidates()": "8312feb3",
					"hasVoted(address)": "09eef43e",
					"owner()": "8da5cb5b",
					"removeCandidate(uint256)": "09e9d7e2",
					"removeUser(uint256)": "11dc4703",
					"renounceOwnership()": "715018a6",
					"transferOwnership(address)": "f2fde38b",
					"vote(uint256)": "0121b93f",
					"voterChoice(address)": "ad84c2da",
					"voters(uint256,uint256)": "fba00cbd"
				}
			},
			"storageLayout": {
				"storage": [
					{
						"astId": 8,
						"contract": "contracts/Voting.sol:Voting",
						"label": "_owner",
						"offset": 0,
						"slot": "0",
						"type": "t_address"
					},
					{
						"astId": 206,
						"contract": "contracts/Voting.sol:Voting",
						"label": "userContract",
						"offset": 0,
						"slot": "1",
						"type": "t_contract(IUser)201"
					},
					{
						"astId": 217,
						"contract": "contracts/Voting.sol:Voting",
						"label": "candidates",
						"offset": 0,
						"slot": "2",
						"type": "t_array(t_struct(Person)213_storage)dyn_storage"
					},
					{
						"astId": 221,
						"contract": "contracts/Voting.sol:Voting",
						"label": "hasVoted",
						"offset": 0,
						"slot": "3",
						"type": "t_mapping(t_address,t_bool)"
					},
					{
						"astId": 225,
						"contract": "contracts/Voting.sol:Voting",
						"label": "voterChoice",
						"offset": 0,
						"slot": "4",
						"type": "t_mapping(t_address,t_uint256)"
					},
					{
						"astId": 230,
						"contract": "contracts/Voting.sol:Voting",
						"label": "voters",
						"offset": 0,
						"slot": "5",
						"type": "t_mapping(t_uint256,t_array(t_address)dyn_storage)"
					}
				],
				"types": {
					"t_address": {
						"encoding": "inplace",
						"label": "address",
						"numberOfBytes": "20"
					},
					"t_array(t_address)dyn_storage": {
						"base": "t_address",
						"encoding": "dynamic_array",
						"label": "address[]",
						"numberOfBytes": "32"
					},
					"t_array(t_struct(Person)213_storage)dyn_storage": {
						"base": "t_struct(Person)213_storage",
						"encoding": "dynamic_array",
						"label": "struct Voting.Person[]",
						"numberOfBytes": "32"
					},
					"t_bool": {
						"encoding": "inplace",
						"label": "bool",
						"numberOfBytes": "1"
					},
					"t_contract(IUser)201": {
						"encoding": "inplace",
						"label": "contract IUser",
						"numberOfBytes": "20"
					},
					"t_mapping(t_address,t_bool)": {
						"encoding": "mapping",
						"key": "t_address",
						"label": "mapping(address => bool)",
						"numberOfBytes": "32",
						"value": "t_bool"
					},
					"t_mapping(t_address,t_uint256)": {
						"encoding": "mapping",
						"key": "t_address",
						"label": "mapping(address => uint256)",
						"numberOfBytes": "32",
						"value": "t_uint256"
					},
					"t_mapping(t_uint256,t_array(t_address)dyn_storage)": {
						"encoding": "mapping",
						"key": "t_uint256",
						"label": "mapping(uint256 => address[])",
						"numberOfBytes": "32",
						"value": "t_array(t_address)dyn_storage"
					},
					"t_string_storage": {
						"encoding": "bytes",
						"label": "string",
						"numberOfBytes": "32"
					},
					"t_struct(Person)213_storage": {
						"encoding": "inplace",
						"label": "struct Voting.Person",
						"members": [
							{
								"astId": 208,
								"contract": "contracts/Voting.sol:Voting",
								"label": "name",
								"offset": 0,
								"slot": "0",
								"type": "t_string_storage"
							},
							{
								"astId": 210,
								"contract": "contracts/Voting.sol:Voting",
								"label": "desc",
								"offset": 0,
								"slot": "1",
								"type": "t_string_storage"
							},
							{
								"astId": 212,
								"contract": "contracts/Voting.sol:Voting",
								"label": "votes",
								"offset": 0,
								"slot": "2",
								"type": "t_uint256"
							}
						],
						"numberOfBytes": "96"
					},
					"t_uint256": {
						"encoding": "inplace",
						"label": "uint256",
						"numberOfBytes": "32"
					}
				}
			},
			"userdoc": {
				"kind": "user",
				"methods": {},
				"version": 1
			}
		}
	}
}